{
	"contracts/Loanify_New.sol": {
		"Loanify": {
			"abi": [
				{
					"inputs": [],
					"stateMutability": "nonpayable",
					"type": "constructor"
				},
				{
					"inputs": [
						{
							"internalType": "address",
							"name": "_customer",
							"type": "address"
						},
						{
							"internalType": "uint256",
							"name": "_creditScore",
							"type": "uint256"
						},
						{
							"internalType": "uint256",
							"name": "_netIncome",
							"type": "uint256"
						},
						{
							"internalType": "uint256",
							"name": "_customer_balance",
							"type": "uint256"
						}
					],
					"name": "addCustomer",
					"outputs": [],
					"stateMutability": "nonpayable",
					"type": "function"
				},
				{
					"inputs": [
						{
							"internalType": "address",
							"name": "",
							"type": "address"
						}
					],
					"name": "creditScore",
					"outputs": [
						{
							"internalType": "uint256",
							"name": "",
							"type": "uint256"
						}
					],
					"stateMutability": "view",
					"type": "function"
				},
				{
					"inputs": [
						{
							"internalType": "uint256",
							"name": "",
							"type": "uint256"
						}
					],
					"name": "customerArray",
					"outputs": [
						{
							"internalType": "address",
							"name": "customerAddress",
							"type": "address"
						},
						{
							"internalType": "uint256",
							"name": "creditScore",
							"type": "uint256"
						},
						{
							"internalType": "uint256",
							"name": "customer_netIncomepm",
							"type": "uint256"
						},
						{
							"internalType": "uint256",
							"name": "customer_balance",
							"type": "uint256"
						}
					],
					"stateMutability": "view",
					"type": "function"
				},
				{
					"inputs": [
						{
							"internalType": "address",
							"name": "",
							"type": "address"
						}
					],
					"name": "customer_balance",
					"outputs": [
						{
							"internalType": "uint256",
							"name": "",
							"type": "uint256"
						}
					],
					"stateMutability": "view",
					"type": "function"
				},
				{
					"inputs": [
						{
							"internalType": "address",
							"name": "",
							"type": "address"
						}
					],
					"name": "customer_netIncomepm",
					"outputs": [
						{
							"internalType": "uint256",
							"name": "",
							"type": "uint256"
						}
					],
					"stateMutability": "view",
					"type": "function"
				},
				{
					"inputs": [],
					"name": "getCreditScore",
					"outputs": [
						{
							"internalType": "uint256",
							"name": "",
							"type": "uint256"
						}
					],
					"stateMutability": "view",
					"type": "function"
				},
				{
					"inputs": [],
					"name": "getNetIncome",
					"outputs": [
						{
							"internalType": "uint256",
							"name": "",
							"type": "uint256"
						}
					],
					"stateMutability": "view",
					"type": "function"
				},
				{
					"inputs": [
						{
							"internalType": "address",
							"name": "_customer",
							"type": "address"
						},
						{
							"internalType": "uint256",
							"name": "loan_amount",
							"type": "uint256"
						},
						{
							"internalType": "uint256",
							"name": "loan_duration",
							"type": "uint256"
						}
					],
					"name": "requestLoan",
					"outputs": [
						{
							"internalType": "uint256",
							"name": "",
							"type": "uint256"
						}
					],
					"stateMutability": "nonpayable",
					"type": "function"
				},
				{
					"inputs": [
						{
							"internalType": "uint256",
							"name": "_loan_amount",
							"type": "uint256"
						}
					],
					"name": "sendFunds",
					"outputs": [],
					"stateMutability": "payable",
					"type": "function"
				}
			],
			"devdoc": {
				"kind": "dev",
				"methods": {},
				"version": 1
			},
			"evm": {
				"assembly": "    /* \"contracts/Loanify_New.sol\":56:2889  contract Loanify{... */\n  mstore(0x40, 0x80)\n    /* \"contracts/Loanify_New.sol\":513:650  constructor(){... */\n  callvalue\n  dup1\n  iszero\n  tag_1\n  jumpi\n  0x00\n  dup1\n  revert\ntag_1:\n  pop\n    /* \"contracts/Loanify_New.sol\":630:633  100 */\n  0x64\n    /* \"contracts/Loanify_New.sol\":611:627  contract_balance */\n  0x04\n    /* \"contracts/Loanify_New.sol\":611:633  contract_balance = 100 */\n  dup2\n  swap1\n  sstore\n  pop\n    /* \"contracts/Loanify_New.sol\":56:2889  contract Loanify{... */\n  dataSize(sub_0)\n  dup1\n  dataOffset(sub_0)\n  0x00\n  codecopy\n  0x00\n  return\nstop\n\nsub_0: assembly {\n        /* \"contracts/Loanify_New.sol\":56:2889  contract Loanify{... */\n      mstore(0x40, 0x80)\n      jumpi(tag_1, lt(calldatasize, 0x04))\n      shr(0xe0, calldataload(0x00))\n      dup1\n      0x79621078\n      gt\n      tag_11\n      jumpi\n      dup1\n      0x79621078\n      eq\n      tag_6\n      jumpi\n      dup1\n      0x8b281018\n      eq\n      tag_7\n      jumpi\n      dup1\n      0x90d8925f\n      eq\n      tag_8\n      jumpi\n      dup1\n      0x9244dd74\n      eq\n      tag_9\n      jumpi\n      dup1\n      0xf7e590ee\n      eq\n      tag_10\n      jumpi\n      jump(tag_1)\n    tag_11:\n      dup1\n      0x0fd89277\n      eq\n      tag_2\n      jumpi\n      dup1\n      0x24b7eb8c\n      eq\n      tag_3\n      jumpi\n      dup1\n      0x5da19538\n      eq\n      tag_4\n      jumpi\n      dup1\n      0x6f77ff55\n      eq\n      tag_5\n      jumpi\n    tag_1:\n      0x00\n      dup1\n      revert\n        /* \"contracts/Loanify_New.sol\":159:214  mapping(address => uint256) public customer_netIncomepm */\n    tag_2:\n      callvalue\n      dup1\n      iszero\n      tag_12\n      jumpi\n      0x00\n      dup1\n      revert\n    tag_12:\n      pop\n      tag_13\n      0x04\n      dup1\n      calldatasize\n      sub\n      dup2\n      add\n      swap1\n      tag_14\n      swap2\n      swap1\n      tag_15\n      jump\t// in\n    tag_14:\n      tag_16\n      jump\t// in\n    tag_13:\n      mload(0x40)\n      tag_17\n      swap2\n      swap1\n      tag_18\n      jump\t// in\n    tag_17:\n      mload(0x40)\n      dup1\n      swap2\n      sub\n      swap1\n      return\n        /* \"contracts/Loanify_New.sol\":656:693  CustomerSchema[] public customerArray */\n    tag_3:\n      callvalue\n      dup1\n      iszero\n      tag_19\n      jumpi\n      0x00\n      dup1\n      revert\n    tag_19:\n      pop\n      tag_20\n      0x04\n      dup1\n      calldatasize\n      sub\n      dup2\n      add\n      swap1\n      tag_21\n      swap2\n      swap1\n      tag_22\n      jump\t// in\n    tag_21:\n      tag_23\n      jump\t// in\n    tag_20:\n      mload(0x40)\n      tag_24\n      swap5\n      swap4\n      swap3\n      swap2\n      swap1\n      tag_25\n      jump\t// in\n    tag_24:\n      mload(0x40)\n      dup1\n      swap2\n      sub\n      swap1\n      return\n        /* \"contracts/Loanify_New.sol\":1482:1668  function getCreditScore() public view returns (uint256) {... */\n    tag_4:\n      callvalue\n      dup1\n      iszero\n      tag_26\n      jumpi\n      0x00\n      dup1\n      revert\n    tag_26:\n      pop\n      tag_27\n      tag_28\n      jump\t// in\n    tag_27:\n      mload(0x40)\n      tag_29\n      swap2\n      swap1\n      tag_18\n      jump\t// in\n    tag_29:\n      mload(0x40)\n      dup1\n      swap2\n      sub\n      swap1\n      return\n        /* \"contracts/Loanify_New.sol\":1880:2571  function requestLoan(address _customer, uint256 loan_amount, uint256 loan_duration) public returns(uint256){... */\n    tag_5:\n      callvalue\n      dup1\n      iszero\n      tag_30\n      jumpi\n      0x00\n      dup1\n      revert\n    tag_30:\n      pop\n      tag_31\n      0x04\n      dup1\n      calldatasize\n      sub\n      dup2\n      add\n      swap1\n      tag_32\n      swap2\n      swap1\n      tag_33\n      jump\t// in\n    tag_32:\n      tag_34\n      jump\t// in\n    tag_31:\n      mload(0x40)\n      tag_35\n      swap2\n      swap1\n      tag_18\n      jump\t// in\n    tag_35:\n      mload(0x40)\n      dup1\n      swap2\n      sub\n      swap1\n      return\n        /* \"contracts/Loanify_New.sol\":778:1476  function addCustomer(address _customer, uint256 _creditScore, uint256 _netIncome, uint256 _customer_balance) public {... */\n    tag_6:\n      callvalue\n      dup1\n      iszero\n      tag_36\n      jumpi\n      0x00\n      dup1\n      revert\n    tag_36:\n      pop\n      tag_37\n      0x04\n      dup1\n      calldatasize\n      sub\n      dup2\n      add\n      swap1\n      tag_38\n      swap2\n      swap1\n      tag_39\n      jump\t// in\n    tag_38:\n      tag_40\n      jump\t// in\n    tag_37:\n      stop\n        /* \"contracts/Loanify_New.sol\":2577:2886  function sendFunds(uint256 _loan_amount) public payable{... */\n    tag_7:\n      tag_41\n      0x04\n      dup1\n      calldatasize\n      sub\n      dup2\n      add\n      swap1\n      tag_42\n      swap2\n      swap1\n      tag_22\n      jump\t// in\n    tag_42:\n      tag_43\n      jump\t// in\n    tag_41:\n      stop\n        /* \"contracts/Loanify_New.sol\":220:271  mapping(address => uint256) public customer_balance */\n    tag_8:\n      callvalue\n      dup1\n      iszero\n      tag_44\n      jumpi\n      0x00\n      dup1\n      revert\n    tag_44:\n      pop\n      tag_45\n      0x04\n      dup1\n      calldatasize\n      sub\n      dup2\n      add\n      swap1\n      tag_46\n      swap2\n      swap1\n      tag_15\n      jump\t// in\n    tag_46:\n      tag_47\n      jump\t// in\n    tag_45:\n      mload(0x40)\n      tag_48\n      swap2\n      swap1\n      tag_18\n      jump\t// in\n    tag_48:\n      mload(0x40)\n      dup1\n      swap2\n      sub\n      swap1\n      return\n        /* \"contracts/Loanify_New.sol\":1674:1874  function getNetIncome() public view returns (uint256) {... */\n    tag_9:\n      callvalue\n      dup1\n      iszero\n      tag_49\n      jumpi\n      0x00\n      dup1\n      revert\n    tag_49:\n      pop\n      tag_50\n      tag_51\n      jump\t// in\n    tag_50:\n      mload(0x40)\n      tag_52\n      swap2\n      swap1\n      tag_18\n      jump\t// in\n    tag_52:\n      mload(0x40)\n      dup1\n      swap2\n      sub\n      swap1\n      return\n        /* \"contracts/Loanify_New.sol\":107:153  mapping(address => uint256) public creditScore */\n    tag_10:\n      callvalue\n      dup1\n      iszero\n      tag_53\n      jumpi\n      0x00\n      dup1\n      revert\n    tag_53:\n      pop\n      tag_54\n      0x04\n      dup1\n      calldatasize\n      sub\n      dup2\n      add\n      swap1\n      tag_55\n      swap2\n      swap1\n      tag_15\n      jump\t// in\n    tag_55:\n      tag_56\n      jump\t// in\n    tag_54:\n      mload(0x40)\n      tag_57\n      swap2\n      swap1\n      tag_18\n      jump\t// in\n    tag_57:\n      mload(0x40)\n      dup1\n      swap2\n      sub\n      swap1\n      return\n        /* \"contracts/Loanify_New.sol\":159:214  mapping(address => uint256) public customer_netIncomepm */\n    tag_16:\n      mstore(0x20, 0x02)\n      dup1\n      0x00\n      mstore\n      keccak256(0x00, 0x40)\n      0x00\n      swap2\n      pop\n      swap1\n      pop\n      sload\n      dup2\n      jump\t// out\n        /* \"contracts/Loanify_New.sol\":656:693  CustomerSchema[] public customerArray */\n    tag_23:\n      0x05\n      dup2\n      dup2\n      sload\n      dup2\n      lt\n      tag_58\n      jumpi\n      0x00\n      dup1\n      revert\n    tag_58:\n      swap1\n      0x00\n      mstore\n      keccak256(0x00, 0x20)\n      swap1\n      0x04\n      mul\n      add\n      0x00\n      swap2\n      pop\n      swap1\n      pop\n      dup1\n      0x00\n      add\n      0x00\n      swap1\n      sload\n      swap1\n      0x0100\n      exp\n      swap1\n      div\n      0xffffffffffffffffffffffffffffffffffffffff\n      and\n      swap1\n      dup1\n      0x01\n      add\n      sload\n      swap1\n      dup1\n      0x02\n      add\n      sload\n      swap1\n      dup1\n      0x03\n      add\n      sload\n      swap1\n      pop\n      dup5\n      jump\t// out\n        /* \"contracts/Loanify_New.sol\":1482:1668  function getCreditScore() public view returns (uint256) {... */\n    tag_28:\n        /* \"contracts/Loanify_New.sol\":1529:1536  uint256 */\n      0x00\n        /* \"contracts/Loanify_New.sol\":1584:1585  0 */\n      dup1\n        /* \"contracts/Loanify_New.sol\":1557:1568  creditScore */\n      0x01\n        /* \"contracts/Loanify_New.sol\":1557:1580  creditScore[msg.sender] */\n      0x00\n        /* \"contracts/Loanify_New.sol\":1569:1579  msg.sender */\n      caller\n        /* \"contracts/Loanify_New.sol\":1557:1580  creditScore[msg.sender] */\n      0xffffffffffffffffffffffffffffffffffffffff\n      and\n      0xffffffffffffffffffffffffffffffffffffffff\n      and\n      dup2\n      mstore\n      0x20\n      add\n      swap1\n      dup2\n      mstore\n      0x20\n      add\n      0x00\n      keccak256\n      sload\n        /* \"contracts/Loanify_New.sol\":1557:1585  creditScore[msg.sender] != 0 */\n      sub\n        /* \"contracts/Loanify_New.sol\":1549:1620  require(creditScore[msg.sender] != 0,\"Error getting your credit score\") */\n      tag_61\n      jumpi\n      mload(0x40)\n      0x08c379a000000000000000000000000000000000000000000000000000000000\n      dup2\n      mstore\n      0x04\n      add\n      tag_62\n      swap1\n      tag_63\n      jump\t// in\n    tag_62:\n      mload(0x40)\n      dup1\n      swap2\n      sub\n      swap1\n      revert\n    tag_61:\n        /* \"contracts/Loanify_New.sol\":1637:1648  creditScore */\n      0x01\n        /* \"contracts/Loanify_New.sol\":1637:1660  creditScore[msg.sender] */\n      0x00\n        /* \"contracts/Loanify_New.sol\":1649:1659  msg.sender */\n      caller\n        /* \"contracts/Loanify_New.sol\":1637:1660  creditScore[msg.sender] */\n      0xffffffffffffffffffffffffffffffffffffffff\n      and\n      0xffffffffffffffffffffffffffffffffffffffff\n      and\n      dup2\n      mstore\n      0x20\n      add\n      swap1\n      dup2\n      mstore\n      0x20\n      add\n      0x00\n      keccak256\n      sload\n        /* \"contracts/Loanify_New.sol\":1630:1660  return creditScore[msg.sender] */\n      swap1\n      pop\n        /* \"contracts/Loanify_New.sol\":1482:1668  function getCreditScore() public view returns (uint256) {... */\n      swap1\n      jump\t// out\n        /* \"contracts/Loanify_New.sol\":1880:2571  function requestLoan(address _customer, uint256 loan_amount, uint256 loan_duration) public returns(uint256){... */\n    tag_34:\n        /* \"contracts/Loanify_New.sol\":1979:1986  uint256 */\n      0x00\n        /* \"contracts/Loanify_New.sol\":2002:2016  uint256 credit */\n      dup1\n        /* \"contracts/Loanify_New.sol\":2019:2035  getCreditScore() */\n      tag_65\n        /* \"contracts/Loanify_New.sol\":2019:2033  getCreditScore */\n      tag_28\n        /* \"contracts/Loanify_New.sol\":2019:2035  getCreditScore() */\n      jump\t// in\n    tag_65:\n        /* \"contracts/Loanify_New.sol\":2002:2035  uint256 credit = getCreditScore() */\n      swap1\n      pop\n        /* \"contracts/Loanify_New.sol\":2049:2060  uint256 net */\n      0x00\n        /* \"contracts/Loanify_New.sol\":2063:2077  getNetIncome() */\n      tag_66\n        /* \"contracts/Loanify_New.sol\":2063:2075  getNetIncome */\n      tag_51\n        /* \"contracts/Loanify_New.sol\":2063:2077  getNetIncome() */\n      jump\t// in\n    tag_66:\n        /* \"contracts/Loanify_New.sol\":2049:2077  uint256 net = getNetIncome() */\n      swap1\n      pop\n        /* \"contracts/Loanify_New.sol\":2110:2113  350 */\n      0x015e\n        /* \"contracts/Loanify_New.sol\":2100:2106  credit */\n      dup3\n        /* \"contracts/Loanify_New.sol\":2100:2113  credit >= 350 */\n      lt\n      iszero\n        /* \"contracts/Loanify_New.sol\":2092:2139  require(credit >= 350 , \"Credit score too low\") */\n      tag_67\n      jumpi\n      mload(0x40)\n      0x08c379a000000000000000000000000000000000000000000000000000000000\n      dup2\n      mstore\n      0x04\n      add\n      tag_68\n      swap1\n      tag_69\n      jump\t// in\n    tag_68:\n      mload(0x40)\n      dup1\n      swap2\n      sub\n      swap1\n      revert\n    tag_67:\n        /* \"contracts/Loanify_New.sol\":2176:2192  contract_balance */\n      sload(0x04)\n        /* \"contracts/Loanify_New.sol\":2161:2172  loan_amount */\n      dup6\n        /* \"contracts/Loanify_New.sol\":2161:2192  loan_amount <= contract_balance */\n      gt\n      iszero\n        /* \"contracts/Loanify_New.sol\":2153:2232  require(loan_amount <= contract_balance , \"You cannot request for this amount\") */\n      tag_70\n      jumpi\n      mload(0x40)\n      0x08c379a000000000000000000000000000000000000000000000000000000000\n      dup2\n      mstore\n      0x04\n      add\n      tag_71\n      swap1\n      tag_72\n      jump\t// in\n    tag_71:\n      mload(0x40)\n      dup1\n      swap2\n      sub\n      swap1\n      revert\n    tag_70:\n        /* \"contracts/Loanify_New.sol\":2247:2263  uint256 interest */\n      0x00\n        /* \"contracts/Loanify_New.sol\":2302:2306  1200 */\n      0x04b0\n        /* \"contracts/Loanify_New.sol\":2297:2298  5 */\n      0x05\n        /* \"contracts/Loanify_New.sol\":2281:2294  loan_duration */\n      dup7\n        /* \"contracts/Loanify_New.sol\":2267:2278  loan_amount */\n      dup9\n        /* \"contracts/Loanify_New.sol\":2267:2294  loan_amount * loan_duration */\n      tag_73\n      swap2\n      swap1\n      tag_74\n      jump\t// in\n    tag_73:\n        /* \"contracts/Loanify_New.sol\":2267:2298  loan_amount * loan_duration * 5 */\n      tag_75\n      swap2\n      swap1\n      tag_74\n      jump\t// in\n    tag_75:\n        /* \"contracts/Loanify_New.sol\":2266:2306  (loan_amount * loan_duration * 5) / 1200 */\n      tag_76\n      swap2\n      swap1\n      tag_77\n      jump\t// in\n    tag_76:\n        /* \"contracts/Loanify_New.sol\":2247:2306  uint256 interest = (loan_amount * loan_duration * 5) / 1200 */\n      swap1\n      pop\n        /* \"contracts/Loanify_New.sol\":2320:2339  uint256 repaymentpm */\n      0x00\n        /* \"contracts/Loanify_New.sol\":2366:2379  loan_duration */\n      dup6\n        /* \"contracts/Loanify_New.sol\":2356:2364  interest */\n      dup3\n        /* \"contracts/Loanify_New.sol\":2356:2379  interest/ loan_duration */\n      tag_78\n      swap2\n      swap1\n      tag_77\n      jump\t// in\n    tag_78:\n        /* \"contracts/Loanify_New.sol\":2342:2353  loan_amount */\n      dup8\n        /* \"contracts/Loanify_New.sol\":2342:2379  loan_amount + interest/ loan_duration */\n      tag_79\n      swap2\n      swap1\n      tag_80\n      jump\t// in\n    tag_79:\n        /* \"contracts/Loanify_New.sol\":2320:2379  uint256 repaymentpm = loan_amount + interest/ loan_duration */\n      swap1\n      pop\n        /* \"contracts/Loanify_New.sol\":2413:2424  repaymentpm */\n      dup1\n        /* \"contracts/Loanify_New.sol\":2409:2410  5 */\n      0x05\n        /* \"contracts/Loanify_New.sol\":2409:2424  5 * repaymentpm */\n      tag_81\n      swap2\n      swap1\n      tag_74\n      jump\t// in\n    tag_81:\n        /* \"contracts/Loanify_New.sol\":2402:2405  net */\n      dup4\n        /* \"contracts/Loanify_New.sol\":2402:2424  net >= 5 * repaymentpm */\n      lt\n      iszero\n        /* \"contracts/Loanify_New.sol\":2394:2514  require(net >= 5 * repaymentpm , \"You're net income is too low for this loan amount. Try reducing it your loan request\") */\n      tag_82\n      jumpi\n      mload(0x40)\n      0x08c379a000000000000000000000000000000000000000000000000000000000\n      dup2\n      mstore\n      0x04\n      add\n      tag_83\n      swap1\n      tag_84\n      jump\t// in\n    tag_83:\n      mload(0x40)\n      dup1\n      swap2\n      sub\n      swap1\n      revert\n    tag_82:\n        /* \"contracts/Loanify_New.sol\":2541:2563  sendFunds(loan_amount) */\n      tag_85\n        /* \"contracts/Loanify_New.sol\":2551:2562  loan_amount */\n      dup8\n        /* \"contracts/Loanify_New.sol\":2541:2550  sendFunds */\n      tag_43\n        /* \"contracts/Loanify_New.sol\":2541:2563  sendFunds(loan_amount) */\n      jump\t// in\n    tag_85:\n        /* \"contracts/Loanify_New.sol\":1987:2571  {... */\n      pop\n      pop\n      pop\n      pop\n        /* \"contracts/Loanify_New.sol\":1880:2571  function requestLoan(address _customer, uint256 loan_amount, uint256 loan_duration) public returns(uint256){... */\n      swap4\n      swap3\n      pop\n      pop\n      pop\n      jump\t// out\n        /* \"contracts/Loanify_New.sol\":778:1476  function addCustomer(address _customer, uint256 _creditScore, uint256 _netIncome, uint256 _customer_balance) public {... */\n    tag_40:\n        /* \"contracts/Loanify_New.sol\":988:1000  _creditScore */\n      dup3\n        /* \"contracts/Loanify_New.sol\":963:974  creditScore */\n      0x01\n        /* \"contracts/Loanify_New.sol\":963:985  creditScore[_customer] */\n      0x00\n        /* \"contracts/Loanify_New.sol\":975:984  _customer */\n      dup7\n        /* \"contracts/Loanify_New.sol\":963:985  creditScore[_customer] */\n      0xffffffffffffffffffffffffffffffffffffffff\n      and\n      0xffffffffffffffffffffffffffffffffffffffff\n      and\n      dup2\n      mstore\n      0x20\n      add\n      swap1\n      dup2\n      mstore\n      0x20\n      add\n      0x00\n      keccak256\n        /* \"contracts/Loanify_New.sol\":963:1000  creditScore[_customer] = _creditScore */\n      dup2\n      swap1\n      sstore\n      pop\n        /* \"contracts/Loanify_New.sol\":1044:1054  _netIncome */\n      dup2\n        /* \"contracts/Loanify_New.sol\":1010:1030  customer_netIncomepm */\n      0x02\n        /* \"contracts/Loanify_New.sol\":1010:1041  customer_netIncomepm[_customer] */\n      0x00\n        /* \"contracts/Loanify_New.sol\":1031:1040  _customer */\n      dup7\n        /* \"contracts/Loanify_New.sol\":1010:1041  customer_netIncomepm[_customer] */\n      0xffffffffffffffffffffffffffffffffffffffff\n      and\n      0xffffffffffffffffffffffffffffffffffffffff\n      and\n      dup2\n      mstore\n      0x20\n      add\n      swap1\n      dup2\n      mstore\n      0x20\n      add\n      0x00\n      keccak256\n        /* \"contracts/Loanify_New.sol\":1010:1054  customer_netIncomepm[_customer] = _netIncome */\n      dup2\n      swap1\n      sstore\n      pop\n        /* \"contracts/Loanify_New.sol\":1094:1111  _customer_balance */\n      dup1\n        /* \"contracts/Loanify_New.sol\":1064:1080  customer_balance */\n      0x03\n        /* \"contracts/Loanify_New.sol\":1064:1091  customer_balance[_customer] */\n      0x00\n        /* \"contracts/Loanify_New.sol\":1081:1090  _customer */\n      dup7\n        /* \"contracts/Loanify_New.sol\":1064:1091  customer_balance[_customer] */\n      0xffffffffffffffffffffffffffffffffffffffff\n      and\n      0xffffffffffffffffffffffffffffffffffffffff\n      and\n      dup2\n      mstore\n      0x20\n      add\n      swap1\n      dup2\n      mstore\n      0x20\n      add\n      0x00\n      keccak256\n        /* \"contracts/Loanify_New.sol\":1064:1111  customer_balance[_customer] = _customer_balance */\n      dup2\n      swap1\n      sstore\n      pop\n        /* \"contracts/Loanify_New.sol\":1191:1224  CustomerSchema memory newCustomer */\n      0x00\n        /* \"contracts/Loanify_New.sol\":1227:1427  CustomerSchema({... */\n      mload(0x40)\n      dup1\n      0x80\n      add\n      0x40\n      mstore\n      dup1\n        /* \"contracts/Loanify_New.sol\":1273:1282  _customer */\n      dup7\n        /* \"contracts/Loanify_New.sol\":1227:1427  CustomerSchema({... */\n      0xffffffffffffffffffffffffffffffffffffffff\n      and\n      dup2\n      mstore\n      0x20\n      add\n        /* \"contracts/Loanify_New.sol\":1309:1321  _creditScore */\n      dup6\n        /* \"contracts/Loanify_New.sol\":1227:1427  CustomerSchema({... */\n      dup2\n      mstore\n      0x20\n      add\n        /* \"contracts/Loanify_New.sol\":1406:1416  _netIncome */\n      dup5\n        /* \"contracts/Loanify_New.sol\":1227:1427  CustomerSchema({... */\n      dup2\n      mstore\n      0x20\n      add\n        /* \"contracts/Loanify_New.sol\":1353:1370  _customer_balance */\n      dup4\n        /* \"contracts/Loanify_New.sol\":1227:1427  CustomerSchema({... */\n      dup2\n      mstore\n      pop\n        /* \"contracts/Loanify_New.sol\":1191:1427  CustomerSchema memory newCustomer = CustomerSchema({... */\n      swap1\n      pop\n        /* \"contracts/Loanify_New.sol\":1438:1451  customerArray */\n      0x05\n        /* \"contracts/Loanify_New.sol\":1457:1468  newCustomer */\n      dup2\n        /* \"contracts/Loanify_New.sol\":1438:1469  customerArray.push(newCustomer) */\n      swap1\n      dup1\n      0x01\n      dup2\n      sload\n      add\n      dup1\n      dup3\n      sstore\n      dup1\n      swap2\n      pop\n      pop\n      0x01\n      swap1\n      sub\n      swap1\n      0x00\n      mstore\n      keccak256(0x00, 0x20)\n      swap1\n      0x04\n      mul\n      add\n      0x00\n      swap1\n      swap2\n      swap1\n      swap2\n      swap1\n      swap2\n      pop\n      0x00\n      dup3\n      add\n      mload\n      dup2\n      0x00\n      add\n      exp(0x0100, 0x00)\n      dup2\n      sload\n      dup2\n      0xffffffffffffffffffffffffffffffffffffffff\n      mul\n      not\n      and\n      swap1\n      dup4\n      0xffffffffffffffffffffffffffffffffffffffff\n      and\n      mul\n      or\n      swap1\n      sstore\n      pop\n      0x20\n      dup3\n      add\n      mload\n      dup2\n      0x01\n      add\n      sstore\n      0x40\n      dup3\n      add\n      mload\n      dup2\n      0x02\n      add\n      sstore\n      0x60\n      dup3\n      add\n      mload\n      dup2\n      0x03\n      add\n      sstore\n      pop\n      pop\n        /* \"contracts/Loanify_New.sol\":894:1476  {... */\n      pop\n        /* \"contracts/Loanify_New.sol\":778:1476  function addCustomer(address _customer, uint256 _creditScore, uint256 _netIncome, uint256 _customer_balance) public {... */\n      pop\n      pop\n      pop\n      pop\n      jump\t// out\n        /* \"contracts/Loanify_New.sol\":2577:2886  function sendFunds(uint256 _loan_amount) public payable{... */\n    tag_43:\n        /* \"contracts/Loanify_New.sol\":2674:2686  _loan_amount */\n      dup1\n        /* \"contracts/Loanify_New.sol\":2643:2659  customer_balance */\n      0x03\n        /* \"contracts/Loanify_New.sol\":2643:2671  customer_balance[msg.sender] */\n      0x00\n        /* \"contracts/Loanify_New.sol\":2660:2670  msg.sender */\n      caller\n        /* \"contracts/Loanify_New.sol\":2643:2671  customer_balance[msg.sender] */\n      0xffffffffffffffffffffffffffffffffffffffff\n      and\n      0xffffffffffffffffffffffffffffffffffffffff\n      and\n      dup2\n      mstore\n      0x20\n      add\n      swap1\n      dup2\n      mstore\n      0x20\n      add\n      0x00\n      keccak256\n      0x00\n        /* \"contracts/Loanify_New.sol\":2643:2686  customer_balance[msg.sender]+= _loan_amount */\n      dup3\n      dup3\n      sload\n      tag_89\n      swap2\n      swap1\n      tag_80\n      jump\t// in\n    tag_89:\n      swap3\n      pop\n      pop\n      dup2\n      swap1\n      sstore\n      pop\n        /* \"contracts/Loanify_New.sol\":2714:2726  _loan_amount */\n      dup1\n        /* \"contracts/Loanify_New.sol\":2696:2712  contract_balance */\n      0x04\n      0x00\n        /* \"contracts/Loanify_New.sol\":2696:2726  contract_balance-=_loan_amount */\n      dup3\n      dup3\n      sload\n      tag_90\n      swap2\n      swap1\n      tag_91\n      jump\t// in\n    tag_90:\n      swap3\n      pop\n      pop\n      dup2\n      swap1\n      sstore\n      pop\n        /* \"contracts/Loanify_New.sol\":2736:2755  uint256 new_balance */\n      0x00\n        /* \"contracts/Loanify_New.sol\":2777:2789  _loan_amount */\n      dup2\n        /* \"contracts/Loanify_New.sol\":2758:2774  contract_balance */\n      sload(0x04)\n        /* \"contracts/Loanify_New.sol\":2758:2789  contract_balance - _loan_amount */\n      tag_92\n      swap2\n      swap1\n      tag_91\n      jump\t// in\n    tag_92:\n        /* \"contracts/Loanify_New.sol\":2736:2789  uint256 new_balance = contract_balance - _loan_amount */\n      swap1\n      pop\n        /* \"contracts/Loanify_New.sol\":2843:2854  new_balance */\n      dup1\n        /* \"contracts/Loanify_New.sol\":2827:2839  _loan_amount */\n      dup3\n        /* \"contracts/Loanify_New.sol\":2808:2824  contract_balance */\n      sload(0x04)\n        /* \"contracts/Loanify_New.sol\":2808:2839  contract_balance - _loan_amount */\n      tag_93\n      swap2\n      swap1\n      tag_91\n      jump\t// in\n    tag_93:\n        /* \"contracts/Loanify_New.sol\":2808:2854  contract_balance - _loan_amount == new_balance */\n      eq\n        /* \"contracts/Loanify_New.sol\":2800:2878  require(contract_balance - _loan_amount == new_balance, \"Error sending funds\") */\n      tag_94\n      jumpi\n      mload(0x40)\n      0x08c379a000000000000000000000000000000000000000000000000000000000\n      dup2\n      mstore\n      0x04\n      add\n      tag_95\n      swap1\n      tag_96\n      jump\t// in\n    tag_95:\n      mload(0x40)\n      dup1\n      swap2\n      sub\n      swap1\n      revert\n    tag_94:\n        /* \"contracts/Loanify_New.sol\":2632:2886  {... */\n      pop\n        /* \"contracts/Loanify_New.sol\":2577:2886  function sendFunds(uint256 _loan_amount) public payable{... */\n      pop\n      jump\t// out\n        /* \"contracts/Loanify_New.sol\":220:271  mapping(address => uint256) public customer_balance */\n    tag_47:\n      mstore(0x20, 0x03)\n      dup1\n      0x00\n      mstore\n      keccak256(0x00, 0x40)\n      0x00\n      swap2\n      pop\n      swap1\n      pop\n      sload\n      dup2\n      jump\t// out\n        /* \"contracts/Loanify_New.sol\":1674:1874  function getNetIncome() public view returns (uint256) {... */\n    tag_51:\n        /* \"contracts/Loanify_New.sol\":1719:1726  uint256 */\n      0x00\n        /* \"contracts/Loanify_New.sol\":1783:1784  0 */\n      dup1\n        /* \"contracts/Loanify_New.sol\":1747:1767  customer_netIncomepm */\n      0x02\n        /* \"contracts/Loanify_New.sol\":1747:1779  customer_netIncomepm[msg.sender] */\n      0x00\n        /* \"contracts/Loanify_New.sol\":1768:1778  msg.sender */\n      caller\n        /* \"contracts/Loanify_New.sol\":1747:1779  customer_netIncomepm[msg.sender] */\n      0xffffffffffffffffffffffffffffffffffffffff\n      and\n      0xffffffffffffffffffffffffffffffffffffffff\n      and\n      dup2\n      mstore\n      0x20\n      add\n      swap1\n      dup2\n      mstore\n      0x20\n      add\n      0x00\n      keccak256\n      sload\n        /* \"contracts/Loanify_New.sol\":1747:1784  customer_netIncomepm[msg.sender] != 0 */\n      sub\n        /* \"contracts/Loanify_New.sol\":1739:1817  require(customer_netIncomepm[msg.sender] != 0,\"Error getting your net income\") */\n      tag_98\n      jumpi\n      mload(0x40)\n      0x08c379a000000000000000000000000000000000000000000000000000000000\n      dup2\n      mstore\n      0x04\n      add\n      tag_99\n      swap1\n      tag_100\n      jump\t// in\n    tag_99:\n      mload(0x40)\n      dup1\n      swap2\n      sub\n      swap1\n      revert\n    tag_98:\n        /* \"contracts/Loanify_New.sol\":1834:1854  customer_netIncomepm */\n      0x02\n        /* \"contracts/Loanify_New.sol\":1834:1866  customer_netIncomepm[msg.sender] */\n      0x00\n        /* \"contracts/Loanify_New.sol\":1855:1865  msg.sender */\n      caller\n        /* \"contracts/Loanify_New.sol\":1834:1866  customer_netIncomepm[msg.sender] */\n      0xffffffffffffffffffffffffffffffffffffffff\n      and\n      0xffffffffffffffffffffffffffffffffffffffff\n      and\n      dup2\n      mstore\n      0x20\n      add\n      swap1\n      dup2\n      mstore\n      0x20\n      add\n      0x00\n      keccak256\n      sload\n        /* \"contracts/Loanify_New.sol\":1827:1866  return customer_netIncomepm[msg.sender] */\n      swap1\n      pop\n        /* \"contracts/Loanify_New.sol\":1674:1874  function getNetIncome() public view returns (uint256) {... */\n      swap1\n      jump\t// out\n        /* \"contracts/Loanify_New.sol\":107:153  mapping(address => uint256) public creditScore */\n    tag_56:\n      mstore(0x20, 0x01)\n      dup1\n      0x00\n      mstore\n      keccak256(0x00, 0x40)\n      0x00\n      swap2\n      pop\n      swap1\n      pop\n      sload\n      dup2\n      jump\t// out\n        /* \"#utility.yul\":88:205   */\n    tag_102:\n        /* \"#utility.yul\":197:198   */\n      0x00\n        /* \"#utility.yul\":194:195   */\n      dup1\n        /* \"#utility.yul\":187:199   */\n      revert\n        /* \"#utility.yul\":334:460   */\n    tag_104:\n        /* \"#utility.yul\":371:378   */\n      0x00\n        /* \"#utility.yul\":411:453   */\n      0xffffffffffffffffffffffffffffffffffffffff\n        /* \"#utility.yul\":404:409   */\n      dup3\n        /* \"#utility.yul\":400:454   */\n      and\n        /* \"#utility.yul\":389:454   */\n      swap1\n      pop\n        /* \"#utility.yul\":334:460   */\n      swap2\n      swap1\n      pop\n      jump\t// out\n        /* \"#utility.yul\":466:562   */\n    tag_105:\n        /* \"#utility.yul\":503:510   */\n      0x00\n        /* \"#utility.yul\":532:556   */\n      tag_134\n        /* \"#utility.yul\":550:555   */\n      dup3\n        /* \"#utility.yul\":532:556   */\n      tag_104\n      jump\t// in\n    tag_134:\n        /* \"#utility.yul\":521:556   */\n      swap1\n      pop\n        /* \"#utility.yul\":466:562   */\n      swap2\n      swap1\n      pop\n      jump\t// out\n        /* \"#utility.yul\":568:690   */\n    tag_106:\n        /* \"#utility.yul\":641:665   */\n      tag_136\n        /* \"#utility.yul\":659:664   */\n      dup2\n        /* \"#utility.yul\":641:665   */\n      tag_105\n      jump\t// in\n    tag_136:\n        /* \"#utility.yul\":634:639   */\n      dup2\n        /* \"#utility.yul\":631:666   */\n      eq\n        /* \"#utility.yul\":621:684   */\n      tag_137\n      jumpi\n        /* \"#utility.yul\":680:681   */\n      0x00\n        /* \"#utility.yul\":677:678   */\n      dup1\n        /* \"#utility.yul\":670:682   */\n      revert\n        /* \"#utility.yul\":621:684   */\n    tag_137:\n        /* \"#utility.yul\":568:690   */\n      pop\n      jump\t// out\n        /* \"#utility.yul\":696:835   */\n    tag_107:\n        /* \"#utility.yul\":742:747   */\n      0x00\n        /* \"#utility.yul\":780:786   */\n      dup2\n        /* \"#utility.yul\":767:787   */\n      calldataload\n        /* \"#utility.yul\":758:787   */\n      swap1\n      pop\n        /* \"#utility.yul\":796:829   */\n      tag_139\n        /* \"#utility.yul\":823:828   */\n      dup2\n        /* \"#utility.yul\":796:829   */\n      tag_106\n      jump\t// in\n    tag_139:\n        /* \"#utility.yul\":696:835   */\n      swap3\n      swap2\n      pop\n      pop\n      jump\t// out\n        /* \"#utility.yul\":841:1170   */\n    tag_15:\n        /* \"#utility.yul\":900:906   */\n      0x00\n        /* \"#utility.yul\":949:951   */\n      0x20\n        /* \"#utility.yul\":937:946   */\n      dup3\n        /* \"#utility.yul\":928:935   */\n      dup5\n        /* \"#utility.yul\":924:947   */\n      sub\n        /* \"#utility.yul\":920:952   */\n      slt\n        /* \"#utility.yul\":917:1036   */\n      iszero\n      tag_141\n      jumpi\n        /* \"#utility.yul\":955:1034   */\n      tag_142\n      tag_102\n      jump\t// in\n    tag_142:\n        /* \"#utility.yul\":917:1036   */\n    tag_141:\n        /* \"#utility.yul\":1075:1076   */\n      0x00\n        /* \"#utility.yul\":1100:1153   */\n      tag_143\n        /* \"#utility.yul\":1145:1152   */\n      dup5\n        /* \"#utility.yul\":1136:1142   */\n      dup3\n        /* \"#utility.yul\":1125:1134   */\n      dup6\n        /* \"#utility.yul\":1121:1143   */\n      add\n        /* \"#utility.yul\":1100:1153   */\n      tag_107\n      jump\t// in\n    tag_143:\n        /* \"#utility.yul\":1090:1153   */\n      swap2\n      pop\n        /* \"#utility.yul\":1046:1163   */\n      pop\n        /* \"#utility.yul\":841:1170   */\n      swap3\n      swap2\n      pop\n      pop\n      jump\t// out\n        /* \"#utility.yul\":1176:1253   */\n    tag_108:\n        /* \"#utility.yul\":1213:1220   */\n      0x00\n        /* \"#utility.yul\":1242:1247   */\n      dup2\n        /* \"#utility.yul\":1231:1247   */\n      swap1\n      pop\n        /* \"#utility.yul\":1176:1253   */\n      swap2\n      swap1\n      pop\n      jump\t// out\n        /* \"#utility.yul\":1259:1377   */\n    tag_109:\n        /* \"#utility.yul\":1346:1370   */\n      tag_146\n        /* \"#utility.yul\":1364:1369   */\n      dup2\n        /* \"#utility.yul\":1346:1370   */\n      tag_108\n      jump\t// in\n    tag_146:\n        /* \"#utility.yul\":1341:1344   */\n      dup3\n        /* \"#utility.yul\":1334:1371   */\n      mstore\n        /* \"#utility.yul\":1259:1377   */\n      pop\n      pop\n      jump\t// out\n        /* \"#utility.yul\":1383:1605   */\n    tag_18:\n        /* \"#utility.yul\":1476:1480   */\n      0x00\n        /* \"#utility.yul\":1514:1516   */\n      0x20\n        /* \"#utility.yul\":1503:1512   */\n      dup3\n        /* \"#utility.yul\":1499:1517   */\n      add\n        /* \"#utility.yul\":1491:1517   */\n      swap1\n      pop\n        /* \"#utility.yul\":1527:1598   */\n      tag_148\n        /* \"#utility.yul\":1595:1596   */\n      0x00\n        /* \"#utility.yul\":1584:1593   */\n      dup4\n        /* \"#utility.yul\":1580:1597   */\n      add\n        /* \"#utility.yul\":1571:1577   */\n      dup5\n        /* \"#utility.yul\":1527:1598   */\n      tag_109\n      jump\t// in\n    tag_148:\n        /* \"#utility.yul\":1383:1605   */\n      swap3\n      swap2\n      pop\n      pop\n      jump\t// out\n        /* \"#utility.yul\":1611:1733   */\n    tag_110:\n        /* \"#utility.yul\":1684:1708   */\n      tag_150\n        /* \"#utility.yul\":1702:1707   */\n      dup2\n        /* \"#utility.yul\":1684:1708   */\n      tag_108\n      jump\t// in\n    tag_150:\n        /* \"#utility.yul\":1677:1682   */\n      dup2\n        /* \"#utility.yul\":1674:1709   */\n      eq\n        /* \"#utility.yul\":1664:1727   */\n      tag_151\n      jumpi\n        /* \"#utility.yul\":1723:1724   */\n      0x00\n        /* \"#utility.yul\":1720:1721   */\n      dup1\n        /* \"#utility.yul\":1713:1725   */\n      revert\n        /* \"#utility.yul\":1664:1727   */\n    tag_151:\n        /* \"#utility.yul\":1611:1733   */\n      pop\n      jump\t// out\n        /* \"#utility.yul\":1739:1878   */\n    tag_111:\n        /* \"#utility.yul\":1785:1790   */\n      0x00\n        /* \"#utility.yul\":1823:1829   */\n      dup2\n        /* \"#utility.yul\":1810:1830   */\n      calldataload\n        /* \"#utility.yul\":1801:1830   */\n      swap1\n      pop\n        /* \"#utility.yul\":1839:1872   */\n      tag_153\n        /* \"#utility.yul\":1866:1871   */\n      dup2\n        /* \"#utility.yul\":1839:1872   */\n      tag_110\n      jump\t// in\n    tag_153:\n        /* \"#utility.yul\":1739:1878   */\n      swap3\n      swap2\n      pop\n      pop\n      jump\t// out\n        /* \"#utility.yul\":1884:2213   */\n    tag_22:\n        /* \"#utility.yul\":1943:1949   */\n      0x00\n        /* \"#utility.yul\":1992:1994   */\n      0x20\n        /* \"#utility.yul\":1980:1989   */\n      dup3\n        /* \"#utility.yul\":1971:1978   */\n      dup5\n        /* \"#utility.yul\":1967:1990   */\n      sub\n        /* \"#utility.yul\":1963:1995   */\n      slt\n        /* \"#utility.yul\":1960:2079   */\n      iszero\n      tag_155\n      jumpi\n        /* \"#utility.yul\":1998:2077   */\n      tag_156\n      tag_102\n      jump\t// in\n    tag_156:\n        /* \"#utility.yul\":1960:2079   */\n    tag_155:\n        /* \"#utility.yul\":2118:2119   */\n      0x00\n        /* \"#utility.yul\":2143:2196   */\n      tag_157\n        /* \"#utility.yul\":2188:2195   */\n      dup5\n        /* \"#utility.yul\":2179:2185   */\n      dup3\n        /* \"#utility.yul\":2168:2177   */\n      dup6\n        /* \"#utility.yul\":2164:2186   */\n      add\n        /* \"#utility.yul\":2143:2196   */\n      tag_111\n      jump\t// in\n    tag_157:\n        /* \"#utility.yul\":2133:2196   */\n      swap2\n      pop\n        /* \"#utility.yul\":2089:2206   */\n      pop\n        /* \"#utility.yul\":1884:2213   */\n      swap3\n      swap2\n      pop\n      pop\n      jump\t// out\n        /* \"#utility.yul\":2219:2337   */\n    tag_112:\n        /* \"#utility.yul\":2306:2330   */\n      tag_159\n        /* \"#utility.yul\":2324:2329   */\n      dup2\n        /* \"#utility.yul\":2306:2330   */\n      tag_105\n      jump\t// in\n    tag_159:\n        /* \"#utility.yul\":2301:2304   */\n      dup3\n        /* \"#utility.yul\":2294:2331   */\n      mstore\n        /* \"#utility.yul\":2219:2337   */\n      pop\n      pop\n      jump\t// out\n        /* \"#utility.yul\":2343:2896   */\n    tag_25:\n        /* \"#utility.yul\":2520:2524   */\n      0x00\n        /* \"#utility.yul\":2558:2561   */\n      0x80\n        /* \"#utility.yul\":2547:2556   */\n      dup3\n        /* \"#utility.yul\":2543:2562   */\n      add\n        /* \"#utility.yul\":2535:2562   */\n      swap1\n      pop\n        /* \"#utility.yul\":2572:2643   */\n      tag_161\n        /* \"#utility.yul\":2640:2641   */\n      0x00\n        /* \"#utility.yul\":2629:2638   */\n      dup4\n        /* \"#utility.yul\":2625:2642   */\n      add\n        /* \"#utility.yul\":2616:2622   */\n      dup8\n        /* \"#utility.yul\":2572:2643   */\n      tag_112\n      jump\t// in\n    tag_161:\n        /* \"#utility.yul\":2653:2725   */\n      tag_162\n        /* \"#utility.yul\":2721:2723   */\n      0x20\n        /* \"#utility.yul\":2710:2719   */\n      dup4\n        /* \"#utility.yul\":2706:2724   */\n      add\n        /* \"#utility.yul\":2697:2703   */\n      dup7\n        /* \"#utility.yul\":2653:2725   */\n      tag_109\n      jump\t// in\n    tag_162:\n        /* \"#utility.yul\":2735:2807   */\n      tag_163\n        /* \"#utility.yul\":2803:2805   */\n      0x40\n        /* \"#utility.yul\":2792:2801   */\n      dup4\n        /* \"#utility.yul\":2788:2806   */\n      add\n        /* \"#utility.yul\":2779:2785   */\n      dup6\n        /* \"#utility.yul\":2735:2807   */\n      tag_109\n      jump\t// in\n    tag_163:\n        /* \"#utility.yul\":2817:2889   */\n      tag_164\n        /* \"#utility.yul\":2885:2887   */\n      0x60\n        /* \"#utility.yul\":2874:2883   */\n      dup4\n        /* \"#utility.yul\":2870:2888   */\n      add\n        /* \"#utility.yul\":2861:2867   */\n      dup5\n        /* \"#utility.yul\":2817:2889   */\n      tag_109\n      jump\t// in\n    tag_164:\n        /* \"#utility.yul\":2343:2896   */\n      swap6\n      swap5\n      pop\n      pop\n      pop\n      pop\n      pop\n      jump\t// out\n        /* \"#utility.yul\":2902:3521   */\n    tag_33:\n        /* \"#utility.yul\":2979:2985   */\n      0x00\n        /* \"#utility.yul\":2987:2993   */\n      dup1\n        /* \"#utility.yul\":2995:3001   */\n      0x00\n        /* \"#utility.yul\":3044:3046   */\n      0x60\n        /* \"#utility.yul\":3032:3041   */\n      dup5\n        /* \"#utility.yul\":3023:3030   */\n      dup7\n        /* \"#utility.yul\":3019:3042   */\n      sub\n        /* \"#utility.yul\":3015:3047   */\n      slt\n        /* \"#utility.yul\":3012:3131   */\n      iszero\n      tag_166\n      jumpi\n        /* \"#utility.yul\":3050:3129   */\n      tag_167\n      tag_102\n      jump\t// in\n    tag_167:\n        /* \"#utility.yul\":3012:3131   */\n    tag_166:\n        /* \"#utility.yul\":3170:3171   */\n      0x00\n        /* \"#utility.yul\":3195:3248   */\n      tag_168\n        /* \"#utility.yul\":3240:3247   */\n      dup7\n        /* \"#utility.yul\":3231:3237   */\n      dup3\n        /* \"#utility.yul\":3220:3229   */\n      dup8\n        /* \"#utility.yul\":3216:3238   */\n      add\n        /* \"#utility.yul\":3195:3248   */\n      tag_107\n      jump\t// in\n    tag_168:\n        /* \"#utility.yul\":3185:3248   */\n      swap4\n      pop\n        /* \"#utility.yul\":3141:3258   */\n      pop\n        /* \"#utility.yul\":3297:3299   */\n      0x20\n        /* \"#utility.yul\":3323:3376   */\n      tag_169\n        /* \"#utility.yul\":3368:3375   */\n      dup7\n        /* \"#utility.yul\":3359:3365   */\n      dup3\n        /* \"#utility.yul\":3348:3357   */\n      dup8\n        /* \"#utility.yul\":3344:3366   */\n      add\n        /* \"#utility.yul\":3323:3376   */\n      tag_111\n      jump\t// in\n    tag_169:\n        /* \"#utility.yul\":3313:3376   */\n      swap3\n      pop\n        /* \"#utility.yul\":3268:3386   */\n      pop\n        /* \"#utility.yul\":3425:3427   */\n      0x40\n        /* \"#utility.yul\":3451:3504   */\n      tag_170\n        /* \"#utility.yul\":3496:3503   */\n      dup7\n        /* \"#utility.yul\":3487:3493   */\n      dup3\n        /* \"#utility.yul\":3476:3485   */\n      dup8\n        /* \"#utility.yul\":3472:3494   */\n      add\n        /* \"#utility.yul\":3451:3504   */\n      tag_111\n      jump\t// in\n    tag_170:\n        /* \"#utility.yul\":3441:3504   */\n      swap2\n      pop\n        /* \"#utility.yul\":3396:3514   */\n      pop\n        /* \"#utility.yul\":2902:3521   */\n      swap3\n      pop\n      swap3\n      pop\n      swap3\n      jump\t// out\n        /* \"#utility.yul\":3527:4292   */\n    tag_39:\n        /* \"#utility.yul\":3613:3619   */\n      0x00\n        /* \"#utility.yul\":3621:3627   */\n      dup1\n        /* \"#utility.yul\":3629:3635   */\n      0x00\n        /* \"#utility.yul\":3637:3643   */\n      dup1\n        /* \"#utility.yul\":3686:3689   */\n      0x80\n        /* \"#utility.yul\":3674:3683   */\n      dup6\n        /* \"#utility.yul\":3665:3672   */\n      dup8\n        /* \"#utility.yul\":3661:3684   */\n      sub\n        /* \"#utility.yul\":3657:3690   */\n      slt\n        /* \"#utility.yul\":3654:3774   */\n      iszero\n      tag_172\n      jumpi\n        /* \"#utility.yul\":3693:3772   */\n      tag_173\n      tag_102\n      jump\t// in\n    tag_173:\n        /* \"#utility.yul\":3654:3774   */\n    tag_172:\n        /* \"#utility.yul\":3813:3814   */\n      0x00\n        /* \"#utility.yul\":3838:3891   */\n      tag_174\n        /* \"#utility.yul\":3883:3890   */\n      dup8\n        /* \"#utility.yul\":3874:3880   */\n      dup3\n        /* \"#utility.yul\":3863:3872   */\n      dup9\n        /* \"#utility.yul\":3859:3881   */\n      add\n        /* \"#utility.yul\":3838:3891   */\n      tag_107\n      jump\t// in\n    tag_174:\n        /* \"#utility.yul\":3828:3891   */\n      swap5\n      pop\n        /* \"#utility.yul\":3784:3901   */\n      pop\n        /* \"#utility.yul\":3940:3942   */\n      0x20\n        /* \"#utility.yul\":3966:4019   */\n      tag_175\n        /* \"#utility.yul\":4011:4018   */\n      dup8\n        /* \"#utility.yul\":4002:4008   */\n      dup3\n        /* \"#utility.yul\":3991:4000   */\n      dup9\n        /* \"#utility.yul\":3987:4009   */\n      add\n        /* \"#utility.yul\":3966:4019   */\n      tag_111\n      jump\t// in\n    tag_175:\n        /* \"#utility.yul\":3956:4019   */\n      swap4\n      pop\n        /* \"#utility.yul\":3911:4029   */\n      pop\n        /* \"#utility.yul\":4068:4070   */\n      0x40\n        /* \"#utility.yul\":4094:4147   */\n      tag_176\n        /* \"#utility.yul\":4139:4146   */\n      dup8\n        /* \"#utility.yul\":4130:4136   */\n      dup3\n        /* \"#utility.yul\":4119:4128   */\n      dup9\n        /* \"#utility.yul\":4115:4137   */\n      add\n        /* \"#utility.yul\":4094:4147   */\n      tag_111\n      jump\t// in\n    tag_176:\n        /* \"#utility.yul\":4084:4147   */\n      swap3\n      pop\n        /* \"#utility.yul\":4039:4157   */\n      pop\n        /* \"#utility.yul\":4196:4198   */\n      0x60\n        /* \"#utility.yul\":4222:4275   */\n      tag_177\n        /* \"#utility.yul\":4267:4274   */\n      dup8\n        /* \"#utility.yul\":4258:4264   */\n      dup3\n        /* \"#utility.yul\":4247:4256   */\n      dup9\n        /* \"#utility.yul\":4243:4265   */\n      add\n        /* \"#utility.yul\":4222:4275   */\n      tag_111\n      jump\t// in\n    tag_177:\n        /* \"#utility.yul\":4212:4275   */\n      swap2\n      pop\n        /* \"#utility.yul\":4167:4285   */\n      pop\n        /* \"#utility.yul\":3527:4292   */\n      swap3\n      swap6\n      swap2\n      swap5\n      pop\n      swap3\n      pop\n      jump\t// out\n        /* \"#utility.yul\":4298:4467   */\n    tag_113:\n        /* \"#utility.yul\":4382:4393   */\n      0x00\n        /* \"#utility.yul\":4416:4422   */\n      dup3\n        /* \"#utility.yul\":4411:4414   */\n      dup3\n        /* \"#utility.yul\":4404:4423   */\n      mstore\n        /* \"#utility.yul\":4456:4460   */\n      0x20\n        /* \"#utility.yul\":4451:4454   */\n      dup3\n        /* \"#utility.yul\":4447:4461   */\n      add\n        /* \"#utility.yul\":4432:4461   */\n      swap1\n      pop\n        /* \"#utility.yul\":4298:4467   */\n      swap3\n      swap2\n      pop\n      pop\n      jump\t// out\n        /* \"#utility.yul\":4473:4654   */\n    tag_114:\n        /* \"#utility.yul\":4613:4646   */\n      0x4572726f722067657474696e6720796f7572206372656469742073636f726500\n        /* \"#utility.yul\":4609:4610   */\n      0x00\n        /* \"#utility.yul\":4601:4607   */\n      dup3\n        /* \"#utility.yul\":4597:4611   */\n      add\n        /* \"#utility.yul\":4590:4647   */\n      mstore\n        /* \"#utility.yul\":4473:4654   */\n      pop\n      jump\t// out\n        /* \"#utility.yul\":4660:5026   */\n    tag_115:\n        /* \"#utility.yul\":4802:4805   */\n      0x00\n        /* \"#utility.yul\":4823:4890   */\n      tag_181\n        /* \"#utility.yul\":4887:4889   */\n      0x1f\n        /* \"#utility.yul\":4882:4885   */\n      dup4\n        /* \"#utility.yul\":4823:4890   */\n      tag_113\n      jump\t// in\n    tag_181:\n        /* \"#utility.yul\":4816:4890   */\n      swap2\n      pop\n        /* \"#utility.yul\":4899:4992   */\n      tag_182\n        /* \"#utility.yul\":4988:4991   */\n      dup3\n        /* \"#utility.yul\":4899:4992   */\n      tag_114\n      jump\t// in\n    tag_182:\n        /* \"#utility.yul\":5017:5019   */\n      0x20\n        /* \"#utility.yul\":5012:5015   */\n      dup3\n        /* \"#utility.yul\":5008:5020   */\n      add\n        /* \"#utility.yul\":5001:5020   */\n      swap1\n      pop\n        /* \"#utility.yul\":4660:5026   */\n      swap2\n      swap1\n      pop\n      jump\t// out\n        /* \"#utility.yul\":5032:5451   */\n    tag_63:\n        /* \"#utility.yul\":5198:5202   */\n      0x00\n        /* \"#utility.yul\":5236:5238   */\n      0x20\n        /* \"#utility.yul\":5225:5234   */\n      dup3\n        /* \"#utility.yul\":5221:5239   */\n      add\n        /* \"#utility.yul\":5213:5239   */\n      swap1\n      pop\n        /* \"#utility.yul\":5285:5294   */\n      dup2\n        /* \"#utility.yul\":5279:5283   */\n      dup2\n        /* \"#utility.yul\":5275:5295   */\n      sub\n        /* \"#utility.yul\":5271:5272   */\n      0x00\n        /* \"#utility.yul\":5260:5269   */\n      dup4\n        /* \"#utility.yul\":5256:5273   */\n      add\n        /* \"#utility.yul\":5249:5296   */\n      mstore\n        /* \"#utility.yul\":5313:5444   */\n      tag_184\n        /* \"#utility.yul\":5439:5443   */\n      dup2\n        /* \"#utility.yul\":5313:5444   */\n      tag_115\n      jump\t// in\n    tag_184:\n        /* \"#utility.yul\":5305:5444   */\n      swap1\n      pop\n        /* \"#utility.yul\":5032:5451   */\n      swap2\n      swap1\n      pop\n      jump\t// out\n        /* \"#utility.yul\":5457:5627   */\n    tag_116:\n        /* \"#utility.yul\":5597:5619   */\n      0x4372656469742073636f726520746f6f206c6f77000000000000000000000000\n        /* \"#utility.yul\":5593:5594   */\n      0x00\n        /* \"#utility.yul\":5585:5591   */\n      dup3\n        /* \"#utility.yul\":5581:5595   */\n      add\n        /* \"#utility.yul\":5574:5620   */\n      mstore\n        /* \"#utility.yul\":5457:5627   */\n      pop\n      jump\t// out\n        /* \"#utility.yul\":5633:5999   */\n    tag_117:\n        /* \"#utility.yul\":5775:5778   */\n      0x00\n        /* \"#utility.yul\":5796:5863   */\n      tag_187\n        /* \"#utility.yul\":5860:5862   */\n      0x14\n        /* \"#utility.yul\":5855:5858   */\n      dup4\n        /* \"#utility.yul\":5796:5863   */\n      tag_113\n      jump\t// in\n    tag_187:\n        /* \"#utility.yul\":5789:5863   */\n      swap2\n      pop\n        /* \"#utility.yul\":5872:5965   */\n      tag_188\n        /* \"#utility.yul\":5961:5964   */\n      dup3\n        /* \"#utility.yul\":5872:5965   */\n      tag_116\n      jump\t// in\n    tag_188:\n        /* \"#utility.yul\":5990:5992   */\n      0x20\n        /* \"#utility.yul\":5985:5988   */\n      dup3\n        /* \"#utility.yul\":5981:5993   */\n      add\n        /* \"#utility.yul\":5974:5993   */\n      swap1\n      pop\n        /* \"#utility.yul\":5633:5999   */\n      swap2\n      swap1\n      pop\n      jump\t// out\n        /* \"#utility.yul\":6005:6424   */\n    tag_69:\n        /* \"#utility.yul\":6171:6175   */\n      0x00\n        /* \"#utility.yul\":6209:6211   */\n      0x20\n        /* \"#utility.yul\":6198:6207   */\n      dup3\n        /* \"#utility.yul\":6194:6212   */\n      add\n        /* \"#utility.yul\":6186:6212   */\n      swap1\n      pop\n        /* \"#utility.yul\":6258:6267   */\n      dup2\n        /* \"#utility.yul\":6252:6256   */\n      dup2\n        /* \"#utility.yul\":6248:6268   */\n      sub\n        /* \"#utility.yul\":6244:6245   */\n      0x00\n        /* \"#utility.yul\":6233:6242   */\n      dup4\n        /* \"#utility.yul\":6229:6246   */\n      add\n        /* \"#utility.yul\":6222:6269   */\n      mstore\n        /* \"#utility.yul\":6286:6417   */\n      tag_190\n        /* \"#utility.yul\":6412:6416   */\n      dup2\n        /* \"#utility.yul\":6286:6417   */\n      tag_117\n      jump\t// in\n    tag_190:\n        /* \"#utility.yul\":6278:6417   */\n      swap1\n      pop\n        /* \"#utility.yul\":6005:6424   */\n      swap2\n      swap1\n      pop\n      jump\t// out\n        /* \"#utility.yul\":6430:6651   */\n    tag_118:\n        /* \"#utility.yul\":6570:6604   */\n      0x596f752063616e6e6f74207265717565737420666f72207468697320616d6f75\n        /* \"#utility.yul\":6566:6567   */\n      0x00\n        /* \"#utility.yul\":6558:6564   */\n      dup3\n        /* \"#utility.yul\":6554:6568   */\n      add\n        /* \"#utility.yul\":6547:6605   */\n      mstore\n        /* \"#utility.yul\":6639:6643   */\n      0x6e74000000000000000000000000000000000000000000000000000000000000\n        /* \"#utility.yul\":6634:6636   */\n      0x20\n        /* \"#utility.yul\":6626:6632   */\n      dup3\n        /* \"#utility.yul\":6622:6637   */\n      add\n        /* \"#utility.yul\":6615:6644   */\n      mstore\n        /* \"#utility.yul\":6430:6651   */\n      pop\n      jump\t// out\n        /* \"#utility.yul\":6657:7023   */\n    tag_119:\n        /* \"#utility.yul\":6799:6802   */\n      0x00\n        /* \"#utility.yul\":6820:6887   */\n      tag_193\n        /* \"#utility.yul\":6884:6886   */\n      0x22\n        /* \"#utility.yul\":6879:6882   */\n      dup4\n        /* \"#utility.yul\":6820:6887   */\n      tag_113\n      jump\t// in\n    tag_193:\n        /* \"#utility.yul\":6813:6887   */\n      swap2\n      pop\n        /* \"#utility.yul\":6896:6989   */\n      tag_194\n        /* \"#utility.yul\":6985:6988   */\n      dup3\n        /* \"#utility.yul\":6896:6989   */\n      tag_118\n      jump\t// in\n    tag_194:\n        /* \"#utility.yul\":7014:7016   */\n      0x40\n        /* \"#utility.yul\":7009:7012   */\n      dup3\n        /* \"#utility.yul\":7005:7017   */\n      add\n        /* \"#utility.yul\":6998:7017   */\n      swap1\n      pop\n        /* \"#utility.yul\":6657:7023   */\n      swap2\n      swap1\n      pop\n      jump\t// out\n        /* \"#utility.yul\":7029:7448   */\n    tag_72:\n        /* \"#utility.yul\":7195:7199   */\n      0x00\n        /* \"#utility.yul\":7233:7235   */\n      0x20\n        /* \"#utility.yul\":7222:7231   */\n      dup3\n        /* \"#utility.yul\":7218:7236   */\n      add\n        /* \"#utility.yul\":7210:7236   */\n      swap1\n      pop\n        /* \"#utility.yul\":7282:7291   */\n      dup2\n        /* \"#utility.yul\":7276:7280   */\n      dup2\n        /* \"#utility.yul\":7272:7292   */\n      sub\n        /* \"#utility.yul\":7268:7269   */\n      0x00\n        /* \"#utility.yul\":7257:7266   */\n      dup4\n        /* \"#utility.yul\":7253:7270   */\n      add\n        /* \"#utility.yul\":7246:7293   */\n      mstore\n        /* \"#utility.yul\":7310:7441   */\n      tag_196\n        /* \"#utility.yul\":7436:7440   */\n      dup2\n        /* \"#utility.yul\":7310:7441   */\n      tag_119\n      jump\t// in\n    tag_196:\n        /* \"#utility.yul\":7302:7441   */\n      swap1\n      pop\n        /* \"#utility.yul\":7029:7448   */\n      swap2\n      swap1\n      pop\n      jump\t// out\n        /* \"#utility.yul\":7454:7634   */\n    tag_120:\n        /* \"#utility.yul\":7502:7579   */\n      0x4e487b7100000000000000000000000000000000000000000000000000000000\n        /* \"#utility.yul\":7499:7500   */\n      0x00\n        /* \"#utility.yul\":7492:7580   */\n      mstore\n        /* \"#utility.yul\":7599:7603   */\n      0x11\n        /* \"#utility.yul\":7596:7597   */\n      0x04\n        /* \"#utility.yul\":7589:7604   */\n      mstore\n        /* \"#utility.yul\":7623:7627   */\n      0x24\n        /* \"#utility.yul\":7620:7621   */\n      0x00\n        /* \"#utility.yul\":7613:7628   */\n      revert\n        /* \"#utility.yul\":7640:8050   */\n    tag_74:\n        /* \"#utility.yul\":7680:7687   */\n      0x00\n        /* \"#utility.yul\":7703:7723   */\n      tag_199\n        /* \"#utility.yul\":7721:7722   */\n      dup3\n        /* \"#utility.yul\":7703:7723   */\n      tag_108\n      jump\t// in\n    tag_199:\n        /* \"#utility.yul\":7698:7723   */\n      swap2\n      pop\n        /* \"#utility.yul\":7737:7757   */\n      tag_200\n        /* \"#utility.yul\":7755:7756   */\n      dup4\n        /* \"#utility.yul\":7737:7757   */\n      tag_108\n      jump\t// in\n    tag_200:\n        /* \"#utility.yul\":7732:7757   */\n      swap3\n      pop\n        /* \"#utility.yul\":7792:7793   */\n      dup3\n        /* \"#utility.yul\":7789:7790   */\n      dup3\n        /* \"#utility.yul\":7785:7794   */\n      mul\n        /* \"#utility.yul\":7814:7844   */\n      tag_201\n        /* \"#utility.yul\":7832:7843   */\n      dup2\n        /* \"#utility.yul\":7814:7844   */\n      tag_108\n      jump\t// in\n    tag_201:\n        /* \"#utility.yul\":7803:7844   */\n      swap2\n      pop\n        /* \"#utility.yul\":7993:7994   */\n      dup3\n        /* \"#utility.yul\":7984:7991   */\n      dup3\n        /* \"#utility.yul\":7980:7995   */\n      div\n        /* \"#utility.yul\":7977:7978   */\n      dup5\n        /* \"#utility.yul\":7974:7996   */\n      eq\n        /* \"#utility.yul\":7954:7955   */\n      dup4\n        /* \"#utility.yul\":7947:7956   */\n      iszero\n        /* \"#utility.yul\":7927:8010   */\n      or\n        /* \"#utility.yul\":7904:8043   */\n      tag_202\n      jumpi\n        /* \"#utility.yul\":8023:8041   */\n      tag_203\n      tag_120\n      jump\t// in\n    tag_203:\n        /* \"#utility.yul\":7904:8043   */\n    tag_202:\n        /* \"#utility.yul\":7688:8050   */\n      pop\n        /* \"#utility.yul\":7640:8050   */\n      swap3\n      swap2\n      pop\n      pop\n      jump\t// out\n        /* \"#utility.yul\":8056:8236   */\n    tag_121:\n        /* \"#utility.yul\":8104:8181   */\n      0x4e487b7100000000000000000000000000000000000000000000000000000000\n        /* \"#utility.yul\":8101:8102   */\n      0x00\n        /* \"#utility.yul\":8094:8182   */\n      mstore\n        /* \"#utility.yul\":8201:8205   */\n      0x12\n        /* \"#utility.yul\":8198:8199   */\n      0x04\n        /* \"#utility.yul\":8191:8206   */\n      mstore\n        /* \"#utility.yul\":8225:8229   */\n      0x24\n        /* \"#utility.yul\":8222:8223   */\n      0x00\n        /* \"#utility.yul\":8215:8230   */\n      revert\n        /* \"#utility.yul\":8242:8427   */\n    tag_77:\n        /* \"#utility.yul\":8282:8283   */\n      0x00\n        /* \"#utility.yul\":8299:8319   */\n      tag_206\n        /* \"#utility.yul\":8317:8318   */\n      dup3\n        /* \"#utility.yul\":8299:8319   */\n      tag_108\n      jump\t// in\n    tag_206:\n        /* \"#utility.yul\":8294:8319   */\n      swap2\n      pop\n        /* \"#utility.yul\":8333:8353   */\n      tag_207\n        /* \"#utility.yul\":8351:8352   */\n      dup4\n        /* \"#utility.yul\":8333:8353   */\n      tag_108\n      jump\t// in\n    tag_207:\n        /* \"#utility.yul\":8328:8353   */\n      swap3\n      pop\n        /* \"#utility.yul\":8372:8373   */\n      dup3\n        /* \"#utility.yul\":8362:8397   */\n      tag_208\n      jumpi\n        /* \"#utility.yul\":8377:8395   */\n      tag_209\n      tag_121\n      jump\t// in\n    tag_209:\n        /* \"#utility.yul\":8362:8397   */\n    tag_208:\n        /* \"#utility.yul\":8419:8420   */\n      dup3\n        /* \"#utility.yul\":8416:8417   */\n      dup3\n        /* \"#utility.yul\":8412:8421   */\n      div\n        /* \"#utility.yul\":8407:8421   */\n      swap1\n      pop\n        /* \"#utility.yul\":8242:8427   */\n      swap3\n      swap2\n      pop\n      pop\n      jump\t// out\n        /* \"#utility.yul\":8433:8624   */\n    tag_80:\n        /* \"#utility.yul\":8473:8476   */\n      0x00\n        /* \"#utility.yul\":8492:8512   */\n      tag_211\n        /* \"#utility.yul\":8510:8511   */\n      dup3\n        /* \"#utility.yul\":8492:8512   */\n      tag_108\n      jump\t// in\n    tag_211:\n        /* \"#utility.yul\":8487:8512   */\n      swap2\n      pop\n        /* \"#utility.yul\":8526:8546   */\n      tag_212\n        /* \"#utility.yul\":8544:8545   */\n      dup4\n        /* \"#utility.yul\":8526:8546   */\n      tag_108\n      jump\t// in\n    tag_212:\n        /* \"#utility.yul\":8521:8546   */\n      swap3\n      pop\n        /* \"#utility.yul\":8569:8570   */\n      dup3\n        /* \"#utility.yul\":8566:8567   */\n      dup3\n        /* \"#utility.yul\":8562:8571   */\n      add\n        /* \"#utility.yul\":8555:8571   */\n      swap1\n      pop\n        /* \"#utility.yul\":8590:8593   */\n      dup1\n        /* \"#utility.yul\":8587:8588   */\n      dup3\n        /* \"#utility.yul\":8584:8594   */\n      gt\n        /* \"#utility.yul\":8581:8617   */\n      iszero\n      tag_213\n      jumpi\n        /* \"#utility.yul\":8597:8615   */\n      tag_214\n      tag_120\n      jump\t// in\n    tag_214:\n        /* \"#utility.yul\":8581:8617   */\n    tag_213:\n        /* \"#utility.yul\":8433:8624   */\n      swap3\n      swap2\n      pop\n      pop\n      jump\t// out\n        /* \"#utility.yul\":8630:8938   */\n    tag_122:\n        /* \"#utility.yul\":8770:8804   */\n      0x596f75277265206e657420696e636f6d6520697320746f6f206c6f7720666f72\n        /* \"#utility.yul\":8766:8767   */\n      0x00\n        /* \"#utility.yul\":8758:8764   */\n      dup3\n        /* \"#utility.yul\":8754:8768   */\n      add\n        /* \"#utility.yul\":8747:8805   */\n      mstore\n        /* \"#utility.yul\":8839:8873   */\n      0x2074686973206c6f616e20616d6f756e742e20547279207265647563696e6720\n        /* \"#utility.yul\":8834:8836   */\n      0x20\n        /* \"#utility.yul\":8826:8832   */\n      dup3\n        /* \"#utility.yul\":8822:8837   */\n      add\n        /* \"#utility.yul\":8815:8874   */\n      mstore\n        /* \"#utility.yul\":8908:8930   */\n      0x697420796f7572206c6f616e2072657175657374000000000000000000000000\n        /* \"#utility.yul\":8903:8905   */\n      0x40\n        /* \"#utility.yul\":8895:8901   */\n      dup3\n        /* \"#utility.yul\":8891:8906   */\n      add\n        /* \"#utility.yul\":8884:8931   */\n      mstore\n        /* \"#utility.yul\":8630:8938   */\n      pop\n      jump\t// out\n        /* \"#utility.yul\":8944:9310   */\n    tag_123:\n        /* \"#utility.yul\":9086:9089   */\n      0x00\n        /* \"#utility.yul\":9107:9174   */\n      tag_217\n        /* \"#utility.yul\":9171:9173   */\n      0x54\n        /* \"#utility.yul\":9166:9169   */\n      dup4\n        /* \"#utility.yul\":9107:9174   */\n      tag_113\n      jump\t// in\n    tag_217:\n        /* \"#utility.yul\":9100:9174   */\n      swap2\n      pop\n        /* \"#utility.yul\":9183:9276   */\n      tag_218\n        /* \"#utility.yul\":9272:9275   */\n      dup3\n        /* \"#utility.yul\":9183:9276   */\n      tag_122\n      jump\t// in\n    tag_218:\n        /* \"#utility.yul\":9301:9303   */\n      0x60\n        /* \"#utility.yul\":9296:9299   */\n      dup3\n        /* \"#utility.yul\":9292:9304   */\n      add\n        /* \"#utility.yul\":9285:9304   */\n      swap1\n      pop\n        /* \"#utility.yul\":8944:9310   */\n      swap2\n      swap1\n      pop\n      jump\t// out\n        /* \"#utility.yul\":9316:9735   */\n    tag_84:\n        /* \"#utility.yul\":9482:9486   */\n      0x00\n        /* \"#utility.yul\":9520:9522   */\n      0x20\n        /* \"#utility.yul\":9509:9518   */\n      dup3\n        /* \"#utility.yul\":9505:9523   */\n      add\n        /* \"#utility.yul\":9497:9523   */\n      swap1\n      pop\n        /* \"#utility.yul\":9569:9578   */\n      dup2\n        /* \"#utility.yul\":9563:9567   */\n      dup2\n        /* \"#utility.yul\":9559:9579   */\n      sub\n        /* \"#utility.yul\":9555:9556   */\n      0x00\n        /* \"#utility.yul\":9544:9553   */\n      dup4\n        /* \"#utility.yul\":9540:9557   */\n      add\n        /* \"#utility.yul\":9533:9580   */\n      mstore\n        /* \"#utility.yul\":9597:9728   */\n      tag_220\n        /* \"#utility.yul\":9723:9727   */\n      dup2\n        /* \"#utility.yul\":9597:9728   */\n      tag_123\n      jump\t// in\n    tag_220:\n        /* \"#utility.yul\":9589:9728   */\n      swap1\n      pop\n        /* \"#utility.yul\":9316:9735   */\n      swap2\n      swap1\n      pop\n      jump\t// out\n        /* \"#utility.yul\":9741:9935   */\n    tag_91:\n        /* \"#utility.yul\":9781:9785   */\n      0x00\n        /* \"#utility.yul\":9801:9821   */\n      tag_222\n        /* \"#utility.yul\":9819:9820   */\n      dup3\n        /* \"#utility.yul\":9801:9821   */\n      tag_108\n      jump\t// in\n    tag_222:\n        /* \"#utility.yul\":9796:9821   */\n      swap2\n      pop\n        /* \"#utility.yul\":9835:9855   */\n      tag_223\n        /* \"#utility.yul\":9853:9854   */\n      dup4\n        /* \"#utility.yul\":9835:9855   */\n      tag_108\n      jump\t// in\n    tag_223:\n        /* \"#utility.yul\":9830:9855   */\n      swap3\n      pop\n        /* \"#utility.yul\":9879:9880   */\n      dup3\n        /* \"#utility.yul\":9876:9877   */\n      dup3\n        /* \"#utility.yul\":9872:9881   */\n      sub\n        /* \"#utility.yul\":9864:9881   */\n      swap1\n      pop\n        /* \"#utility.yul\":9903:9904   */\n      dup2\n        /* \"#utility.yul\":9897:9901   */\n      dup2\n        /* \"#utility.yul\":9894:9905   */\n      gt\n        /* \"#utility.yul\":9891:9928   */\n      iszero\n      tag_224\n      jumpi\n        /* \"#utility.yul\":9908:9926   */\n      tag_225\n      tag_120\n      jump\t// in\n    tag_225:\n        /* \"#utility.yul\":9891:9928   */\n    tag_224:\n        /* \"#utility.yul\":9741:9935   */\n      swap3\n      swap2\n      pop\n      pop\n      jump\t// out\n        /* \"#utility.yul\":9941:10110   */\n    tag_124:\n        /* \"#utility.yul\":10081:10102   */\n      0x4572726f722073656e64696e672066756e647300000000000000000000000000\n        /* \"#utility.yul\":10077:10078   */\n      0x00\n        /* \"#utility.yul\":10069:10075   */\n      dup3\n        /* \"#utility.yul\":10065:10079   */\n      add\n        /* \"#utility.yul\":10058:10103   */\n      mstore\n        /* \"#utility.yul\":9941:10110   */\n      pop\n      jump\t// out\n        /* \"#utility.yul\":10116:10482   */\n    tag_125:\n        /* \"#utility.yul\":10258:10261   */\n      0x00\n        /* \"#utility.yul\":10279:10346   */\n      tag_228\n        /* \"#utility.yul\":10343:10345   */\n      0x13\n        /* \"#utility.yul\":10338:10341   */\n      dup4\n        /* \"#utility.yul\":10279:10346   */\n      tag_113\n      jump\t// in\n    tag_228:\n        /* \"#utility.yul\":10272:10346   */\n      swap2\n      pop\n        /* \"#utility.yul\":10355:10448   */\n      tag_229\n        /* \"#utility.yul\":10444:10447   */\n      dup3\n        /* \"#utility.yul\":10355:10448   */\n      tag_124\n      jump\t// in\n    tag_229:\n        /* \"#utility.yul\":10473:10475   */\n      0x20\n        /* \"#utility.yul\":10468:10471   */\n      dup3\n        /* \"#utility.yul\":10464:10476   */\n      add\n        /* \"#utility.yul\":10457:10476   */\n      swap1\n      pop\n        /* \"#utility.yul\":10116:10482   */\n      swap2\n      swap1\n      pop\n      jump\t// out\n        /* \"#utility.yul\":10488:10907   */\n    tag_96:\n        /* \"#utility.yul\":10654:10658   */\n      0x00\n        /* \"#utility.yul\":10692:10694   */\n      0x20\n        /* \"#utility.yul\":10681:10690   */\n      dup3\n        /* \"#utility.yul\":10677:10695   */\n      add\n        /* \"#utility.yul\":10669:10695   */\n      swap1\n      pop\n        /* \"#utility.yul\":10741:10750   */\n      dup2\n        /* \"#utility.yul\":10735:10739   */\n      dup2\n        /* \"#utility.yul\":10731:10751   */\n      sub\n        /* \"#utility.yul\":10727:10728   */\n      0x00\n        /* \"#utility.yul\":10716:10725   */\n      dup4\n        /* \"#utility.yul\":10712:10729   */\n      add\n        /* \"#utility.yul\":10705:10752   */\n      mstore\n        /* \"#utility.yul\":10769:10900   */\n      tag_231\n        /* \"#utility.yul\":10895:10899   */\n      dup2\n        /* \"#utility.yul\":10769:10900   */\n      tag_125\n      jump\t// in\n    tag_231:\n        /* \"#utility.yul\":10761:10900   */\n      swap1\n      pop\n        /* \"#utility.yul\":10488:10907   */\n      swap2\n      swap1\n      pop\n      jump\t// out\n        /* \"#utility.yul\":10913:11092   */\n    tag_126:\n        /* \"#utility.yul\":11053:11084   */\n      0x4572726f722067657474696e6720796f7572206e657420696e636f6d65000000\n        /* \"#utility.yul\":11049:11050   */\n      0x00\n        /* \"#utility.yul\":11041:11047   */\n      dup3\n        /* \"#utility.yul\":11037:11051   */\n      add\n        /* \"#utility.yul\":11030:11085   */\n      mstore\n        /* \"#utility.yul\":10913:11092   */\n      pop\n      jump\t// out\n        /* \"#utility.yul\":11098:11464   */\n    tag_127:\n        /* \"#utility.yul\":11240:11243   */\n      0x00\n        /* \"#utility.yul\":11261:11328   */\n      tag_234\n        /* \"#utility.yul\":11325:11327   */\n      0x1d\n        /* \"#utility.yul\":11320:11323   */\n      dup4\n        /* \"#utility.yul\":11261:11328   */\n      tag_113\n      jump\t// in\n    tag_234:\n        /* \"#utility.yul\":11254:11328   */\n      swap2\n      pop\n        /* \"#utility.yul\":11337:11430   */\n      tag_235\n        /* \"#utility.yul\":11426:11429   */\n      dup3\n        /* \"#utility.yul\":11337:11430   */\n      tag_126\n      jump\t// in\n    tag_235:\n        /* \"#utility.yul\":11455:11457   */\n      0x20\n        /* \"#utility.yul\":11450:11453   */\n      dup3\n        /* \"#utility.yul\":11446:11458   */\n      add\n        /* \"#utility.yul\":11439:11458   */\n      swap1\n      pop\n        /* \"#utility.yul\":11098:11464   */\n      swap2\n      swap1\n      pop\n      jump\t// out\n        /* \"#utility.yul\":11470:11889   */\n    tag_100:\n        /* \"#utility.yul\":11636:11640   */\n      0x00\n        /* \"#utility.yul\":11674:11676   */\n      0x20\n        /* \"#utility.yul\":11663:11672   */\n      dup3\n        /* \"#utility.yul\":11659:11677   */\n      add\n        /* \"#utility.yul\":11651:11677   */\n      swap1\n      pop\n        /* \"#utility.yul\":11723:11732   */\n      dup2\n        /* \"#utility.yul\":11717:11721   */\n      dup2\n        /* \"#utility.yul\":11713:11733   */\n      sub\n        /* \"#utility.yul\":11709:11710   */\n      0x00\n        /* \"#utility.yul\":11698:11707   */\n      dup4\n        /* \"#utility.yul\":11694:11711   */\n      add\n        /* \"#utility.yul\":11687:11734   */\n      mstore\n        /* \"#utility.yul\":11751:11882   */\n      tag_237\n        /* \"#utility.yul\":11877:11881   */\n      dup2\n        /* \"#utility.yul\":11751:11882   */\n      tag_127\n      jump\t// in\n    tag_237:\n        /* \"#utility.yul\":11743:11882   */\n      swap1\n      pop\n        /* \"#utility.yul\":11470:11889   */\n      swap2\n      swap1\n      pop\n      jump\t// out\n\n    auxdata: 0xa2646970667358221220be2f4d4c963720faf4092d55cf706df7634fbedd769a0fe2dca79e603bc43b3764736f6c63430008130033\n}\n",
				"bytecode": {
					"linkReferences": {},
					"object": "608060405234801561001057600080fd5b506064600481905550610ef6806100286000396000f3fe6080604052600436106100865760003560e01c8063796210781161005957806379621078146101705780638b2810181461019957806390d8925f146101b55780639244dd74146101f2578063f7e590ee1461021d57610086565b80630fd892771461008b57806324b7eb8c146100c85780635da19538146101085780636f77ff5514610133575b600080fd5b34801561009757600080fd5b506100b260048036038101906100ad91906108b4565b61025a565b6040516100bf91906108fa565b60405180910390f35b3480156100d457600080fd5b506100ef60048036038101906100ea9190610941565b610272565b6040516100ff949392919061097d565b60405180910390f35b34801561011457600080fd5b5061011d6102d2565b60405161012a91906108fa565b60405180910390f35b34801561013f57600080fd5b5061015a600480360381019061015591906109c2565b61039a565b60405161016791906108fa565b60405180910390f35b34801561017c57600080fd5b5061019760048036038101906101929190610a15565b6104e4565b005b6101b360048036038101906101ae9190610941565b610685565b005b3480156101c157600080fd5b506101dc60048036038101906101d791906108b4565b610759565b6040516101e991906108fa565b60405180910390f35b3480156101fe57600080fd5b50610207610771565b60405161021491906108fa565b60405180910390f35b34801561022957600080fd5b50610244600480360381019061023f91906108b4565b610839565b60405161025191906108fa565b60405180910390f35b60026020528060005260406000206000915090505481565b6005818154811061028257600080fd5b90600052602060002090600402016000915090508060000160009054906101000a900473ffffffffffffffffffffffffffffffffffffffff16908060010154908060020154908060030154905084565b600080600160003373ffffffffffffffffffffffffffffffffffffffff1673ffffffffffffffffffffffffffffffffffffffff1681526020019081526020016000205403610355576040517f08c379a000000000000000000000000000000000000000000000000000000000815260040161034c90610ad9565b60405180910390fd5b600160003373ffffffffffffffffffffffffffffffffffffffff1673ffffffffffffffffffffffffffffffffffffffff16815260200190815260200160002054905090565b6000806103a56102d2565b905060006103b1610771565b905061015e8210156103f8576040517f08c379a00000000000000000000000000000000000000000000000000000000081526004016103ef90610b45565b60405180910390fd5b60045485111561043d576040517f08c379a000000000000000000000000000000000000000000000000000000000815260040161043490610bd7565b60405180910390fd5b60006104b0600586886104509190610c26565b61045a9190610c26565b6104649190610c97565b9050600085826104749190610c97565b8761047f9190610cc8565b905080600561048e9190610c26565b8310156104d0576040517f08c379a00000000000000000000000000000000000000000000000000000000081526004016104c790610d94565b60405180910390fd5b6104d987610685565b505050509392505050565b82600160008673ffffffffffffffffffffffffffffffffffffffff1673ffffffffffffffffffffffffffffffffffffffff1681526020019081526020016000208190555081600260008673ffffffffffffffffffffffffffffffffffffffff1673ffffffffffffffffffffffffffffffffffffffff1681526020019081526020016000208190555080600360008673ffffffffffffffffffffffffffffffffffffffff1673ffffffffffffffffffffffffffffffffffffffff16815260200190815260200160002081905550600060405180608001604052808673ffffffffffffffffffffffffffffffffffffffff168152602001858152602001848152602001838152509050600581908060018154018082558091505060019003906000526020600020906004020160009091909190915060008201518160000160006101000a81548173ffffffffffffffffffffffffffffffffffffffff021916908373ffffffffffffffffffffffffffffffffffffffff16021790555060208201518160010155604082015181600201556060820151816003015550505050505050565b80600360003373ffffffffffffffffffffffffffffffffffffffff1673ffffffffffffffffffffffffffffffffffffffff16815260200190815260200160002060008282546106d49190610cc8565b9250508190555080600460008282546106ed9190610db4565b925050819055506000816004546107049190610db4565b905080826004546107159190610db4565b14610755576040517f08c379a000000000000000000000000000000000000000000000000000000000815260040161074c90610e34565b60405180910390fd5b5050565b60036020528060005260406000206000915090505481565b600080600260003373ffffffffffffffffffffffffffffffffffffffff1673ffffffffffffffffffffffffffffffffffffffff16815260200190815260200160002054036107f4576040517f08c379a00000000000000000000000000000000000000000000000000000000081526004016107eb90610ea0565b60405180910390fd5b600260003373ffffffffffffffffffffffffffffffffffffffff1673ffffffffffffffffffffffffffffffffffffffff16815260200190815260200160002054905090565b60016020528060005260406000206000915090505481565b600080fd5b600073ffffffffffffffffffffffffffffffffffffffff82169050919050565b600061088182610856565b9050919050565b61089181610876565b811461089c57600080fd5b50565b6000813590506108ae81610888565b92915050565b6000602082840312156108ca576108c9610851565b5b60006108d88482850161089f565b91505092915050565b6000819050919050565b6108f4816108e1565b82525050565b600060208201905061090f60008301846108eb565b92915050565b61091e816108e1565b811461092957600080fd5b50565b60008135905061093b81610915565b92915050565b60006020828403121561095757610956610851565b5b60006109658482850161092c565b91505092915050565b61097781610876565b82525050565b6000608082019050610992600083018761096e565b61099f60208301866108eb565b6109ac60408301856108eb565b6109b960608301846108eb565b95945050505050565b6000806000606084860312156109db576109da610851565b5b60006109e98682870161089f565b93505060206109fa8682870161092c565b9250506040610a0b8682870161092c565b9150509250925092565b60008060008060808587031215610a2f57610a2e610851565b5b6000610a3d8782880161089f565b9450506020610a4e8782880161092c565b9350506040610a5f8782880161092c565b9250506060610a708782880161092c565b91505092959194509250565b600082825260208201905092915050565b7f4572726f722067657474696e6720796f7572206372656469742073636f726500600082015250565b6000610ac3601f83610a7c565b9150610ace82610a8d565b602082019050919050565b60006020820190508181036000830152610af281610ab6565b9050919050565b7f4372656469742073636f726520746f6f206c6f77000000000000000000000000600082015250565b6000610b2f601483610a7c565b9150610b3a82610af9565b602082019050919050565b60006020820190508181036000830152610b5e81610b22565b9050919050565b7f596f752063616e6e6f74207265717565737420666f72207468697320616d6f7560008201527f6e74000000000000000000000000000000000000000000000000000000000000602082015250565b6000610bc1602283610a7c565b9150610bcc82610b65565b604082019050919050565b60006020820190508181036000830152610bf081610bb4565b9050919050565b7f4e487b7100000000000000000000000000000000000000000000000000000000600052601160045260246000fd5b6000610c31826108e1565b9150610c3c836108e1565b9250828202610c4a816108e1565b91508282048414831517610c6157610c60610bf7565b5b5092915050565b7f4e487b7100000000000000000000000000000000000000000000000000000000600052601260045260246000fd5b6000610ca2826108e1565b9150610cad836108e1565b925082610cbd57610cbc610c68565b5b828204905092915050565b6000610cd3826108e1565b9150610cde836108e1565b9250828201905080821115610cf657610cf5610bf7565b5b92915050565b7f596f75277265206e657420696e636f6d6520697320746f6f206c6f7720666f7260008201527f2074686973206c6f616e20616d6f756e742e20547279207265647563696e672060208201527f697420796f7572206c6f616e2072657175657374000000000000000000000000604082015250565b6000610d7e605483610a7c565b9150610d8982610cfc565b606082019050919050565b60006020820190508181036000830152610dad81610d71565b9050919050565b6000610dbf826108e1565b9150610dca836108e1565b9250828203905081811115610de257610de1610bf7565b5b92915050565b7f4572726f722073656e64696e672066756e647300000000000000000000000000600082015250565b6000610e1e601383610a7c565b9150610e2982610de8565b602082019050919050565b60006020820190508181036000830152610e4d81610e11565b9050919050565b7f4572726f722067657474696e6720796f7572206e657420696e636f6d65000000600082015250565b6000610e8a601d83610a7c565b9150610e9582610e54565b602082019050919050565b60006020820190508181036000830152610eb981610e7d565b905091905056fea2646970667358221220be2f4d4c963720faf4092d55cf706df7634fbedd769a0fe2dca79e603bc43b3764736f6c63430008130033",
					"opcodes": "PUSH1 0x80 PUSH1 0x40 MSTORE CALLVALUE DUP1 ISZERO PUSH2 0x10 JUMPI PUSH1 0x0 DUP1 REVERT JUMPDEST POP PUSH1 0x64 PUSH1 0x4 DUP2 SWAP1 SSTORE POP PUSH2 0xEF6 DUP1 PUSH2 0x28 PUSH1 0x0 CODECOPY PUSH1 0x0 RETURN INVALID PUSH1 0x80 PUSH1 0x40 MSTORE PUSH1 0x4 CALLDATASIZE LT PUSH2 0x86 JUMPI PUSH1 0x0 CALLDATALOAD PUSH1 0xE0 SHR DUP1 PUSH4 0x79621078 GT PUSH2 0x59 JUMPI DUP1 PUSH4 0x79621078 EQ PUSH2 0x170 JUMPI DUP1 PUSH4 0x8B281018 EQ PUSH2 0x199 JUMPI DUP1 PUSH4 0x90D8925F EQ PUSH2 0x1B5 JUMPI DUP1 PUSH4 0x9244DD74 EQ PUSH2 0x1F2 JUMPI DUP1 PUSH4 0xF7E590EE EQ PUSH2 0x21D JUMPI PUSH2 0x86 JUMP JUMPDEST DUP1 PUSH4 0xFD89277 EQ PUSH2 0x8B JUMPI DUP1 PUSH4 0x24B7EB8C EQ PUSH2 0xC8 JUMPI DUP1 PUSH4 0x5DA19538 EQ PUSH2 0x108 JUMPI DUP1 PUSH4 0x6F77FF55 EQ PUSH2 0x133 JUMPI JUMPDEST PUSH1 0x0 DUP1 REVERT JUMPDEST CALLVALUE DUP1 ISZERO PUSH2 0x97 JUMPI PUSH1 0x0 DUP1 REVERT JUMPDEST POP PUSH2 0xB2 PUSH1 0x4 DUP1 CALLDATASIZE SUB DUP2 ADD SWAP1 PUSH2 0xAD SWAP2 SWAP1 PUSH2 0x8B4 JUMP JUMPDEST PUSH2 0x25A JUMP JUMPDEST PUSH1 0x40 MLOAD PUSH2 0xBF SWAP2 SWAP1 PUSH2 0x8FA JUMP JUMPDEST PUSH1 0x40 MLOAD DUP1 SWAP2 SUB SWAP1 RETURN JUMPDEST CALLVALUE DUP1 ISZERO PUSH2 0xD4 JUMPI PUSH1 0x0 DUP1 REVERT JUMPDEST POP PUSH2 0xEF PUSH1 0x4 DUP1 CALLDATASIZE SUB DUP2 ADD SWAP1 PUSH2 0xEA SWAP2 SWAP1 PUSH2 0x941 JUMP JUMPDEST PUSH2 0x272 JUMP JUMPDEST PUSH1 0x40 MLOAD PUSH2 0xFF SWAP5 SWAP4 SWAP3 SWAP2 SWAP1 PUSH2 0x97D JUMP JUMPDEST PUSH1 0x40 MLOAD DUP1 SWAP2 SUB SWAP1 RETURN JUMPDEST CALLVALUE DUP1 ISZERO PUSH2 0x114 JUMPI PUSH1 0x0 DUP1 REVERT JUMPDEST POP PUSH2 0x11D PUSH2 0x2D2 JUMP JUMPDEST PUSH1 0x40 MLOAD PUSH2 0x12A SWAP2 SWAP1 PUSH2 0x8FA JUMP JUMPDEST PUSH1 0x40 MLOAD DUP1 SWAP2 SUB SWAP1 RETURN JUMPDEST CALLVALUE DUP1 ISZERO PUSH2 0x13F JUMPI PUSH1 0x0 DUP1 REVERT JUMPDEST POP PUSH2 0x15A PUSH1 0x4 DUP1 CALLDATASIZE SUB DUP2 ADD SWAP1 PUSH2 0x155 SWAP2 SWAP1 PUSH2 0x9C2 JUMP JUMPDEST PUSH2 0x39A JUMP JUMPDEST PUSH1 0x40 MLOAD PUSH2 0x167 SWAP2 SWAP1 PUSH2 0x8FA JUMP JUMPDEST PUSH1 0x40 MLOAD DUP1 SWAP2 SUB SWAP1 RETURN JUMPDEST CALLVALUE DUP1 ISZERO PUSH2 0x17C JUMPI PUSH1 0x0 DUP1 REVERT JUMPDEST POP PUSH2 0x197 PUSH1 0x4 DUP1 CALLDATASIZE SUB DUP2 ADD SWAP1 PUSH2 0x192 SWAP2 SWAP1 PUSH2 0xA15 JUMP JUMPDEST PUSH2 0x4E4 JUMP JUMPDEST STOP JUMPDEST PUSH2 0x1B3 PUSH1 0x4 DUP1 CALLDATASIZE SUB DUP2 ADD SWAP1 PUSH2 0x1AE SWAP2 SWAP1 PUSH2 0x941 JUMP JUMPDEST PUSH2 0x685 JUMP JUMPDEST STOP JUMPDEST CALLVALUE DUP1 ISZERO PUSH2 0x1C1 JUMPI PUSH1 0x0 DUP1 REVERT JUMPDEST POP PUSH2 0x1DC PUSH1 0x4 DUP1 CALLDATASIZE SUB DUP2 ADD SWAP1 PUSH2 0x1D7 SWAP2 SWAP1 PUSH2 0x8B4 JUMP JUMPDEST PUSH2 0x759 JUMP JUMPDEST PUSH1 0x40 MLOAD PUSH2 0x1E9 SWAP2 SWAP1 PUSH2 0x8FA JUMP JUMPDEST PUSH1 0x40 MLOAD DUP1 SWAP2 SUB SWAP1 RETURN JUMPDEST CALLVALUE DUP1 ISZERO PUSH2 0x1FE JUMPI PUSH1 0x0 DUP1 REVERT JUMPDEST POP PUSH2 0x207 PUSH2 0x771 JUMP JUMPDEST PUSH1 0x40 MLOAD PUSH2 0x214 SWAP2 SWAP1 PUSH2 0x8FA JUMP JUMPDEST PUSH1 0x40 MLOAD DUP1 SWAP2 SUB SWAP1 RETURN JUMPDEST CALLVALUE DUP1 ISZERO PUSH2 0x229 JUMPI PUSH1 0x0 DUP1 REVERT JUMPDEST POP PUSH2 0x244 PUSH1 0x4 DUP1 CALLDATASIZE SUB DUP2 ADD SWAP1 PUSH2 0x23F SWAP2 SWAP1 PUSH2 0x8B4 JUMP JUMPDEST PUSH2 0x839 JUMP JUMPDEST PUSH1 0x40 MLOAD PUSH2 0x251 SWAP2 SWAP1 PUSH2 0x8FA JUMP JUMPDEST PUSH1 0x40 MLOAD DUP1 SWAP2 SUB SWAP1 RETURN JUMPDEST PUSH1 0x2 PUSH1 0x20 MSTORE DUP1 PUSH1 0x0 MSTORE PUSH1 0x40 PUSH1 0x0 KECCAK256 PUSH1 0x0 SWAP2 POP SWAP1 POP SLOAD DUP2 JUMP JUMPDEST PUSH1 0x5 DUP2 DUP2 SLOAD DUP2 LT PUSH2 0x282 JUMPI PUSH1 0x0 DUP1 REVERT JUMPDEST SWAP1 PUSH1 0x0 MSTORE PUSH1 0x20 PUSH1 0x0 KECCAK256 SWAP1 PUSH1 0x4 MUL ADD PUSH1 0x0 SWAP2 POP SWAP1 POP DUP1 PUSH1 0x0 ADD PUSH1 0x0 SWAP1 SLOAD SWAP1 PUSH2 0x100 EXP SWAP1 DIV PUSH20 0xFFFFFFFFFFFFFFFFFFFFFFFFFFFFFFFFFFFFFFFF AND SWAP1 DUP1 PUSH1 0x1 ADD SLOAD SWAP1 DUP1 PUSH1 0x2 ADD SLOAD SWAP1 DUP1 PUSH1 0x3 ADD SLOAD SWAP1 POP DUP5 JUMP JUMPDEST PUSH1 0x0 DUP1 PUSH1 0x1 PUSH1 0x0 CALLER PUSH20 0xFFFFFFFFFFFFFFFFFFFFFFFFFFFFFFFFFFFFFFFF AND PUSH20 0xFFFFFFFFFFFFFFFFFFFFFFFFFFFFFFFFFFFFFFFF AND DUP2 MSTORE PUSH1 0x20 ADD SWAP1 DUP2 MSTORE PUSH1 0x20 ADD PUSH1 0x0 KECCAK256 SLOAD SUB PUSH2 0x355 JUMPI PUSH1 0x40 MLOAD PUSH32 0x8C379A000000000000000000000000000000000000000000000000000000000 DUP2 MSTORE PUSH1 0x4 ADD PUSH2 0x34C SWAP1 PUSH2 0xAD9 JUMP JUMPDEST PUSH1 0x40 MLOAD DUP1 SWAP2 SUB SWAP1 REVERT JUMPDEST PUSH1 0x1 PUSH1 0x0 CALLER PUSH20 0xFFFFFFFFFFFFFFFFFFFFFFFFFFFFFFFFFFFFFFFF AND PUSH20 0xFFFFFFFFFFFFFFFFFFFFFFFFFFFFFFFFFFFFFFFF AND DUP2 MSTORE PUSH1 0x20 ADD SWAP1 DUP2 MSTORE PUSH1 0x20 ADD PUSH1 0x0 KECCAK256 SLOAD SWAP1 POP SWAP1 JUMP JUMPDEST PUSH1 0x0 DUP1 PUSH2 0x3A5 PUSH2 0x2D2 JUMP JUMPDEST SWAP1 POP PUSH1 0x0 PUSH2 0x3B1 PUSH2 0x771 JUMP JUMPDEST SWAP1 POP PUSH2 0x15E DUP3 LT ISZERO PUSH2 0x3F8 JUMPI PUSH1 0x40 MLOAD PUSH32 0x8C379A000000000000000000000000000000000000000000000000000000000 DUP2 MSTORE PUSH1 0x4 ADD PUSH2 0x3EF SWAP1 PUSH2 0xB45 JUMP JUMPDEST PUSH1 0x40 MLOAD DUP1 SWAP2 SUB SWAP1 REVERT JUMPDEST PUSH1 0x4 SLOAD DUP6 GT ISZERO PUSH2 0x43D JUMPI PUSH1 0x40 MLOAD PUSH32 0x8C379A000000000000000000000000000000000000000000000000000000000 DUP2 MSTORE PUSH1 0x4 ADD PUSH2 0x434 SWAP1 PUSH2 0xBD7 JUMP JUMPDEST PUSH1 0x40 MLOAD DUP1 SWAP2 SUB SWAP1 REVERT JUMPDEST PUSH1 0x0 PUSH2 0x4B0 PUSH1 0x5 DUP7 DUP9 PUSH2 0x450 SWAP2 SWAP1 PUSH2 0xC26 JUMP JUMPDEST PUSH2 0x45A SWAP2 SWAP1 PUSH2 0xC26 JUMP JUMPDEST PUSH2 0x464 SWAP2 SWAP1 PUSH2 0xC97 JUMP JUMPDEST SWAP1 POP PUSH1 0x0 DUP6 DUP3 PUSH2 0x474 SWAP2 SWAP1 PUSH2 0xC97 JUMP JUMPDEST DUP8 PUSH2 0x47F SWAP2 SWAP1 PUSH2 0xCC8 JUMP JUMPDEST SWAP1 POP DUP1 PUSH1 0x5 PUSH2 0x48E SWAP2 SWAP1 PUSH2 0xC26 JUMP JUMPDEST DUP4 LT ISZERO PUSH2 0x4D0 JUMPI PUSH1 0x40 MLOAD PUSH32 0x8C379A000000000000000000000000000000000000000000000000000000000 DUP2 MSTORE PUSH1 0x4 ADD PUSH2 0x4C7 SWAP1 PUSH2 0xD94 JUMP JUMPDEST PUSH1 0x40 MLOAD DUP1 SWAP2 SUB SWAP1 REVERT JUMPDEST PUSH2 0x4D9 DUP8 PUSH2 0x685 JUMP JUMPDEST POP POP POP POP SWAP4 SWAP3 POP POP POP JUMP JUMPDEST DUP3 PUSH1 0x1 PUSH1 0x0 DUP7 PUSH20 0xFFFFFFFFFFFFFFFFFFFFFFFFFFFFFFFFFFFFFFFF AND PUSH20 0xFFFFFFFFFFFFFFFFFFFFFFFFFFFFFFFFFFFFFFFF AND DUP2 MSTORE PUSH1 0x20 ADD SWAP1 DUP2 MSTORE PUSH1 0x20 ADD PUSH1 0x0 KECCAK256 DUP2 SWAP1 SSTORE POP DUP2 PUSH1 0x2 PUSH1 0x0 DUP7 PUSH20 0xFFFFFFFFFFFFFFFFFFFFFFFFFFFFFFFFFFFFFFFF AND PUSH20 0xFFFFFFFFFFFFFFFFFFFFFFFFFFFFFFFFFFFFFFFF AND DUP2 MSTORE PUSH1 0x20 ADD SWAP1 DUP2 MSTORE PUSH1 0x20 ADD PUSH1 0x0 KECCAK256 DUP2 SWAP1 SSTORE POP DUP1 PUSH1 0x3 PUSH1 0x0 DUP7 PUSH20 0xFFFFFFFFFFFFFFFFFFFFFFFFFFFFFFFFFFFFFFFF AND PUSH20 0xFFFFFFFFFFFFFFFFFFFFFFFFFFFFFFFFFFFFFFFF AND DUP2 MSTORE PUSH1 0x20 ADD SWAP1 DUP2 MSTORE PUSH1 0x20 ADD PUSH1 0x0 KECCAK256 DUP2 SWAP1 SSTORE POP PUSH1 0x0 PUSH1 0x40 MLOAD DUP1 PUSH1 0x80 ADD PUSH1 0x40 MSTORE DUP1 DUP7 PUSH20 0xFFFFFFFFFFFFFFFFFFFFFFFFFFFFFFFFFFFFFFFF AND DUP2 MSTORE PUSH1 0x20 ADD DUP6 DUP2 MSTORE PUSH1 0x20 ADD DUP5 DUP2 MSTORE PUSH1 0x20 ADD DUP4 DUP2 MSTORE POP SWAP1 POP PUSH1 0x5 DUP2 SWAP1 DUP1 PUSH1 0x1 DUP2 SLOAD ADD DUP1 DUP3 SSTORE DUP1 SWAP2 POP POP PUSH1 0x1 SWAP1 SUB SWAP1 PUSH1 0x0 MSTORE PUSH1 0x20 PUSH1 0x0 KECCAK256 SWAP1 PUSH1 0x4 MUL ADD PUSH1 0x0 SWAP1 SWAP2 SWAP1 SWAP2 SWAP1 SWAP2 POP PUSH1 0x0 DUP3 ADD MLOAD DUP2 PUSH1 0x0 ADD PUSH1 0x0 PUSH2 0x100 EXP DUP2 SLOAD DUP2 PUSH20 0xFFFFFFFFFFFFFFFFFFFFFFFFFFFFFFFFFFFFFFFF MUL NOT AND SWAP1 DUP4 PUSH20 0xFFFFFFFFFFFFFFFFFFFFFFFFFFFFFFFFFFFFFFFF AND MUL OR SWAP1 SSTORE POP PUSH1 0x20 DUP3 ADD MLOAD DUP2 PUSH1 0x1 ADD SSTORE PUSH1 0x40 DUP3 ADD MLOAD DUP2 PUSH1 0x2 ADD SSTORE PUSH1 0x60 DUP3 ADD MLOAD DUP2 PUSH1 0x3 ADD SSTORE POP POP POP POP POP POP POP JUMP JUMPDEST DUP1 PUSH1 0x3 PUSH1 0x0 CALLER PUSH20 0xFFFFFFFFFFFFFFFFFFFFFFFFFFFFFFFFFFFFFFFF AND PUSH20 0xFFFFFFFFFFFFFFFFFFFFFFFFFFFFFFFFFFFFFFFF AND DUP2 MSTORE PUSH1 0x20 ADD SWAP1 DUP2 MSTORE PUSH1 0x20 ADD PUSH1 0x0 KECCAK256 PUSH1 0x0 DUP3 DUP3 SLOAD PUSH2 0x6D4 SWAP2 SWAP1 PUSH2 0xCC8 JUMP JUMPDEST SWAP3 POP POP DUP2 SWAP1 SSTORE POP DUP1 PUSH1 0x4 PUSH1 0x0 DUP3 DUP3 SLOAD PUSH2 0x6ED SWAP2 SWAP1 PUSH2 0xDB4 JUMP JUMPDEST SWAP3 POP POP DUP2 SWAP1 SSTORE POP PUSH1 0x0 DUP2 PUSH1 0x4 SLOAD PUSH2 0x704 SWAP2 SWAP1 PUSH2 0xDB4 JUMP JUMPDEST SWAP1 POP DUP1 DUP3 PUSH1 0x4 SLOAD PUSH2 0x715 SWAP2 SWAP1 PUSH2 0xDB4 JUMP JUMPDEST EQ PUSH2 0x755 JUMPI PUSH1 0x40 MLOAD PUSH32 0x8C379A000000000000000000000000000000000000000000000000000000000 DUP2 MSTORE PUSH1 0x4 ADD PUSH2 0x74C SWAP1 PUSH2 0xE34 JUMP JUMPDEST PUSH1 0x40 MLOAD DUP1 SWAP2 SUB SWAP1 REVERT JUMPDEST POP POP JUMP JUMPDEST PUSH1 0x3 PUSH1 0x20 MSTORE DUP1 PUSH1 0x0 MSTORE PUSH1 0x40 PUSH1 0x0 KECCAK256 PUSH1 0x0 SWAP2 POP SWAP1 POP SLOAD DUP2 JUMP JUMPDEST PUSH1 0x0 DUP1 PUSH1 0x2 PUSH1 0x0 CALLER PUSH20 0xFFFFFFFFFFFFFFFFFFFFFFFFFFFFFFFFFFFFFFFF AND PUSH20 0xFFFFFFFFFFFFFFFFFFFFFFFFFFFFFFFFFFFFFFFF AND DUP2 MSTORE PUSH1 0x20 ADD SWAP1 DUP2 MSTORE PUSH1 0x20 ADD PUSH1 0x0 KECCAK256 SLOAD SUB PUSH2 0x7F4 JUMPI PUSH1 0x40 MLOAD PUSH32 0x8C379A000000000000000000000000000000000000000000000000000000000 DUP2 MSTORE PUSH1 0x4 ADD PUSH2 0x7EB SWAP1 PUSH2 0xEA0 JUMP JUMPDEST PUSH1 0x40 MLOAD DUP1 SWAP2 SUB SWAP1 REVERT JUMPDEST PUSH1 0x2 PUSH1 0x0 CALLER PUSH20 0xFFFFFFFFFFFFFFFFFFFFFFFFFFFFFFFFFFFFFFFF AND PUSH20 0xFFFFFFFFFFFFFFFFFFFFFFFFFFFFFFFFFFFFFFFF AND DUP2 MSTORE PUSH1 0x20 ADD SWAP1 DUP2 MSTORE PUSH1 0x20 ADD PUSH1 0x0 KECCAK256 SLOAD SWAP1 POP SWAP1 JUMP JUMPDEST PUSH1 0x1 PUSH1 0x20 MSTORE DUP1 PUSH1 0x0 MSTORE PUSH1 0x40 PUSH1 0x0 KECCAK256 PUSH1 0x0 SWAP2 POP SWAP1 POP SLOAD DUP2 JUMP JUMPDEST PUSH1 0x0 DUP1 REVERT JUMPDEST PUSH1 0x0 PUSH20 0xFFFFFFFFFFFFFFFFFFFFFFFFFFFFFFFFFFFFFFFF DUP3 AND SWAP1 POP SWAP2 SWAP1 POP JUMP JUMPDEST PUSH1 0x0 PUSH2 0x881 DUP3 PUSH2 0x856 JUMP JUMPDEST SWAP1 POP SWAP2 SWAP1 POP JUMP JUMPDEST PUSH2 0x891 DUP2 PUSH2 0x876 JUMP JUMPDEST DUP2 EQ PUSH2 0x89C JUMPI PUSH1 0x0 DUP1 REVERT JUMPDEST POP JUMP JUMPDEST PUSH1 0x0 DUP2 CALLDATALOAD SWAP1 POP PUSH2 0x8AE DUP2 PUSH2 0x888 JUMP JUMPDEST SWAP3 SWAP2 POP POP JUMP JUMPDEST PUSH1 0x0 PUSH1 0x20 DUP3 DUP5 SUB SLT ISZERO PUSH2 0x8CA JUMPI PUSH2 0x8C9 PUSH2 0x851 JUMP JUMPDEST JUMPDEST PUSH1 0x0 PUSH2 0x8D8 DUP5 DUP3 DUP6 ADD PUSH2 0x89F JUMP JUMPDEST SWAP2 POP POP SWAP3 SWAP2 POP POP JUMP JUMPDEST PUSH1 0x0 DUP2 SWAP1 POP SWAP2 SWAP1 POP JUMP JUMPDEST PUSH2 0x8F4 DUP2 PUSH2 0x8E1 JUMP JUMPDEST DUP3 MSTORE POP POP JUMP JUMPDEST PUSH1 0x0 PUSH1 0x20 DUP3 ADD SWAP1 POP PUSH2 0x90F PUSH1 0x0 DUP4 ADD DUP5 PUSH2 0x8EB JUMP JUMPDEST SWAP3 SWAP2 POP POP JUMP JUMPDEST PUSH2 0x91E DUP2 PUSH2 0x8E1 JUMP JUMPDEST DUP2 EQ PUSH2 0x929 JUMPI PUSH1 0x0 DUP1 REVERT JUMPDEST POP JUMP JUMPDEST PUSH1 0x0 DUP2 CALLDATALOAD SWAP1 POP PUSH2 0x93B DUP2 PUSH2 0x915 JUMP JUMPDEST SWAP3 SWAP2 POP POP JUMP JUMPDEST PUSH1 0x0 PUSH1 0x20 DUP3 DUP5 SUB SLT ISZERO PUSH2 0x957 JUMPI PUSH2 0x956 PUSH2 0x851 JUMP JUMPDEST JUMPDEST PUSH1 0x0 PUSH2 0x965 DUP5 DUP3 DUP6 ADD PUSH2 0x92C JUMP JUMPDEST SWAP2 POP POP SWAP3 SWAP2 POP POP JUMP JUMPDEST PUSH2 0x977 DUP2 PUSH2 0x876 JUMP JUMPDEST DUP3 MSTORE POP POP JUMP JUMPDEST PUSH1 0x0 PUSH1 0x80 DUP3 ADD SWAP1 POP PUSH2 0x992 PUSH1 0x0 DUP4 ADD DUP8 PUSH2 0x96E JUMP JUMPDEST PUSH2 0x99F PUSH1 0x20 DUP4 ADD DUP7 PUSH2 0x8EB JUMP JUMPDEST PUSH2 0x9AC PUSH1 0x40 DUP4 ADD DUP6 PUSH2 0x8EB JUMP JUMPDEST PUSH2 0x9B9 PUSH1 0x60 DUP4 ADD DUP5 PUSH2 0x8EB JUMP JUMPDEST SWAP6 SWAP5 POP POP POP POP POP JUMP JUMPDEST PUSH1 0x0 DUP1 PUSH1 0x0 PUSH1 0x60 DUP5 DUP7 SUB SLT ISZERO PUSH2 0x9DB JUMPI PUSH2 0x9DA PUSH2 0x851 JUMP JUMPDEST JUMPDEST PUSH1 0x0 PUSH2 0x9E9 DUP7 DUP3 DUP8 ADD PUSH2 0x89F JUMP JUMPDEST SWAP4 POP POP PUSH1 0x20 PUSH2 0x9FA DUP7 DUP3 DUP8 ADD PUSH2 0x92C JUMP JUMPDEST SWAP3 POP POP PUSH1 0x40 PUSH2 0xA0B DUP7 DUP3 DUP8 ADD PUSH2 0x92C JUMP JUMPDEST SWAP2 POP POP SWAP3 POP SWAP3 POP SWAP3 JUMP JUMPDEST PUSH1 0x0 DUP1 PUSH1 0x0 DUP1 PUSH1 0x80 DUP6 DUP8 SUB SLT ISZERO PUSH2 0xA2F JUMPI PUSH2 0xA2E PUSH2 0x851 JUMP JUMPDEST JUMPDEST PUSH1 0x0 PUSH2 0xA3D DUP8 DUP3 DUP9 ADD PUSH2 0x89F JUMP JUMPDEST SWAP5 POP POP PUSH1 0x20 PUSH2 0xA4E DUP8 DUP3 DUP9 ADD PUSH2 0x92C JUMP JUMPDEST SWAP4 POP POP PUSH1 0x40 PUSH2 0xA5F DUP8 DUP3 DUP9 ADD PUSH2 0x92C JUMP JUMPDEST SWAP3 POP POP PUSH1 0x60 PUSH2 0xA70 DUP8 DUP3 DUP9 ADD PUSH2 0x92C JUMP JUMPDEST SWAP2 POP POP SWAP3 SWAP6 SWAP2 SWAP5 POP SWAP3 POP JUMP JUMPDEST PUSH1 0x0 DUP3 DUP3 MSTORE PUSH1 0x20 DUP3 ADD SWAP1 POP SWAP3 SWAP2 POP POP JUMP JUMPDEST PUSH32 0x4572726F722067657474696E6720796F7572206372656469742073636F726500 PUSH1 0x0 DUP3 ADD MSTORE POP JUMP JUMPDEST PUSH1 0x0 PUSH2 0xAC3 PUSH1 0x1F DUP4 PUSH2 0xA7C JUMP JUMPDEST SWAP2 POP PUSH2 0xACE DUP3 PUSH2 0xA8D JUMP JUMPDEST PUSH1 0x20 DUP3 ADD SWAP1 POP SWAP2 SWAP1 POP JUMP JUMPDEST PUSH1 0x0 PUSH1 0x20 DUP3 ADD SWAP1 POP DUP2 DUP2 SUB PUSH1 0x0 DUP4 ADD MSTORE PUSH2 0xAF2 DUP2 PUSH2 0xAB6 JUMP JUMPDEST SWAP1 POP SWAP2 SWAP1 POP JUMP JUMPDEST PUSH32 0x4372656469742073636F726520746F6F206C6F77000000000000000000000000 PUSH1 0x0 DUP3 ADD MSTORE POP JUMP JUMPDEST PUSH1 0x0 PUSH2 0xB2F PUSH1 0x14 DUP4 PUSH2 0xA7C JUMP JUMPDEST SWAP2 POP PUSH2 0xB3A DUP3 PUSH2 0xAF9 JUMP JUMPDEST PUSH1 0x20 DUP3 ADD SWAP1 POP SWAP2 SWAP1 POP JUMP JUMPDEST PUSH1 0x0 PUSH1 0x20 DUP3 ADD SWAP1 POP DUP2 DUP2 SUB PUSH1 0x0 DUP4 ADD MSTORE PUSH2 0xB5E DUP2 PUSH2 0xB22 JUMP JUMPDEST SWAP1 POP SWAP2 SWAP1 POP JUMP JUMPDEST PUSH32 0x596F752063616E6E6F74207265717565737420666F72207468697320616D6F75 PUSH1 0x0 DUP3 ADD MSTORE PUSH32 0x6E74000000000000000000000000000000000000000000000000000000000000 PUSH1 0x20 DUP3 ADD MSTORE POP JUMP JUMPDEST PUSH1 0x0 PUSH2 0xBC1 PUSH1 0x22 DUP4 PUSH2 0xA7C JUMP JUMPDEST SWAP2 POP PUSH2 0xBCC DUP3 PUSH2 0xB65 JUMP JUMPDEST PUSH1 0x40 DUP3 ADD SWAP1 POP SWAP2 SWAP1 POP JUMP JUMPDEST PUSH1 0x0 PUSH1 0x20 DUP3 ADD SWAP1 POP DUP2 DUP2 SUB PUSH1 0x0 DUP4 ADD MSTORE PUSH2 0xBF0 DUP2 PUSH2 0xBB4 JUMP JUMPDEST SWAP1 POP SWAP2 SWAP1 POP JUMP JUMPDEST PUSH32 0x4E487B7100000000000000000000000000000000000000000000000000000000 PUSH1 0x0 MSTORE PUSH1 0x11 PUSH1 0x4 MSTORE PUSH1 0x24 PUSH1 0x0 REVERT JUMPDEST PUSH1 0x0 PUSH2 0xC31 DUP3 PUSH2 0x8E1 JUMP JUMPDEST SWAP2 POP PUSH2 0xC3C DUP4 PUSH2 0x8E1 JUMP JUMPDEST SWAP3 POP DUP3 DUP3 MUL PUSH2 0xC4A DUP2 PUSH2 0x8E1 JUMP JUMPDEST SWAP2 POP DUP3 DUP3 DIV DUP5 EQ DUP4 ISZERO OR PUSH2 0xC61 JUMPI PUSH2 0xC60 PUSH2 0xBF7 JUMP JUMPDEST JUMPDEST POP SWAP3 SWAP2 POP POP JUMP JUMPDEST PUSH32 0x4E487B7100000000000000000000000000000000000000000000000000000000 PUSH1 0x0 MSTORE PUSH1 0x12 PUSH1 0x4 MSTORE PUSH1 0x24 PUSH1 0x0 REVERT JUMPDEST PUSH1 0x0 PUSH2 0xCA2 DUP3 PUSH2 0x8E1 JUMP JUMPDEST SWAP2 POP PUSH2 0xCAD DUP4 PUSH2 0x8E1 JUMP JUMPDEST SWAP3 POP DUP3 PUSH2 0xCBD JUMPI PUSH2 0xCBC PUSH2 0xC68 JUMP JUMPDEST JUMPDEST DUP3 DUP3 DIV SWAP1 POP SWAP3 SWAP2 POP POP JUMP JUMPDEST PUSH1 0x0 PUSH2 0xCD3 DUP3 PUSH2 0x8E1 JUMP JUMPDEST SWAP2 POP PUSH2 0xCDE DUP4 PUSH2 0x8E1 JUMP JUMPDEST SWAP3 POP DUP3 DUP3 ADD SWAP1 POP DUP1 DUP3 GT ISZERO PUSH2 0xCF6 JUMPI PUSH2 0xCF5 PUSH2 0xBF7 JUMP JUMPDEST JUMPDEST SWAP3 SWAP2 POP POP JUMP JUMPDEST PUSH32 0x596F75277265206E657420696E636F6D6520697320746F6F206C6F7720666F72 PUSH1 0x0 DUP3 ADD MSTORE PUSH32 0x2074686973206C6F616E20616D6F756E742E20547279207265647563696E6720 PUSH1 0x20 DUP3 ADD MSTORE PUSH32 0x697420796F7572206C6F616E2072657175657374000000000000000000000000 PUSH1 0x40 DUP3 ADD MSTORE POP JUMP JUMPDEST PUSH1 0x0 PUSH2 0xD7E PUSH1 0x54 DUP4 PUSH2 0xA7C JUMP JUMPDEST SWAP2 POP PUSH2 0xD89 DUP3 PUSH2 0xCFC JUMP JUMPDEST PUSH1 0x60 DUP3 ADD SWAP1 POP SWAP2 SWAP1 POP JUMP JUMPDEST PUSH1 0x0 PUSH1 0x20 DUP3 ADD SWAP1 POP DUP2 DUP2 SUB PUSH1 0x0 DUP4 ADD MSTORE PUSH2 0xDAD DUP2 PUSH2 0xD71 JUMP JUMPDEST SWAP1 POP SWAP2 SWAP1 POP JUMP JUMPDEST PUSH1 0x0 PUSH2 0xDBF DUP3 PUSH2 0x8E1 JUMP JUMPDEST SWAP2 POP PUSH2 0xDCA DUP4 PUSH2 0x8E1 JUMP JUMPDEST SWAP3 POP DUP3 DUP3 SUB SWAP1 POP DUP2 DUP2 GT ISZERO PUSH2 0xDE2 JUMPI PUSH2 0xDE1 PUSH2 0xBF7 JUMP JUMPDEST JUMPDEST SWAP3 SWAP2 POP POP JUMP JUMPDEST PUSH32 0x4572726F722073656E64696E672066756E647300000000000000000000000000 PUSH1 0x0 DUP3 ADD MSTORE POP JUMP JUMPDEST PUSH1 0x0 PUSH2 0xE1E PUSH1 0x13 DUP4 PUSH2 0xA7C JUMP JUMPDEST SWAP2 POP PUSH2 0xE29 DUP3 PUSH2 0xDE8 JUMP JUMPDEST PUSH1 0x20 DUP3 ADD SWAP1 POP SWAP2 SWAP1 POP JUMP JUMPDEST PUSH1 0x0 PUSH1 0x20 DUP3 ADD SWAP1 POP DUP2 DUP2 SUB PUSH1 0x0 DUP4 ADD MSTORE PUSH2 0xE4D DUP2 PUSH2 0xE11 JUMP JUMPDEST SWAP1 POP SWAP2 SWAP1 POP JUMP JUMPDEST PUSH32 0x4572726F722067657474696E6720796F7572206E657420696E636F6D65000000 PUSH1 0x0 DUP3 ADD MSTORE POP JUMP JUMPDEST PUSH1 0x0 PUSH2 0xE8A PUSH1 0x1D DUP4 PUSH2 0xA7C JUMP JUMPDEST SWAP2 POP PUSH2 0xE95 DUP3 PUSH2 0xE54 JUMP JUMPDEST PUSH1 0x20 DUP3 ADD SWAP1 POP SWAP2 SWAP1 POP JUMP JUMPDEST PUSH1 0x0 PUSH1 0x20 DUP3 ADD SWAP1 POP DUP2 DUP2 SUB PUSH1 0x0 DUP4 ADD MSTORE PUSH2 0xEB9 DUP2 PUSH2 0xE7D JUMP JUMPDEST SWAP1 POP SWAP2 SWAP1 POP JUMP INVALID LOG2 PUSH5 0x6970667358 0x22 SLT KECCAK256 0xBE 0x2F 0x4D 0x4C SWAP7 CALLDATACOPY KECCAK256 STATICCALL DELEGATECALL MULMOD 0x2D SSTORE 0xCF PUSH17 0x6DF7634FBEDD769A0FE2DCA79E603BC43B CALLDATACOPY PUSH5 0x736F6C6343 STOP ADDMOD SGT STOP CALLER "
				},
				"gasEstimates": {
					"creation": {
						"codeDepositCost": "766000",
						"executionCost": "22913",
						"totalCost": "788913"
					},
					"external": {
						"addCustomer(address,uint256,uint256,uint256)": "infinite",
						"creditScore(address)": "2902",
						"customerArray(uint256)": "infinite",
						"customer_balance(address)": "2858",
						"customer_netIncomepm(address)": "2815",
						"getCreditScore()": "4783",
						"getNetIncome()": "4804",
						"requestLoan(address,uint256,uint256)": "infinite",
						"sendFunds(uint256)": "infinite"
					}
				},
				"methodIdentifiers": {
					"addCustomer(address,uint256,uint256,uint256)": "79621078",
					"creditScore(address)": "f7e590ee",
					"customerArray(uint256)": "24b7eb8c",
					"customer_balance(address)": "90d8925f",
					"customer_netIncomepm(address)": "0fd89277",
					"getCreditScore()": "5da19538",
					"getNetIncome()": "9244dd74",
					"requestLoan(address,uint256,uint256)": "6f77ff55",
					"sendFunds(uint256)": "8b281018"
				}
			},
			"storageLayout": {
				"storage": [
					{
						"astId": 3,
						"contract": "contracts/Loanify_New.sol:Loanify",
						"label": "customerAddress",
						"offset": 0,
						"slot": "0",
						"type": "t_address"
					},
					{
						"astId": 7,
						"contract": "contracts/Loanify_New.sol:Loanify",
						"label": "creditScore",
						"offset": 0,
						"slot": "1",
						"type": "t_mapping(t_address,t_uint256)"
					},
					{
						"astId": 11,
						"contract": "contracts/Loanify_New.sol:Loanify",
						"label": "customer_netIncomepm",
						"offset": 0,
						"slot": "2",
						"type": "t_mapping(t_address,t_uint256)"
					},
					{
						"astId": 15,
						"contract": "contracts/Loanify_New.sol:Loanify",
						"label": "customer_balance",
						"offset": 0,
						"slot": "3",
						"type": "t_mapping(t_address,t_uint256)"
					},
					{
						"astId": 17,
						"contract": "contracts/Loanify_New.sol:Loanify",
						"label": "contract_balance",
						"offset": 0,
						"slot": "4",
						"type": "t_uint256"
					},
					{
						"astId": 38,
						"contract": "contracts/Loanify_New.sol:Loanify",
						"label": "customerArray",
						"offset": 0,
						"slot": "5",
						"type": "t_array(t_struct(CustomerSchema)26_storage)dyn_storage"
					}
				],
				"types": {
					"t_address": {
						"encoding": "inplace",
						"label": "address",
						"numberOfBytes": "20"
					},
					"t_array(t_struct(CustomerSchema)26_storage)dyn_storage": {
						"base": "t_struct(CustomerSchema)26_storage",
						"encoding": "dynamic_array",
						"label": "struct Loanify.CustomerSchema[]",
						"numberOfBytes": "32"
					},
					"t_mapping(t_address,t_uint256)": {
						"encoding": "mapping",
						"key": "t_address",
						"label": "mapping(address => uint256)",
						"numberOfBytes": "32",
						"value": "t_uint256"
					},
					"t_struct(CustomerSchema)26_storage": {
						"encoding": "inplace",
						"label": "struct Loanify.CustomerSchema",
						"members": [
							{
								"astId": 19,
								"contract": "contracts/Loanify_New.sol:Loanify",
								"label": "customerAddress",
								"offset": 0,
								"slot": "0",
								"type": "t_address"
							},
							{
								"astId": 21,
								"contract": "contracts/Loanify_New.sol:Loanify",
								"label": "creditScore",
								"offset": 0,
								"slot": "1",
								"type": "t_uint256"
							},
							{
								"astId": 23,
								"contract": "contracts/Loanify_New.sol:Loanify",
								"label": "customer_netIncomepm",
								"offset": 0,
								"slot": "2",
								"type": "t_uint256"
							},
							{
								"astId": 25,
								"contract": "contracts/Loanify_New.sol:Loanify",
								"label": "customer_balance",
								"offset": 0,
								"slot": "3",
								"type": "t_uint256"
							}
						],
						"numberOfBytes": "128"
					},
					"t_uint256": {
						"encoding": "inplace",
						"label": "uint256",
						"numberOfBytes": "32"
					}
				}
			},
			"userdoc": {
				"kind": "user",
				"methods": {},
				"version": 1
			}
		}
	}
}