{
	"contracts/Loanify_New.sol": {
		"Loanify": {
			"abi": [
				{
					"inputs": [],
					"stateMutability": "nonpayable",
					"type": "constructor"
				},
				{
					"inputs": [
						{
							"internalType": "address",
							"name": "_customer",
							"type": "address"
						},
						{
							"internalType": "uint256",
							"name": "_creditScore",
							"type": "uint256"
						},
						{
							"internalType": "uint256",
							"name": "_netIncome",
							"type": "uint256"
						},
						{
							"internalType": "uint256",
							"name": "_customer_balance",
							"type": "uint256"
						}
					],
					"name": "addCustomer",
					"outputs": [],
					"stateMutability": "nonpayable",
					"type": "function"
				},
				{
					"inputs": [
						{
							"internalType": "address",
							"name": "",
							"type": "address"
						}
					],
					"name": "creditScore",
					"outputs": [
						{
							"internalType": "uint256",
							"name": "",
							"type": "uint256"
						}
					],
					"stateMutability": "view",
					"type": "function"
				},
				{
					"inputs": [
						{
							"internalType": "uint256",
							"name": "",
							"type": "uint256"
						}
					],
					"name": "customerArray",
					"outputs": [
						{
							"internalType": "address",
							"name": "customerAddress",
							"type": "address"
						},
						{
							"internalType": "uint256",
							"name": "creditScore",
							"type": "uint256"
						},
						{
							"internalType": "uint256",
							"name": "customer_netIncomepm",
							"type": "uint256"
						},
						{
							"internalType": "uint256",
							"name": "customer_balance",
							"type": "uint256"
						}
					],
					"stateMutability": "view",
					"type": "function"
				},
				{
					"inputs": [
						{
							"internalType": "address",
							"name": "",
							"type": "address"
						}
					],
					"name": "customer_balance",
					"outputs": [
						{
							"internalType": "uint256",
							"name": "",
							"type": "uint256"
						}
					],
					"stateMutability": "view",
					"type": "function"
				},
				{
					"inputs": [
						{
							"internalType": "address",
							"name": "",
							"type": "address"
						}
					],
					"name": "customer_netIncomepm",
					"outputs": [
						{
							"internalType": "uint256",
							"name": "",
							"type": "uint256"
						}
					],
					"stateMutability": "view",
					"type": "function"
				},
				{
					"inputs": [],
					"name": "getCreditScore",
					"outputs": [
						{
							"internalType": "uint256",
							"name": "",
							"type": "uint256"
						}
					],
					"stateMutability": "view",
					"type": "function"
				},
				{
					"inputs": [],
					"name": "getNetIncome",
					"outputs": [
						{
							"internalType": "uint256",
							"name": "",
							"type": "uint256"
						}
					],
					"stateMutability": "view",
					"type": "function"
				},
				{
					"inputs": [
						{
							"internalType": "address",
							"name": "_customer",
							"type": "address"
						},
						{
							"internalType": "uint256",
							"name": "loan_amount",
							"type": "uint256"
						},
						{
							"internalType": "uint256",
							"name": "loan_duration",
							"type": "uint256"
						}
					],
					"name": "requestLoan",
					"outputs": [
						{
							"internalType": "uint256",
							"name": "",
							"type": "uint256"
						}
					],
					"stateMutability": "nonpayable",
					"type": "function"
				}
			],
			"devdoc": {
				"kind": "dev",
				"methods": {},
				"version": 1
			},
			"evm": {
				"assembly": "    /* \"contracts/Loanify_New.sol\":56:2589  contract Loanify{... */\n  mstore(0x40, 0x80)\n    /* \"contracts/Loanify_New.sol\":513:650  constructor(){... */\n  callvalue\n  dup1\n  iszero\n  tag_1\n  jumpi\n  0x00\n  dup1\n  revert\ntag_1:\n  pop\n    /* \"contracts/Loanify_New.sol\":630:633  100 */\n  0x64\n    /* \"contracts/Loanify_New.sol\":611:627  contract_balance */\n  0x04\n    /* \"contracts/Loanify_New.sol\":611:633  contract_balance = 100 */\n  dup2\n  swap1\n  sstore\n  pop\n    /* \"contracts/Loanify_New.sol\":56:2589  contract Loanify{... */\n  dataSize(sub_0)\n  dup1\n  dataOffset(sub_0)\n  0x00\n  codecopy\n  0x00\n  return\nstop\n\nsub_0: assembly {\n        /* \"contracts/Loanify_New.sol\":56:2589  contract Loanify{... */\n      mstore(0x40, 0x80)\n      callvalue\n      dup1\n      iszero\n      tag_1\n      jumpi\n      0x00\n      dup1\n      revert\n    tag_1:\n      pop\n      jumpi(tag_2, lt(calldatasize, 0x04))\n      shr(0xe0, calldataload(0x00))\n      dup1\n      0x79621078\n      gt\n      tag_11\n      jumpi\n      dup1\n      0x79621078\n      eq\n      tag_7\n      jumpi\n      dup1\n      0x90d8925f\n      eq\n      tag_8\n      jumpi\n      dup1\n      0x9244dd74\n      eq\n      tag_9\n      jumpi\n      dup1\n      0xf7e590ee\n      eq\n      tag_10\n      jumpi\n      jump(tag_2)\n    tag_11:\n      dup1\n      0x0fd89277\n      eq\n      tag_3\n      jumpi\n      dup1\n      0x24b7eb8c\n      eq\n      tag_4\n      jumpi\n      dup1\n      0x5da19538\n      eq\n      tag_5\n      jumpi\n      dup1\n      0x6f77ff55\n      eq\n      tag_6\n      jumpi\n    tag_2:\n      0x00\n      dup1\n      revert\n        /* \"contracts/Loanify_New.sol\":159:214  mapping(address => uint256) public customer_netIncomepm */\n    tag_3:\n      tag_12\n      0x04\n      dup1\n      calldatasize\n      sub\n      dup2\n      add\n      swap1\n      tag_13\n      swap2\n      swap1\n      tag_14\n      jump\t// in\n    tag_13:\n      tag_15\n      jump\t// in\n    tag_12:\n      mload(0x40)\n      tag_16\n      swap2\n      swap1\n      tag_17\n      jump\t// in\n    tag_16:\n      mload(0x40)\n      dup1\n      swap2\n      sub\n      swap1\n      return\n        /* \"contracts/Loanify_New.sol\":656:693  CustomerSchema[] public customerArray */\n    tag_4:\n      tag_18\n      0x04\n      dup1\n      calldatasize\n      sub\n      dup2\n      add\n      swap1\n      tag_19\n      swap2\n      swap1\n      tag_20\n      jump\t// in\n    tag_19:\n      tag_21\n      jump\t// in\n    tag_18:\n      mload(0x40)\n      tag_22\n      swap5\n      swap4\n      swap3\n      swap2\n      swap1\n      tag_23\n      jump\t// in\n    tag_22:\n      mload(0x40)\n      dup1\n      swap2\n      sub\n      swap1\n      return\n        /* \"contracts/Loanify_New.sol\":1482:1668  function getCreditScore() public view returns (uint256) {... */\n    tag_5:\n      tag_24\n      tag_25\n      jump\t// in\n    tag_24:\n      mload(0x40)\n      tag_26\n      swap2\n      swap1\n      tag_17\n      jump\t// in\n    tag_26:\n      mload(0x40)\n      dup1\n      swap2\n      sub\n      swap1\n      return\n        /* \"contracts/Loanify_New.sol\":1880:2579  function requestLoan(address _customer, uint256 loan_amount, uint256 loan_duration) public returns(uint256){... */\n    tag_6:\n      tag_27\n      0x04\n      dup1\n      calldatasize\n      sub\n      dup2\n      add\n      swap1\n      tag_28\n      swap2\n      swap1\n      tag_29\n      jump\t// in\n    tag_28:\n      tag_30\n      jump\t// in\n    tag_27:\n      mload(0x40)\n      tag_31\n      swap2\n      swap1\n      tag_17\n      jump\t// in\n    tag_31:\n      mload(0x40)\n      dup1\n      swap2\n      sub\n      swap1\n      return\n        /* \"contracts/Loanify_New.sol\":778:1476  function addCustomer(address _customer, uint256 _creditScore, uint256 _netIncome, uint256 _customer_balance) public {... */\n    tag_7:\n      tag_32\n      0x04\n      dup1\n      calldatasize\n      sub\n      dup2\n      add\n      swap1\n      tag_33\n      swap2\n      swap1\n      tag_34\n      jump\t// in\n    tag_33:\n      tag_35\n      jump\t// in\n    tag_32:\n      stop\n        /* \"contracts/Loanify_New.sol\":220:271  mapping(address => uint256) public customer_balance */\n    tag_8:\n      tag_36\n      0x04\n      dup1\n      calldatasize\n      sub\n      dup2\n      add\n      swap1\n      tag_37\n      swap2\n      swap1\n      tag_14\n      jump\t// in\n    tag_37:\n      tag_38\n      jump\t// in\n    tag_36:\n      mload(0x40)\n      tag_39\n      swap2\n      swap1\n      tag_17\n      jump\t// in\n    tag_39:\n      mload(0x40)\n      dup1\n      swap2\n      sub\n      swap1\n      return\n        /* \"contracts/Loanify_New.sol\":1674:1874  function getNetIncome() public view returns (uint256) {... */\n    tag_9:\n      tag_40\n      tag_41\n      jump\t// in\n    tag_40:\n      mload(0x40)\n      tag_42\n      swap2\n      swap1\n      tag_17\n      jump\t// in\n    tag_42:\n      mload(0x40)\n      dup1\n      swap2\n      sub\n      swap1\n      return\n        /* \"contracts/Loanify_New.sol\":107:153  mapping(address => uint256) public creditScore */\n    tag_10:\n      tag_43\n      0x04\n      dup1\n      calldatasize\n      sub\n      dup2\n      add\n      swap1\n      tag_44\n      swap2\n      swap1\n      tag_14\n      jump\t// in\n    tag_44:\n      tag_45\n      jump\t// in\n    tag_43:\n      mload(0x40)\n      tag_46\n      swap2\n      swap1\n      tag_17\n      jump\t// in\n    tag_46:\n      mload(0x40)\n      dup1\n      swap2\n      sub\n      swap1\n      return\n        /* \"contracts/Loanify_New.sol\":159:214  mapping(address => uint256) public customer_netIncomepm */\n    tag_15:\n      mstore(0x20, 0x02)\n      dup1\n      0x00\n      mstore\n      keccak256(0x00, 0x40)\n      0x00\n      swap2\n      pop\n      swap1\n      pop\n      sload\n      dup2\n      jump\t// out\n        /* \"contracts/Loanify_New.sol\":656:693  CustomerSchema[] public customerArray */\n    tag_21:\n      0x05\n      dup2\n      dup2\n      sload\n      dup2\n      lt\n      tag_47\n      jumpi\n      0x00\n      dup1\n      revert\n    tag_47:\n      swap1\n      0x00\n      mstore\n      keccak256(0x00, 0x20)\n      swap1\n      0x04\n      mul\n      add\n      0x00\n      swap2\n      pop\n      swap1\n      pop\n      dup1\n      0x00\n      add\n      0x00\n      swap1\n      sload\n      swap1\n      0x0100\n      exp\n      swap1\n      div\n      0xffffffffffffffffffffffffffffffffffffffff\n      and\n      swap1\n      dup1\n      0x01\n      add\n      sload\n      swap1\n      dup1\n      0x02\n      add\n      sload\n      swap1\n      dup1\n      0x03\n      add\n      sload\n      swap1\n      pop\n      dup5\n      jump\t// out\n        /* \"contracts/Loanify_New.sol\":1482:1668  function getCreditScore() public view returns (uint256) {... */\n    tag_25:\n        /* \"contracts/Loanify_New.sol\":1529:1536  uint256 */\n      0x00\n        /* \"contracts/Loanify_New.sol\":1584:1585  0 */\n      dup1\n        /* \"contracts/Loanify_New.sol\":1557:1568  creditScore */\n      0x01\n        /* \"contracts/Loanify_New.sol\":1557:1580  creditScore[msg.sender] */\n      0x00\n        /* \"contracts/Loanify_New.sol\":1569:1579  msg.sender */\n      caller\n        /* \"contracts/Loanify_New.sol\":1557:1580  creditScore[msg.sender] */\n      0xffffffffffffffffffffffffffffffffffffffff\n      and\n      0xffffffffffffffffffffffffffffffffffffffff\n      and\n      dup2\n      mstore\n      0x20\n      add\n      swap1\n      dup2\n      mstore\n      0x20\n      add\n      0x00\n      keccak256\n      sload\n        /* \"contracts/Loanify_New.sol\":1557:1585  creditScore[msg.sender] != 0 */\n      sub\n        /* \"contracts/Loanify_New.sol\":1549:1620  require(creditScore[msg.sender] != 0,\"Error getting your credit score\") */\n      tag_50\n      jumpi\n      mload(0x40)\n      0x08c379a000000000000000000000000000000000000000000000000000000000\n      dup2\n      mstore\n      0x04\n      add\n      tag_51\n      swap1\n      tag_52\n      jump\t// in\n    tag_51:\n      mload(0x40)\n      dup1\n      swap2\n      sub\n      swap1\n      revert\n    tag_50:\n        /* \"contracts/Loanify_New.sol\":1637:1648  creditScore */\n      0x01\n        /* \"contracts/Loanify_New.sol\":1637:1660  creditScore[msg.sender] */\n      0x00\n        /* \"contracts/Loanify_New.sol\":1649:1659  msg.sender */\n      caller\n        /* \"contracts/Loanify_New.sol\":1637:1660  creditScore[msg.sender] */\n      0xffffffffffffffffffffffffffffffffffffffff\n      and\n      0xffffffffffffffffffffffffffffffffffffffff\n      and\n      dup2\n      mstore\n      0x20\n      add\n      swap1\n      dup2\n      mstore\n      0x20\n      add\n      0x00\n      keccak256\n      sload\n        /* \"contracts/Loanify_New.sol\":1630:1660  return creditScore[msg.sender] */\n      swap1\n      pop\n        /* \"contracts/Loanify_New.sol\":1482:1668  function getCreditScore() public view returns (uint256) {... */\n      swap1\n      jump\t// out\n        /* \"contracts/Loanify_New.sol\":1880:2579  function requestLoan(address _customer, uint256 loan_amount, uint256 loan_duration) public returns(uint256){... */\n    tag_30:\n        /* \"contracts/Loanify_New.sol\":1979:1986  uint256 */\n      0x00\n        /* \"contracts/Loanify_New.sol\":2002:2016  uint256 credit */\n      dup1\n        /* \"contracts/Loanify_New.sol\":2019:2035  getCreditScore() */\n      tag_54\n        /* \"contracts/Loanify_New.sol\":2019:2033  getCreditScore */\n      tag_25\n        /* \"contracts/Loanify_New.sol\":2019:2035  getCreditScore() */\n      jump\t// in\n    tag_54:\n        /* \"contracts/Loanify_New.sol\":2002:2035  uint256 credit = getCreditScore() */\n      swap1\n      pop\n        /* \"contracts/Loanify_New.sol\":2049:2060  uint256 net */\n      0x00\n        /* \"contracts/Loanify_New.sol\":2063:2077  getNetIncome() */\n      tag_55\n        /* \"contracts/Loanify_New.sol\":2063:2075  getNetIncome */\n      tag_41\n        /* \"contracts/Loanify_New.sol\":2063:2077  getNetIncome() */\n      jump\t// in\n    tag_55:\n        /* \"contracts/Loanify_New.sol\":2049:2077  uint256 net = getNetIncome() */\n      swap1\n      pop\n        /* \"contracts/Loanify_New.sol\":2110:2113  350 */\n      0x015e\n        /* \"contracts/Loanify_New.sol\":2100:2106  credit */\n      dup3\n        /* \"contracts/Loanify_New.sol\":2100:2113  credit >= 350 */\n      lt\n      iszero\n        /* \"contracts/Loanify_New.sol\":2092:2139  require(credit >= 350 , \"Credit score too low\") */\n      tag_56\n      jumpi\n      mload(0x40)\n      0x08c379a000000000000000000000000000000000000000000000000000000000\n      dup2\n      mstore\n      0x04\n      add\n      tag_57\n      swap1\n      tag_58\n      jump\t// in\n    tag_57:\n      mload(0x40)\n      dup1\n      swap2\n      sub\n      swap1\n      revert\n    tag_56:\n        /* \"contracts/Loanify_New.sol\":2176:2192  contract_balance */\n      sload(0x04)\n        /* \"contracts/Loanify_New.sol\":2161:2172  loan_amount */\n      dup6\n        /* \"contracts/Loanify_New.sol\":2161:2192  loan_amount <= contract_balance */\n      gt\n      iszero\n        /* \"contracts/Loanify_New.sol\":2153:2232  require(loan_amount <= contract_balance , \"You cannot request for this amount\") */\n      tag_59\n      jumpi\n      mload(0x40)\n      0x08c379a000000000000000000000000000000000000000000000000000000000\n      dup2\n      mstore\n      0x04\n      add\n      tag_60\n      swap1\n      tag_61\n      jump\t// in\n    tag_60:\n      mload(0x40)\n      dup1\n      swap2\n      sub\n      swap1\n      revert\n    tag_59:\n        /* \"contracts/Loanify_New.sol\":2247:2263  uint256 interest */\n      0x00\n        /* \"contracts/Loanify_New.sol\":2302:2306  1200 */\n      0x04b0\n        /* \"contracts/Loanify_New.sol\":2297:2298  5 */\n      0x05\n        /* \"contracts/Loanify_New.sol\":2281:2294  loan_duration */\n      dup7\n        /* \"contracts/Loanify_New.sol\":2267:2278  loan_amount */\n      dup9\n        /* \"contracts/Loanify_New.sol\":2267:2294  loan_amount * loan_duration */\n      tag_62\n      swap2\n      swap1\n      tag_63\n      jump\t// in\n    tag_62:\n        /* \"contracts/Loanify_New.sol\":2267:2298  loan_amount * loan_duration * 5 */\n      tag_64\n      swap2\n      swap1\n      tag_63\n      jump\t// in\n    tag_64:\n        /* \"contracts/Loanify_New.sol\":2266:2306  (loan_amount * loan_duration * 5) / 1200 */\n      tag_65\n      swap2\n      swap1\n      tag_66\n      jump\t// in\n    tag_65:\n        /* \"contracts/Loanify_New.sol\":2247:2306  uint256 interest = (loan_amount * loan_duration * 5) / 1200 */\n      swap1\n      pop\n        /* \"contracts/Loanify_New.sol\":2320:2339  uint256 repaymentpm */\n      0x00\n        /* \"contracts/Loanify_New.sol\":2366:2379  loan_duration */\n      dup6\n        /* \"contracts/Loanify_New.sol\":2356:2364  interest */\n      dup3\n        /* \"contracts/Loanify_New.sol\":2356:2379  interest/ loan_duration */\n      tag_67\n      swap2\n      swap1\n      tag_66\n      jump\t// in\n    tag_67:\n        /* \"contracts/Loanify_New.sol\":2342:2353  loan_amount */\n      dup8\n        /* \"contracts/Loanify_New.sol\":2342:2379  loan_amount + interest/ loan_duration */\n      tag_68\n      swap2\n      swap1\n      tag_69\n      jump\t// in\n    tag_68:\n        /* \"contracts/Loanify_New.sol\":2320:2379  uint256 repaymentpm = loan_amount + interest/ loan_duration */\n      swap1\n      pop\n        /* \"contracts/Loanify_New.sol\":2413:2424  repaymentpm */\n      dup1\n        /* \"contracts/Loanify_New.sol\":2409:2410  5 */\n      0x05\n        /* \"contracts/Loanify_New.sol\":2409:2424  5 * repaymentpm */\n      tag_70\n      swap2\n      swap1\n      tag_63\n      jump\t// in\n    tag_70:\n        /* \"contracts/Loanify_New.sol\":2402:2405  net */\n      dup4\n        /* \"contracts/Loanify_New.sol\":2402:2424  net >= 5 * repaymentpm */\n      lt\n      iszero\n        /* \"contracts/Loanify_New.sol\":2394:2514  require(net >= 5 * repaymentpm , \"You're net income is too low for this loan amount. Try reducing it your loan request\") */\n      tag_71\n      jumpi\n      mload(0x40)\n      0x08c379a000000000000000000000000000000000000000000000000000000000\n      dup2\n      mstore\n      0x04\n      add\n      tag_72\n      swap1\n      tag_73\n      jump\t// in\n    tag_72:\n      mload(0x40)\n      dup1\n      swap2\n      sub\n      swap1\n      revert\n    tag_71:\n        /* \"contracts/Loanify_New.sol\":1987:2579  {... */\n      pop\n      pop\n      pop\n      pop\n        /* \"contracts/Loanify_New.sol\":1880:2579  function requestLoan(address _customer, uint256 loan_amount, uint256 loan_duration) public returns(uint256){... */\n      swap4\n      swap3\n      pop\n      pop\n      pop\n      jump\t// out\n        /* \"contracts/Loanify_New.sol\":778:1476  function addCustomer(address _customer, uint256 _creditScore, uint256 _netIncome, uint256 _customer_balance) public {... */\n    tag_35:\n        /* \"contracts/Loanify_New.sol\":988:1000  _creditScore */\n      dup3\n        /* \"contracts/Loanify_New.sol\":963:974  creditScore */\n      0x01\n        /* \"contracts/Loanify_New.sol\":963:985  creditScore[_customer] */\n      0x00\n        /* \"contracts/Loanify_New.sol\":975:984  _customer */\n      dup7\n        /* \"contracts/Loanify_New.sol\":963:985  creditScore[_customer] */\n      0xffffffffffffffffffffffffffffffffffffffff\n      and\n      0xffffffffffffffffffffffffffffffffffffffff\n      and\n      dup2\n      mstore\n      0x20\n      add\n      swap1\n      dup2\n      mstore\n      0x20\n      add\n      0x00\n      keccak256\n        /* \"contracts/Loanify_New.sol\":963:1000  creditScore[_customer] = _creditScore */\n      dup2\n      swap1\n      sstore\n      pop\n        /* \"contracts/Loanify_New.sol\":1044:1054  _netIncome */\n      dup2\n        /* \"contracts/Loanify_New.sol\":1010:1030  customer_netIncomepm */\n      0x02\n        /* \"contracts/Loanify_New.sol\":1010:1041  customer_netIncomepm[_customer] */\n      0x00\n        /* \"contracts/Loanify_New.sol\":1031:1040  _customer */\n      dup7\n        /* \"contracts/Loanify_New.sol\":1010:1041  customer_netIncomepm[_customer] */\n      0xffffffffffffffffffffffffffffffffffffffff\n      and\n      0xffffffffffffffffffffffffffffffffffffffff\n      and\n      dup2\n      mstore\n      0x20\n      add\n      swap1\n      dup2\n      mstore\n      0x20\n      add\n      0x00\n      keccak256\n        /* \"contracts/Loanify_New.sol\":1010:1054  customer_netIncomepm[_customer] = _netIncome */\n      dup2\n      swap1\n      sstore\n      pop\n        /* \"contracts/Loanify_New.sol\":1094:1111  _customer_balance */\n      dup1\n        /* \"contracts/Loanify_New.sol\":1064:1080  customer_balance */\n      0x03\n        /* \"contracts/Loanify_New.sol\":1064:1091  customer_balance[_customer] */\n      0x00\n        /* \"contracts/Loanify_New.sol\":1081:1090  _customer */\n      dup7\n        /* \"contracts/Loanify_New.sol\":1064:1091  customer_balance[_customer] */\n      0xffffffffffffffffffffffffffffffffffffffff\n      and\n      0xffffffffffffffffffffffffffffffffffffffff\n      and\n      dup2\n      mstore\n      0x20\n      add\n      swap1\n      dup2\n      mstore\n      0x20\n      add\n      0x00\n      keccak256\n        /* \"contracts/Loanify_New.sol\":1064:1111  customer_balance[_customer] = _customer_balance */\n      dup2\n      swap1\n      sstore\n      pop\n        /* \"contracts/Loanify_New.sol\":1191:1224  CustomerSchema memory newCustomer */\n      0x00\n        /* \"contracts/Loanify_New.sol\":1227:1427  CustomerSchema({... */\n      mload(0x40)\n      dup1\n      0x80\n      add\n      0x40\n      mstore\n      dup1\n        /* \"contracts/Loanify_New.sol\":1273:1282  _customer */\n      dup7\n        /* \"contracts/Loanify_New.sol\":1227:1427  CustomerSchema({... */\n      0xffffffffffffffffffffffffffffffffffffffff\n      and\n      dup2\n      mstore\n      0x20\n      add\n        /* \"contracts/Loanify_New.sol\":1309:1321  _creditScore */\n      dup6\n        /* \"contracts/Loanify_New.sol\":1227:1427  CustomerSchema({... */\n      dup2\n      mstore\n      0x20\n      add\n        /* \"contracts/Loanify_New.sol\":1406:1416  _netIncome */\n      dup5\n        /* \"contracts/Loanify_New.sol\":1227:1427  CustomerSchema({... */\n      dup2\n      mstore\n      0x20\n      add\n        /* \"contracts/Loanify_New.sol\":1353:1370  _customer_balance */\n      dup4\n        /* \"contracts/Loanify_New.sol\":1227:1427  CustomerSchema({... */\n      dup2\n      mstore\n      pop\n        /* \"contracts/Loanify_New.sol\":1191:1427  CustomerSchema memory newCustomer = CustomerSchema({... */\n      swap1\n      pop\n        /* \"contracts/Loanify_New.sol\":1438:1451  customerArray */\n      0x05\n        /* \"contracts/Loanify_New.sol\":1457:1468  newCustomer */\n      dup2\n        /* \"contracts/Loanify_New.sol\":1438:1469  customerArray.push(newCustomer) */\n      swap1\n      dup1\n      0x01\n      dup2\n      sload\n      add\n      dup1\n      dup3\n      sstore\n      dup1\n      swap2\n      pop\n      pop\n      0x01\n      swap1\n      sub\n      swap1\n      0x00\n      mstore\n      keccak256(0x00, 0x20)\n      swap1\n      0x04\n      mul\n      add\n      0x00\n      swap1\n      swap2\n      swap1\n      swap2\n      swap1\n      swap2\n      pop\n      0x00\n      dup3\n      add\n      mload\n      dup2\n      0x00\n      add\n      exp(0x0100, 0x00)\n      dup2\n      sload\n      dup2\n      0xffffffffffffffffffffffffffffffffffffffff\n      mul\n      not\n      and\n      swap1\n      dup4\n      0xffffffffffffffffffffffffffffffffffffffff\n      and\n      mul\n      or\n      swap1\n      sstore\n      pop\n      0x20\n      dup3\n      add\n      mload\n      dup2\n      0x01\n      add\n      sstore\n      0x40\n      dup3\n      add\n      mload\n      dup2\n      0x02\n      add\n      sstore\n      0x60\n      dup3\n      add\n      mload\n      dup2\n      0x03\n      add\n      sstore\n      pop\n      pop\n        /* \"contracts/Loanify_New.sol\":894:1476  {... */\n      pop\n        /* \"contracts/Loanify_New.sol\":778:1476  function addCustomer(address _customer, uint256 _creditScore, uint256 _netIncome, uint256 _customer_balance) public {... */\n      pop\n      pop\n      pop\n      pop\n      jump\t// out\n        /* \"contracts/Loanify_New.sol\":220:271  mapping(address => uint256) public customer_balance */\n    tag_38:\n      mstore(0x20, 0x03)\n      dup1\n      0x00\n      mstore\n      keccak256(0x00, 0x40)\n      0x00\n      swap2\n      pop\n      swap1\n      pop\n      sload\n      dup2\n      jump\t// out\n        /* \"contracts/Loanify_New.sol\":1674:1874  function getNetIncome() public view returns (uint256) {... */\n    tag_41:\n        /* \"contracts/Loanify_New.sol\":1719:1726  uint256 */\n      0x00\n        /* \"contracts/Loanify_New.sol\":1783:1784  0 */\n      dup1\n        /* \"contracts/Loanify_New.sol\":1747:1767  customer_netIncomepm */\n      0x02\n        /* \"contracts/Loanify_New.sol\":1747:1779  customer_netIncomepm[msg.sender] */\n      0x00\n        /* \"contracts/Loanify_New.sol\":1768:1778  msg.sender */\n      caller\n        /* \"contracts/Loanify_New.sol\":1747:1779  customer_netIncomepm[msg.sender] */\n      0xffffffffffffffffffffffffffffffffffffffff\n      and\n      0xffffffffffffffffffffffffffffffffffffffff\n      and\n      dup2\n      mstore\n      0x20\n      add\n      swap1\n      dup2\n      mstore\n      0x20\n      add\n      0x00\n      keccak256\n      sload\n        /* \"contracts/Loanify_New.sol\":1747:1784  customer_netIncomepm[msg.sender] != 0 */\n      sub\n        /* \"contracts/Loanify_New.sol\":1739:1817  require(customer_netIncomepm[msg.sender] != 0,\"Error getting your net income\") */\n      tag_77\n      jumpi\n      mload(0x40)\n      0x08c379a000000000000000000000000000000000000000000000000000000000\n      dup2\n      mstore\n      0x04\n      add\n      tag_78\n      swap1\n      tag_79\n      jump\t// in\n    tag_78:\n      mload(0x40)\n      dup1\n      swap2\n      sub\n      swap1\n      revert\n    tag_77:\n        /* \"contracts/Loanify_New.sol\":1834:1854  customer_netIncomepm */\n      0x02\n        /* \"contracts/Loanify_New.sol\":1834:1866  customer_netIncomepm[msg.sender] */\n      0x00\n        /* \"contracts/Loanify_New.sol\":1855:1865  msg.sender */\n      caller\n        /* \"contracts/Loanify_New.sol\":1834:1866  customer_netIncomepm[msg.sender] */\n      0xffffffffffffffffffffffffffffffffffffffff\n      and\n      0xffffffffffffffffffffffffffffffffffffffff\n      and\n      dup2\n      mstore\n      0x20\n      add\n      swap1\n      dup2\n      mstore\n      0x20\n      add\n      0x00\n      keccak256\n      sload\n        /* \"contracts/Loanify_New.sol\":1827:1866  return customer_netIncomepm[msg.sender] */\n      swap1\n      pop\n        /* \"contracts/Loanify_New.sol\":1674:1874  function getNetIncome() public view returns (uint256) {... */\n      swap1\n      jump\t// out\n        /* \"contracts/Loanify_New.sol\":107:153  mapping(address => uint256) public creditScore */\n    tag_45:\n      mstore(0x20, 0x01)\n      dup1\n      0x00\n      mstore\n      keccak256(0x00, 0x40)\n      0x00\n      swap2\n      pop\n      swap1\n      pop\n      sload\n      dup2\n      jump\t// out\n        /* \"#utility.yul\":88:205   */\n    tag_81:\n        /* \"#utility.yul\":197:198   */\n      0x00\n        /* \"#utility.yul\":194:195   */\n      dup1\n        /* \"#utility.yul\":187:199   */\n      revert\n        /* \"#utility.yul\":334:460   */\n    tag_83:\n        /* \"#utility.yul\":371:378   */\n      0x00\n        /* \"#utility.yul\":411:453   */\n      0xffffffffffffffffffffffffffffffffffffffff\n        /* \"#utility.yul\":404:409   */\n      dup3\n        /* \"#utility.yul\":400:454   */\n      and\n        /* \"#utility.yul\":389:454   */\n      swap1\n      pop\n        /* \"#utility.yul\":334:460   */\n      swap2\n      swap1\n      pop\n      jump\t// out\n        /* \"#utility.yul\":466:562   */\n    tag_84:\n        /* \"#utility.yul\":503:510   */\n      0x00\n        /* \"#utility.yul\":532:556   */\n      tag_111\n        /* \"#utility.yul\":550:555   */\n      dup3\n        /* \"#utility.yul\":532:556   */\n      tag_83\n      jump\t// in\n    tag_111:\n        /* \"#utility.yul\":521:556   */\n      swap1\n      pop\n        /* \"#utility.yul\":466:562   */\n      swap2\n      swap1\n      pop\n      jump\t// out\n        /* \"#utility.yul\":568:690   */\n    tag_85:\n        /* \"#utility.yul\":641:665   */\n      tag_113\n        /* \"#utility.yul\":659:664   */\n      dup2\n        /* \"#utility.yul\":641:665   */\n      tag_84\n      jump\t// in\n    tag_113:\n        /* \"#utility.yul\":634:639   */\n      dup2\n        /* \"#utility.yul\":631:666   */\n      eq\n        /* \"#utility.yul\":621:684   */\n      tag_114\n      jumpi\n        /* \"#utility.yul\":680:681   */\n      0x00\n        /* \"#utility.yul\":677:678   */\n      dup1\n        /* \"#utility.yul\":670:682   */\n      revert\n        /* \"#utility.yul\":621:684   */\n    tag_114:\n        /* \"#utility.yul\":568:690   */\n      pop\n      jump\t// out\n        /* \"#utility.yul\":696:835   */\n    tag_86:\n        /* \"#utility.yul\":742:747   */\n      0x00\n        /* \"#utility.yul\":780:786   */\n      dup2\n        /* \"#utility.yul\":767:787   */\n      calldataload\n        /* \"#utility.yul\":758:787   */\n      swap1\n      pop\n        /* \"#utility.yul\":796:829   */\n      tag_116\n        /* \"#utility.yul\":823:828   */\n      dup2\n        /* \"#utility.yul\":796:829   */\n      tag_85\n      jump\t// in\n    tag_116:\n        /* \"#utility.yul\":696:835   */\n      swap3\n      swap2\n      pop\n      pop\n      jump\t// out\n        /* \"#utility.yul\":841:1170   */\n    tag_14:\n        /* \"#utility.yul\":900:906   */\n      0x00\n        /* \"#utility.yul\":949:951   */\n      0x20\n        /* \"#utility.yul\":937:946   */\n      dup3\n        /* \"#utility.yul\":928:935   */\n      dup5\n        /* \"#utility.yul\":924:947   */\n      sub\n        /* \"#utility.yul\":920:952   */\n      slt\n        /* \"#utility.yul\":917:1036   */\n      iszero\n      tag_118\n      jumpi\n        /* \"#utility.yul\":955:1034   */\n      tag_119\n      tag_81\n      jump\t// in\n    tag_119:\n        /* \"#utility.yul\":917:1036   */\n    tag_118:\n        /* \"#utility.yul\":1075:1076   */\n      0x00\n        /* \"#utility.yul\":1100:1153   */\n      tag_120\n        /* \"#utility.yul\":1145:1152   */\n      dup5\n        /* \"#utility.yul\":1136:1142   */\n      dup3\n        /* \"#utility.yul\":1125:1134   */\n      dup6\n        /* \"#utility.yul\":1121:1143   */\n      add\n        /* \"#utility.yul\":1100:1153   */\n      tag_86\n      jump\t// in\n    tag_120:\n        /* \"#utility.yul\":1090:1153   */\n      swap2\n      pop\n        /* \"#utility.yul\":1046:1163   */\n      pop\n        /* \"#utility.yul\":841:1170   */\n      swap3\n      swap2\n      pop\n      pop\n      jump\t// out\n        /* \"#utility.yul\":1176:1253   */\n    tag_87:\n        /* \"#utility.yul\":1213:1220   */\n      0x00\n        /* \"#utility.yul\":1242:1247   */\n      dup2\n        /* \"#utility.yul\":1231:1247   */\n      swap1\n      pop\n        /* \"#utility.yul\":1176:1253   */\n      swap2\n      swap1\n      pop\n      jump\t// out\n        /* \"#utility.yul\":1259:1377   */\n    tag_88:\n        /* \"#utility.yul\":1346:1370   */\n      tag_123\n        /* \"#utility.yul\":1364:1369   */\n      dup2\n        /* \"#utility.yul\":1346:1370   */\n      tag_87\n      jump\t// in\n    tag_123:\n        /* \"#utility.yul\":1341:1344   */\n      dup3\n        /* \"#utility.yul\":1334:1371   */\n      mstore\n        /* \"#utility.yul\":1259:1377   */\n      pop\n      pop\n      jump\t// out\n        /* \"#utility.yul\":1383:1605   */\n    tag_17:\n        /* \"#utility.yul\":1476:1480   */\n      0x00\n        /* \"#utility.yul\":1514:1516   */\n      0x20\n        /* \"#utility.yul\":1503:1512   */\n      dup3\n        /* \"#utility.yul\":1499:1517   */\n      add\n        /* \"#utility.yul\":1491:1517   */\n      swap1\n      pop\n        /* \"#utility.yul\":1527:1598   */\n      tag_125\n        /* \"#utility.yul\":1595:1596   */\n      0x00\n        /* \"#utility.yul\":1584:1593   */\n      dup4\n        /* \"#utility.yul\":1580:1597   */\n      add\n        /* \"#utility.yul\":1571:1577   */\n      dup5\n        /* \"#utility.yul\":1527:1598   */\n      tag_88\n      jump\t// in\n    tag_125:\n        /* \"#utility.yul\":1383:1605   */\n      swap3\n      swap2\n      pop\n      pop\n      jump\t// out\n        /* \"#utility.yul\":1611:1733   */\n    tag_89:\n        /* \"#utility.yul\":1684:1708   */\n      tag_127\n        /* \"#utility.yul\":1702:1707   */\n      dup2\n        /* \"#utility.yul\":1684:1708   */\n      tag_87\n      jump\t// in\n    tag_127:\n        /* \"#utility.yul\":1677:1682   */\n      dup2\n        /* \"#utility.yul\":1674:1709   */\n      eq\n        /* \"#utility.yul\":1664:1727   */\n      tag_128\n      jumpi\n        /* \"#utility.yul\":1723:1724   */\n      0x00\n        /* \"#utility.yul\":1720:1721   */\n      dup1\n        /* \"#utility.yul\":1713:1725   */\n      revert\n        /* \"#utility.yul\":1664:1727   */\n    tag_128:\n        /* \"#utility.yul\":1611:1733   */\n      pop\n      jump\t// out\n        /* \"#utility.yul\":1739:1878   */\n    tag_90:\n        /* \"#utility.yul\":1785:1790   */\n      0x00\n        /* \"#utility.yul\":1823:1829   */\n      dup2\n        /* \"#utility.yul\":1810:1830   */\n      calldataload\n        /* \"#utility.yul\":1801:1830   */\n      swap1\n      pop\n        /* \"#utility.yul\":1839:1872   */\n      tag_130\n        /* \"#utility.yul\":1866:1871   */\n      dup2\n        /* \"#utility.yul\":1839:1872   */\n      tag_89\n      jump\t// in\n    tag_130:\n        /* \"#utility.yul\":1739:1878   */\n      swap3\n      swap2\n      pop\n      pop\n      jump\t// out\n        /* \"#utility.yul\":1884:2213   */\n    tag_20:\n        /* \"#utility.yul\":1943:1949   */\n      0x00\n        /* \"#utility.yul\":1992:1994   */\n      0x20\n        /* \"#utility.yul\":1980:1989   */\n      dup3\n        /* \"#utility.yul\":1971:1978   */\n      dup5\n        /* \"#utility.yul\":1967:1990   */\n      sub\n        /* \"#utility.yul\":1963:1995   */\n      slt\n        /* \"#utility.yul\":1960:2079   */\n      iszero\n      tag_132\n      jumpi\n        /* \"#utility.yul\":1998:2077   */\n      tag_133\n      tag_81\n      jump\t// in\n    tag_133:\n        /* \"#utility.yul\":1960:2079   */\n    tag_132:\n        /* \"#utility.yul\":2118:2119   */\n      0x00\n        /* \"#utility.yul\":2143:2196   */\n      tag_134\n        /* \"#utility.yul\":2188:2195   */\n      dup5\n        /* \"#utility.yul\":2179:2185   */\n      dup3\n        /* \"#utility.yul\":2168:2177   */\n      dup6\n        /* \"#utility.yul\":2164:2186   */\n      add\n        /* \"#utility.yul\":2143:2196   */\n      tag_90\n      jump\t// in\n    tag_134:\n        /* \"#utility.yul\":2133:2196   */\n      swap2\n      pop\n        /* \"#utility.yul\":2089:2206   */\n      pop\n        /* \"#utility.yul\":1884:2213   */\n      swap3\n      swap2\n      pop\n      pop\n      jump\t// out\n        /* \"#utility.yul\":2219:2337   */\n    tag_91:\n        /* \"#utility.yul\":2306:2330   */\n      tag_136\n        /* \"#utility.yul\":2324:2329   */\n      dup2\n        /* \"#utility.yul\":2306:2330   */\n      tag_84\n      jump\t// in\n    tag_136:\n        /* \"#utility.yul\":2301:2304   */\n      dup3\n        /* \"#utility.yul\":2294:2331   */\n      mstore\n        /* \"#utility.yul\":2219:2337   */\n      pop\n      pop\n      jump\t// out\n        /* \"#utility.yul\":2343:2896   */\n    tag_23:\n        /* \"#utility.yul\":2520:2524   */\n      0x00\n        /* \"#utility.yul\":2558:2561   */\n      0x80\n        /* \"#utility.yul\":2547:2556   */\n      dup3\n        /* \"#utility.yul\":2543:2562   */\n      add\n        /* \"#utility.yul\":2535:2562   */\n      swap1\n      pop\n        /* \"#utility.yul\":2572:2643   */\n      tag_138\n        /* \"#utility.yul\":2640:2641   */\n      0x00\n        /* \"#utility.yul\":2629:2638   */\n      dup4\n        /* \"#utility.yul\":2625:2642   */\n      add\n        /* \"#utility.yul\":2616:2622   */\n      dup8\n        /* \"#utility.yul\":2572:2643   */\n      tag_91\n      jump\t// in\n    tag_138:\n        /* \"#utility.yul\":2653:2725   */\n      tag_139\n        /* \"#utility.yul\":2721:2723   */\n      0x20\n        /* \"#utility.yul\":2710:2719   */\n      dup4\n        /* \"#utility.yul\":2706:2724   */\n      add\n        /* \"#utility.yul\":2697:2703   */\n      dup7\n        /* \"#utility.yul\":2653:2725   */\n      tag_88\n      jump\t// in\n    tag_139:\n        /* \"#utility.yul\":2735:2807   */\n      tag_140\n        /* \"#utility.yul\":2803:2805   */\n      0x40\n        /* \"#utility.yul\":2792:2801   */\n      dup4\n        /* \"#utility.yul\":2788:2806   */\n      add\n        /* \"#utility.yul\":2779:2785   */\n      dup6\n        /* \"#utility.yul\":2735:2807   */\n      tag_88\n      jump\t// in\n    tag_140:\n        /* \"#utility.yul\":2817:2889   */\n      tag_141\n        /* \"#utility.yul\":2885:2887   */\n      0x60\n        /* \"#utility.yul\":2874:2883   */\n      dup4\n        /* \"#utility.yul\":2870:2888   */\n      add\n        /* \"#utility.yul\":2861:2867   */\n      dup5\n        /* \"#utility.yul\":2817:2889   */\n      tag_88\n      jump\t// in\n    tag_141:\n        /* \"#utility.yul\":2343:2896   */\n      swap6\n      swap5\n      pop\n      pop\n      pop\n      pop\n      pop\n      jump\t// out\n        /* \"#utility.yul\":2902:3521   */\n    tag_29:\n        /* \"#utility.yul\":2979:2985   */\n      0x00\n        /* \"#utility.yul\":2987:2993   */\n      dup1\n        /* \"#utility.yul\":2995:3001   */\n      0x00\n        /* \"#utility.yul\":3044:3046   */\n      0x60\n        /* \"#utility.yul\":3032:3041   */\n      dup5\n        /* \"#utility.yul\":3023:3030   */\n      dup7\n        /* \"#utility.yul\":3019:3042   */\n      sub\n        /* \"#utility.yul\":3015:3047   */\n      slt\n        /* \"#utility.yul\":3012:3131   */\n      iszero\n      tag_143\n      jumpi\n        /* \"#utility.yul\":3050:3129   */\n      tag_144\n      tag_81\n      jump\t// in\n    tag_144:\n        /* \"#utility.yul\":3012:3131   */\n    tag_143:\n        /* \"#utility.yul\":3170:3171   */\n      0x00\n        /* \"#utility.yul\":3195:3248   */\n      tag_145\n        /* \"#utility.yul\":3240:3247   */\n      dup7\n        /* \"#utility.yul\":3231:3237   */\n      dup3\n        /* \"#utility.yul\":3220:3229   */\n      dup8\n        /* \"#utility.yul\":3216:3238   */\n      add\n        /* \"#utility.yul\":3195:3248   */\n      tag_86\n      jump\t// in\n    tag_145:\n        /* \"#utility.yul\":3185:3248   */\n      swap4\n      pop\n        /* \"#utility.yul\":3141:3258   */\n      pop\n        /* \"#utility.yul\":3297:3299   */\n      0x20\n        /* \"#utility.yul\":3323:3376   */\n      tag_146\n        /* \"#utility.yul\":3368:3375   */\n      dup7\n        /* \"#utility.yul\":3359:3365   */\n      dup3\n        /* \"#utility.yul\":3348:3357   */\n      dup8\n        /* \"#utility.yul\":3344:3366   */\n      add\n        /* \"#utility.yul\":3323:3376   */\n      tag_90\n      jump\t// in\n    tag_146:\n        /* \"#utility.yul\":3313:3376   */\n      swap3\n      pop\n        /* \"#utility.yul\":3268:3386   */\n      pop\n        /* \"#utility.yul\":3425:3427   */\n      0x40\n        /* \"#utility.yul\":3451:3504   */\n      tag_147\n        /* \"#utility.yul\":3496:3503   */\n      dup7\n        /* \"#utility.yul\":3487:3493   */\n      dup3\n        /* \"#utility.yul\":3476:3485   */\n      dup8\n        /* \"#utility.yul\":3472:3494   */\n      add\n        /* \"#utility.yul\":3451:3504   */\n      tag_90\n      jump\t// in\n    tag_147:\n        /* \"#utility.yul\":3441:3504   */\n      swap2\n      pop\n        /* \"#utility.yul\":3396:3514   */\n      pop\n        /* \"#utility.yul\":2902:3521   */\n      swap3\n      pop\n      swap3\n      pop\n      swap3\n      jump\t// out\n        /* \"#utility.yul\":3527:4292   */\n    tag_34:\n        /* \"#utility.yul\":3613:3619   */\n      0x00\n        /* \"#utility.yul\":3621:3627   */\n      dup1\n        /* \"#utility.yul\":3629:3635   */\n      0x00\n        /* \"#utility.yul\":3637:3643   */\n      dup1\n        /* \"#utility.yul\":3686:3689   */\n      0x80\n        /* \"#utility.yul\":3674:3683   */\n      dup6\n        /* \"#utility.yul\":3665:3672   */\n      dup8\n        /* \"#utility.yul\":3661:3684   */\n      sub\n        /* \"#utility.yul\":3657:3690   */\n      slt\n        /* \"#utility.yul\":3654:3774   */\n      iszero\n      tag_149\n      jumpi\n        /* \"#utility.yul\":3693:3772   */\n      tag_150\n      tag_81\n      jump\t// in\n    tag_150:\n        /* \"#utility.yul\":3654:3774   */\n    tag_149:\n        /* \"#utility.yul\":3813:3814   */\n      0x00\n        /* \"#utility.yul\":3838:3891   */\n      tag_151\n        /* \"#utility.yul\":3883:3890   */\n      dup8\n        /* \"#utility.yul\":3874:3880   */\n      dup3\n        /* \"#utility.yul\":3863:3872   */\n      dup9\n        /* \"#utility.yul\":3859:3881   */\n      add\n        /* \"#utility.yul\":3838:3891   */\n      tag_86\n      jump\t// in\n    tag_151:\n        /* \"#utility.yul\":3828:3891   */\n      swap5\n      pop\n        /* \"#utility.yul\":3784:3901   */\n      pop\n        /* \"#utility.yul\":3940:3942   */\n      0x20\n        /* \"#utility.yul\":3966:4019   */\n      tag_152\n        /* \"#utility.yul\":4011:4018   */\n      dup8\n        /* \"#utility.yul\":4002:4008   */\n      dup3\n        /* \"#utility.yul\":3991:4000   */\n      dup9\n        /* \"#utility.yul\":3987:4009   */\n      add\n        /* \"#utility.yul\":3966:4019   */\n      tag_90\n      jump\t// in\n    tag_152:\n        /* \"#utility.yul\":3956:4019   */\n      swap4\n      pop\n        /* \"#utility.yul\":3911:4029   */\n      pop\n        /* \"#utility.yul\":4068:4070   */\n      0x40\n        /* \"#utility.yul\":4094:4147   */\n      tag_153\n        /* \"#utility.yul\":4139:4146   */\n      dup8\n        /* \"#utility.yul\":4130:4136   */\n      dup3\n        /* \"#utility.yul\":4119:4128   */\n      dup9\n        /* \"#utility.yul\":4115:4137   */\n      add\n        /* \"#utility.yul\":4094:4147   */\n      tag_90\n      jump\t// in\n    tag_153:\n        /* \"#utility.yul\":4084:4147   */\n      swap3\n      pop\n        /* \"#utility.yul\":4039:4157   */\n      pop\n        /* \"#utility.yul\":4196:4198   */\n      0x60\n        /* \"#utility.yul\":4222:4275   */\n      tag_154\n        /* \"#utility.yul\":4267:4274   */\n      dup8\n        /* \"#utility.yul\":4258:4264   */\n      dup3\n        /* \"#utility.yul\":4247:4256   */\n      dup9\n        /* \"#utility.yul\":4243:4265   */\n      add\n        /* \"#utility.yul\":4222:4275   */\n      tag_90\n      jump\t// in\n    tag_154:\n        /* \"#utility.yul\":4212:4275   */\n      swap2\n      pop\n        /* \"#utility.yul\":4167:4285   */\n      pop\n        /* \"#utility.yul\":3527:4292   */\n      swap3\n      swap6\n      swap2\n      swap5\n      pop\n      swap3\n      pop\n      jump\t// out\n        /* \"#utility.yul\":4298:4467   */\n    tag_92:\n        /* \"#utility.yul\":4382:4393   */\n      0x00\n        /* \"#utility.yul\":4416:4422   */\n      dup3\n        /* \"#utility.yul\":4411:4414   */\n      dup3\n        /* \"#utility.yul\":4404:4423   */\n      mstore\n        /* \"#utility.yul\":4456:4460   */\n      0x20\n        /* \"#utility.yul\":4451:4454   */\n      dup3\n        /* \"#utility.yul\":4447:4461   */\n      add\n        /* \"#utility.yul\":4432:4461   */\n      swap1\n      pop\n        /* \"#utility.yul\":4298:4467   */\n      swap3\n      swap2\n      pop\n      pop\n      jump\t// out\n        /* \"#utility.yul\":4473:4654   */\n    tag_93:\n        /* \"#utility.yul\":4613:4646   */\n      0x4572726f722067657474696e6720796f7572206372656469742073636f726500\n        /* \"#utility.yul\":4609:4610   */\n      0x00\n        /* \"#utility.yul\":4601:4607   */\n      dup3\n        /* \"#utility.yul\":4597:4611   */\n      add\n        /* \"#utility.yul\":4590:4647   */\n      mstore\n        /* \"#utility.yul\":4473:4654   */\n      pop\n      jump\t// out\n        /* \"#utility.yul\":4660:5026   */\n    tag_94:\n        /* \"#utility.yul\":4802:4805   */\n      0x00\n        /* \"#utility.yul\":4823:4890   */\n      tag_158\n        /* \"#utility.yul\":4887:4889   */\n      0x1f\n        /* \"#utility.yul\":4882:4885   */\n      dup4\n        /* \"#utility.yul\":4823:4890   */\n      tag_92\n      jump\t// in\n    tag_158:\n        /* \"#utility.yul\":4816:4890   */\n      swap2\n      pop\n        /* \"#utility.yul\":4899:4992   */\n      tag_159\n        /* \"#utility.yul\":4988:4991   */\n      dup3\n        /* \"#utility.yul\":4899:4992   */\n      tag_93\n      jump\t// in\n    tag_159:\n        /* \"#utility.yul\":5017:5019   */\n      0x20\n        /* \"#utility.yul\":5012:5015   */\n      dup3\n        /* \"#utility.yul\":5008:5020   */\n      add\n        /* \"#utility.yul\":5001:5020   */\n      swap1\n      pop\n        /* \"#utility.yul\":4660:5026   */\n      swap2\n      swap1\n      pop\n      jump\t// out\n        /* \"#utility.yul\":5032:5451   */\n    tag_52:\n        /* \"#utility.yul\":5198:5202   */\n      0x00\n        /* \"#utility.yul\":5236:5238   */\n      0x20\n        /* \"#utility.yul\":5225:5234   */\n      dup3\n        /* \"#utility.yul\":5221:5239   */\n      add\n        /* \"#utility.yul\":5213:5239   */\n      swap1\n      pop\n        /* \"#utility.yul\":5285:5294   */\n      dup2\n        /* \"#utility.yul\":5279:5283   */\n      dup2\n        /* \"#utility.yul\":5275:5295   */\n      sub\n        /* \"#utility.yul\":5271:5272   */\n      0x00\n        /* \"#utility.yul\":5260:5269   */\n      dup4\n        /* \"#utility.yul\":5256:5273   */\n      add\n        /* \"#utility.yul\":5249:5296   */\n      mstore\n        /* \"#utility.yul\":5313:5444   */\n      tag_161\n        /* \"#utility.yul\":5439:5443   */\n      dup2\n        /* \"#utility.yul\":5313:5444   */\n      tag_94\n      jump\t// in\n    tag_161:\n        /* \"#utility.yul\":5305:5444   */\n      swap1\n      pop\n        /* \"#utility.yul\":5032:5451   */\n      swap2\n      swap1\n      pop\n      jump\t// out\n        /* \"#utility.yul\":5457:5627   */\n    tag_95:\n        /* \"#utility.yul\":5597:5619   */\n      0x4372656469742073636f726520746f6f206c6f77000000000000000000000000\n        /* \"#utility.yul\":5593:5594   */\n      0x00\n        /* \"#utility.yul\":5585:5591   */\n      dup3\n        /* \"#utility.yul\":5581:5595   */\n      add\n        /* \"#utility.yul\":5574:5620   */\n      mstore\n        /* \"#utility.yul\":5457:5627   */\n      pop\n      jump\t// out\n        /* \"#utility.yul\":5633:5999   */\n    tag_96:\n        /* \"#utility.yul\":5775:5778   */\n      0x00\n        /* \"#utility.yul\":5796:5863   */\n      tag_164\n        /* \"#utility.yul\":5860:5862   */\n      0x14\n        /* \"#utility.yul\":5855:5858   */\n      dup4\n        /* \"#utility.yul\":5796:5863   */\n      tag_92\n      jump\t// in\n    tag_164:\n        /* \"#utility.yul\":5789:5863   */\n      swap2\n      pop\n        /* \"#utility.yul\":5872:5965   */\n      tag_165\n        /* \"#utility.yul\":5961:5964   */\n      dup3\n        /* \"#utility.yul\":5872:5965   */\n      tag_95\n      jump\t// in\n    tag_165:\n        /* \"#utility.yul\":5990:5992   */\n      0x20\n        /* \"#utility.yul\":5985:5988   */\n      dup3\n        /* \"#utility.yul\":5981:5993   */\n      add\n        /* \"#utility.yul\":5974:5993   */\n      swap1\n      pop\n        /* \"#utility.yul\":5633:5999   */\n      swap2\n      swap1\n      pop\n      jump\t// out\n        /* \"#utility.yul\":6005:6424   */\n    tag_58:\n        /* \"#utility.yul\":6171:6175   */\n      0x00\n        /* \"#utility.yul\":6209:6211   */\n      0x20\n        /* \"#utility.yul\":6198:6207   */\n      dup3\n        /* \"#utility.yul\":6194:6212   */\n      add\n        /* \"#utility.yul\":6186:6212   */\n      swap1\n      pop\n        /* \"#utility.yul\":6258:6267   */\n      dup2\n        /* \"#utility.yul\":6252:6256   */\n      dup2\n        /* \"#utility.yul\":6248:6268   */\n      sub\n        /* \"#utility.yul\":6244:6245   */\n      0x00\n        /* \"#utility.yul\":6233:6242   */\n      dup4\n        /* \"#utility.yul\":6229:6246   */\n      add\n        /* \"#utility.yul\":6222:6269   */\n      mstore\n        /* \"#utility.yul\":6286:6417   */\n      tag_167\n        /* \"#utility.yul\":6412:6416   */\n      dup2\n        /* \"#utility.yul\":6286:6417   */\n      tag_96\n      jump\t// in\n    tag_167:\n        /* \"#utility.yul\":6278:6417   */\n      swap1\n      pop\n        /* \"#utility.yul\":6005:6424   */\n      swap2\n      swap1\n      pop\n      jump\t// out\n        /* \"#utility.yul\":6430:6651   */\n    tag_97:\n        /* \"#utility.yul\":6570:6604   */\n      0x596f752063616e6e6f74207265717565737420666f72207468697320616d6f75\n        /* \"#utility.yul\":6566:6567   */\n      0x00\n        /* \"#utility.yul\":6558:6564   */\n      dup3\n        /* \"#utility.yul\":6554:6568   */\n      add\n        /* \"#utility.yul\":6547:6605   */\n      mstore\n        /* \"#utility.yul\":6639:6643   */\n      0x6e74000000000000000000000000000000000000000000000000000000000000\n        /* \"#utility.yul\":6634:6636   */\n      0x20\n        /* \"#utility.yul\":6626:6632   */\n      dup3\n        /* \"#utility.yul\":6622:6637   */\n      add\n        /* \"#utility.yul\":6615:6644   */\n      mstore\n        /* \"#utility.yul\":6430:6651   */\n      pop\n      jump\t// out\n        /* \"#utility.yul\":6657:7023   */\n    tag_98:\n        /* \"#utility.yul\":6799:6802   */\n      0x00\n        /* \"#utility.yul\":6820:6887   */\n      tag_170\n        /* \"#utility.yul\":6884:6886   */\n      0x22\n        /* \"#utility.yul\":6879:6882   */\n      dup4\n        /* \"#utility.yul\":6820:6887   */\n      tag_92\n      jump\t// in\n    tag_170:\n        /* \"#utility.yul\":6813:6887   */\n      swap2\n      pop\n        /* \"#utility.yul\":6896:6989   */\n      tag_171\n        /* \"#utility.yul\":6985:6988   */\n      dup3\n        /* \"#utility.yul\":6896:6989   */\n      tag_97\n      jump\t// in\n    tag_171:\n        /* \"#utility.yul\":7014:7016   */\n      0x40\n        /* \"#utility.yul\":7009:7012   */\n      dup3\n        /* \"#utility.yul\":7005:7017   */\n      add\n        /* \"#utility.yul\":6998:7017   */\n      swap1\n      pop\n        /* \"#utility.yul\":6657:7023   */\n      swap2\n      swap1\n      pop\n      jump\t// out\n        /* \"#utility.yul\":7029:7448   */\n    tag_61:\n        /* \"#utility.yul\":7195:7199   */\n      0x00\n        /* \"#utility.yul\":7233:7235   */\n      0x20\n        /* \"#utility.yul\":7222:7231   */\n      dup3\n        /* \"#utility.yul\":7218:7236   */\n      add\n        /* \"#utility.yul\":7210:7236   */\n      swap1\n      pop\n        /* \"#utility.yul\":7282:7291   */\n      dup2\n        /* \"#utility.yul\":7276:7280   */\n      dup2\n        /* \"#utility.yul\":7272:7292   */\n      sub\n        /* \"#utility.yul\":7268:7269   */\n      0x00\n        /* \"#utility.yul\":7257:7266   */\n      dup4\n        /* \"#utility.yul\":7253:7270   */\n      add\n        /* \"#utility.yul\":7246:7293   */\n      mstore\n        /* \"#utility.yul\":7310:7441   */\n      tag_173\n        /* \"#utility.yul\":7436:7440   */\n      dup2\n        /* \"#utility.yul\":7310:7441   */\n      tag_98\n      jump\t// in\n    tag_173:\n        /* \"#utility.yul\":7302:7441   */\n      swap1\n      pop\n        /* \"#utility.yul\":7029:7448   */\n      swap2\n      swap1\n      pop\n      jump\t// out\n        /* \"#utility.yul\":7454:7634   */\n    tag_99:\n        /* \"#utility.yul\":7502:7579   */\n      0x4e487b7100000000000000000000000000000000000000000000000000000000\n        /* \"#utility.yul\":7499:7500   */\n      0x00\n        /* \"#utility.yul\":7492:7580   */\n      mstore\n        /* \"#utility.yul\":7599:7603   */\n      0x11\n        /* \"#utility.yul\":7596:7597   */\n      0x04\n        /* \"#utility.yul\":7589:7604   */\n      mstore\n        /* \"#utility.yul\":7623:7627   */\n      0x24\n        /* \"#utility.yul\":7620:7621   */\n      0x00\n        /* \"#utility.yul\":7613:7628   */\n      revert\n        /* \"#utility.yul\":7640:8050   */\n    tag_63:\n        /* \"#utility.yul\":7680:7687   */\n      0x00\n        /* \"#utility.yul\":7703:7723   */\n      tag_176\n        /* \"#utility.yul\":7721:7722   */\n      dup3\n        /* \"#utility.yul\":7703:7723   */\n      tag_87\n      jump\t// in\n    tag_176:\n        /* \"#utility.yul\":7698:7723   */\n      swap2\n      pop\n        /* \"#utility.yul\":7737:7757   */\n      tag_177\n        /* \"#utility.yul\":7755:7756   */\n      dup4\n        /* \"#utility.yul\":7737:7757   */\n      tag_87\n      jump\t// in\n    tag_177:\n        /* \"#utility.yul\":7732:7757   */\n      swap3\n      pop\n        /* \"#utility.yul\":7792:7793   */\n      dup3\n        /* \"#utility.yul\":7789:7790   */\n      dup3\n        /* \"#utility.yul\":7785:7794   */\n      mul\n        /* \"#utility.yul\":7814:7844   */\n      tag_178\n        /* \"#utility.yul\":7832:7843   */\n      dup2\n        /* \"#utility.yul\":7814:7844   */\n      tag_87\n      jump\t// in\n    tag_178:\n        /* \"#utility.yul\":7803:7844   */\n      swap2\n      pop\n        /* \"#utility.yul\":7993:7994   */\n      dup3\n        /* \"#utility.yul\":7984:7991   */\n      dup3\n        /* \"#utility.yul\":7980:7995   */\n      div\n        /* \"#utility.yul\":7977:7978   */\n      dup5\n        /* \"#utility.yul\":7974:7996   */\n      eq\n        /* \"#utility.yul\":7954:7955   */\n      dup4\n        /* \"#utility.yul\":7947:7956   */\n      iszero\n        /* \"#utility.yul\":7927:8010   */\n      or\n        /* \"#utility.yul\":7904:8043   */\n      tag_179\n      jumpi\n        /* \"#utility.yul\":8023:8041   */\n      tag_180\n      tag_99\n      jump\t// in\n    tag_180:\n        /* \"#utility.yul\":7904:8043   */\n    tag_179:\n        /* \"#utility.yul\":7688:8050   */\n      pop\n        /* \"#utility.yul\":7640:8050   */\n      swap3\n      swap2\n      pop\n      pop\n      jump\t// out\n        /* \"#utility.yul\":8056:8236   */\n    tag_100:\n        /* \"#utility.yul\":8104:8181   */\n      0x4e487b7100000000000000000000000000000000000000000000000000000000\n        /* \"#utility.yul\":8101:8102   */\n      0x00\n        /* \"#utility.yul\":8094:8182   */\n      mstore\n        /* \"#utility.yul\":8201:8205   */\n      0x12\n        /* \"#utility.yul\":8198:8199   */\n      0x04\n        /* \"#utility.yul\":8191:8206   */\n      mstore\n        /* \"#utility.yul\":8225:8229   */\n      0x24\n        /* \"#utility.yul\":8222:8223   */\n      0x00\n        /* \"#utility.yul\":8215:8230   */\n      revert\n        /* \"#utility.yul\":8242:8427   */\n    tag_66:\n        /* \"#utility.yul\":8282:8283   */\n      0x00\n        /* \"#utility.yul\":8299:8319   */\n      tag_183\n        /* \"#utility.yul\":8317:8318   */\n      dup3\n        /* \"#utility.yul\":8299:8319   */\n      tag_87\n      jump\t// in\n    tag_183:\n        /* \"#utility.yul\":8294:8319   */\n      swap2\n      pop\n        /* \"#utility.yul\":8333:8353   */\n      tag_184\n        /* \"#utility.yul\":8351:8352   */\n      dup4\n        /* \"#utility.yul\":8333:8353   */\n      tag_87\n      jump\t// in\n    tag_184:\n        /* \"#utility.yul\":8328:8353   */\n      swap3\n      pop\n        /* \"#utility.yul\":8372:8373   */\n      dup3\n        /* \"#utility.yul\":8362:8397   */\n      tag_185\n      jumpi\n        /* \"#utility.yul\":8377:8395   */\n      tag_186\n      tag_100\n      jump\t// in\n    tag_186:\n        /* \"#utility.yul\":8362:8397   */\n    tag_185:\n        /* \"#utility.yul\":8419:8420   */\n      dup3\n        /* \"#utility.yul\":8416:8417   */\n      dup3\n        /* \"#utility.yul\":8412:8421   */\n      div\n        /* \"#utility.yul\":8407:8421   */\n      swap1\n      pop\n        /* \"#utility.yul\":8242:8427   */\n      swap3\n      swap2\n      pop\n      pop\n      jump\t// out\n        /* \"#utility.yul\":8433:8624   */\n    tag_69:\n        /* \"#utility.yul\":8473:8476   */\n      0x00\n        /* \"#utility.yul\":8492:8512   */\n      tag_188\n        /* \"#utility.yul\":8510:8511   */\n      dup3\n        /* \"#utility.yul\":8492:8512   */\n      tag_87\n      jump\t// in\n    tag_188:\n        /* \"#utility.yul\":8487:8512   */\n      swap2\n      pop\n        /* \"#utility.yul\":8526:8546   */\n      tag_189\n        /* \"#utility.yul\":8544:8545   */\n      dup4\n        /* \"#utility.yul\":8526:8546   */\n      tag_87\n      jump\t// in\n    tag_189:\n        /* \"#utility.yul\":8521:8546   */\n      swap3\n      pop\n        /* \"#utility.yul\":8569:8570   */\n      dup3\n        /* \"#utility.yul\":8566:8567   */\n      dup3\n        /* \"#utility.yul\":8562:8571   */\n      add\n        /* \"#utility.yul\":8555:8571   */\n      swap1\n      pop\n        /* \"#utility.yul\":8590:8593   */\n      dup1\n        /* \"#utility.yul\":8587:8588   */\n      dup3\n        /* \"#utility.yul\":8584:8594   */\n      gt\n        /* \"#utility.yul\":8581:8617   */\n      iszero\n      tag_190\n      jumpi\n        /* \"#utility.yul\":8597:8615   */\n      tag_191\n      tag_99\n      jump\t// in\n    tag_191:\n        /* \"#utility.yul\":8581:8617   */\n    tag_190:\n        /* \"#utility.yul\":8433:8624   */\n      swap3\n      swap2\n      pop\n      pop\n      jump\t// out\n        /* \"#utility.yul\":8630:8938   */\n    tag_101:\n        /* \"#utility.yul\":8770:8804   */\n      0x596f75277265206e657420696e636f6d6520697320746f6f206c6f7720666f72\n        /* \"#utility.yul\":8766:8767   */\n      0x00\n        /* \"#utility.yul\":8758:8764   */\n      dup3\n        /* \"#utility.yul\":8754:8768   */\n      add\n        /* \"#utility.yul\":8747:8805   */\n      mstore\n        /* \"#utility.yul\":8839:8873   */\n      0x2074686973206c6f616e20616d6f756e742e20547279207265647563696e6720\n        /* \"#utility.yul\":8834:8836   */\n      0x20\n        /* \"#utility.yul\":8826:8832   */\n      dup3\n        /* \"#utility.yul\":8822:8837   */\n      add\n        /* \"#utility.yul\":8815:8874   */\n      mstore\n        /* \"#utility.yul\":8908:8930   */\n      0x697420796f7572206c6f616e2072657175657374000000000000000000000000\n        /* \"#utility.yul\":8903:8905   */\n      0x40\n        /* \"#utility.yul\":8895:8901   */\n      dup3\n        /* \"#utility.yul\":8891:8906   */\n      add\n        /* \"#utility.yul\":8884:8931   */\n      mstore\n        /* \"#utility.yul\":8630:8938   */\n      pop\n      jump\t// out\n        /* \"#utility.yul\":8944:9310   */\n    tag_102:\n        /* \"#utility.yul\":9086:9089   */\n      0x00\n        /* \"#utility.yul\":9107:9174   */\n      tag_194\n        /* \"#utility.yul\":9171:9173   */\n      0x54\n        /* \"#utility.yul\":9166:9169   */\n      dup4\n        /* \"#utility.yul\":9107:9174   */\n      tag_92\n      jump\t// in\n    tag_194:\n        /* \"#utility.yul\":9100:9174   */\n      swap2\n      pop\n        /* \"#utility.yul\":9183:9276   */\n      tag_195\n        /* \"#utility.yul\":9272:9275   */\n      dup3\n        /* \"#utility.yul\":9183:9276   */\n      tag_101\n      jump\t// in\n    tag_195:\n        /* \"#utility.yul\":9301:9303   */\n      0x60\n        /* \"#utility.yul\":9296:9299   */\n      dup3\n        /* \"#utility.yul\":9292:9304   */\n      add\n        /* \"#utility.yul\":9285:9304   */\n      swap1\n      pop\n        /* \"#utility.yul\":8944:9310   */\n      swap2\n      swap1\n      pop\n      jump\t// out\n        /* \"#utility.yul\":9316:9735   */\n    tag_73:\n        /* \"#utility.yul\":9482:9486   */\n      0x00\n        /* \"#utility.yul\":9520:9522   */\n      0x20\n        /* \"#utility.yul\":9509:9518   */\n      dup3\n        /* \"#utility.yul\":9505:9523   */\n      add\n        /* \"#utility.yul\":9497:9523   */\n      swap1\n      pop\n        /* \"#utility.yul\":9569:9578   */\n      dup2\n        /* \"#utility.yul\":9563:9567   */\n      dup2\n        /* \"#utility.yul\":9559:9579   */\n      sub\n        /* \"#utility.yul\":9555:9556   */\n      0x00\n        /* \"#utility.yul\":9544:9553   */\n      dup4\n        /* \"#utility.yul\":9540:9557   */\n      add\n        /* \"#utility.yul\":9533:9580   */\n      mstore\n        /* \"#utility.yul\":9597:9728   */\n      tag_197\n        /* \"#utility.yul\":9723:9727   */\n      dup2\n        /* \"#utility.yul\":9597:9728   */\n      tag_102\n      jump\t// in\n    tag_197:\n        /* \"#utility.yul\":9589:9728   */\n      swap1\n      pop\n        /* \"#utility.yul\":9316:9735   */\n      swap2\n      swap1\n      pop\n      jump\t// out\n        /* \"#utility.yul\":9741:9920   */\n    tag_103:\n        /* \"#utility.yul\":9881:9912   */\n      0x4572726f722067657474696e6720796f7572206e657420696e636f6d65000000\n        /* \"#utility.yul\":9877:9878   */\n      0x00\n        /* \"#utility.yul\":9869:9875   */\n      dup3\n        /* \"#utility.yul\":9865:9879   */\n      add\n        /* \"#utility.yul\":9858:9913   */\n      mstore\n        /* \"#utility.yul\":9741:9920   */\n      pop\n      jump\t// out\n        /* \"#utility.yul\":9926:10292   */\n    tag_104:\n        /* \"#utility.yul\":10068:10071   */\n      0x00\n        /* \"#utility.yul\":10089:10156   */\n      tag_200\n        /* \"#utility.yul\":10153:10155   */\n      0x1d\n        /* \"#utility.yul\":10148:10151   */\n      dup4\n        /* \"#utility.yul\":10089:10156   */\n      tag_92\n      jump\t// in\n    tag_200:\n        /* \"#utility.yul\":10082:10156   */\n      swap2\n      pop\n        /* \"#utility.yul\":10165:10258   */\n      tag_201\n        /* \"#utility.yul\":10254:10257   */\n      dup3\n        /* \"#utility.yul\":10165:10258   */\n      tag_103\n      jump\t// in\n    tag_201:\n        /* \"#utility.yul\":10283:10285   */\n      0x20\n        /* \"#utility.yul\":10278:10281   */\n      dup3\n        /* \"#utility.yul\":10274:10286   */\n      add\n        /* \"#utility.yul\":10267:10286   */\n      swap1\n      pop\n        /* \"#utility.yul\":9926:10292   */\n      swap2\n      swap1\n      pop\n      jump\t// out\n        /* \"#utility.yul\":10298:10717   */\n    tag_79:\n        /* \"#utility.yul\":10464:10468   */\n      0x00\n        /* \"#utility.yul\":10502:10504   */\n      0x20\n        /* \"#utility.yul\":10491:10500   */\n      dup3\n        /* \"#utility.yul\":10487:10505   */\n      add\n        /* \"#utility.yul\":10479:10505   */\n      swap1\n      pop\n        /* \"#utility.yul\":10551:10560   */\n      dup2\n        /* \"#utility.yul\":10545:10549   */\n      dup2\n        /* \"#utility.yul\":10541:10561   */\n      sub\n        /* \"#utility.yul\":10537:10538   */\n      0x00\n        /* \"#utility.yul\":10526:10535   */\n      dup4\n        /* \"#utility.yul\":10522:10539   */\n      add\n        /* \"#utility.yul\":10515:10562   */\n      mstore\n        /* \"#utility.yul\":10579:10710   */\n      tag_203\n        /* \"#utility.yul\":10705:10709   */\n      dup2\n        /* \"#utility.yul\":10579:10710   */\n      tag_104\n      jump\t// in\n    tag_203:\n        /* \"#utility.yul\":10571:10710   */\n      swap1\n      pop\n        /* \"#utility.yul\":10298:10717   */\n      swap2\n      swap1\n      pop\n      jump\t// out\n\n    auxdata: 0xa26469706673582212208a899285ad58ba3cb34e49c6c67f2b3b9775e6b5ccd15fbb09145078ae87e31a64736f6c63430008130033\n}\n",
				"bytecode": {
					"linkReferences": {},
					"object": "608060405234801561001057600080fd5b506064600481905550610cf7806100286000396000f3fe608060405234801561001057600080fd5b50600436106100885760003560e01c8063796210781161005b578063796210781461013e57806390d8925f1461015a5780639244dd741461018a578063f7e590ee146101a857610088565b80630fd892771461008d57806324b7eb8c146100bd5780635da19538146100f05780636f77ff551461010e575b600080fd5b6100a760048036038101906100a29190610755565b6101d8565b6040516100b4919061079b565b60405180910390f35b6100d760048036038101906100d291906107e2565b6101f0565b6040516100e7949392919061081e565b60405180910390f35b6100f8610250565b604051610105919061079b565b60405180910390f35b61012860048036038101906101239190610863565b610318565b604051610135919061079b565b60405180910390f35b610158600480360381019061015391906108b6565b610459565b005b610174600480360381019061016f9190610755565b6105fa565b604051610181919061079b565b60405180910390f35b610192610612565b60405161019f919061079b565b60405180910390f35b6101c260048036038101906101bd9190610755565b6106da565b6040516101cf919061079b565b60405180910390f35b60026020528060005260406000206000915090505481565b6005818154811061020057600080fd5b90600052602060002090600402016000915090508060000160009054906101000a900473ffffffffffffffffffffffffffffffffffffffff16908060010154908060020154908060030154905084565b600080600160003373ffffffffffffffffffffffffffffffffffffffff1673ffffffffffffffffffffffffffffffffffffffff16815260200190815260200160002054036102d3576040517f08c379a00000000000000000000000000000000000000000000000000000000081526004016102ca9061097a565b60405180910390fd5b600160003373ffffffffffffffffffffffffffffffffffffffff1673ffffffffffffffffffffffffffffffffffffffff16815260200190815260200160002054905090565b600080610323610250565b9050600061032f610612565b905061015e821015610376576040517f08c379a000000000000000000000000000000000000000000000000000000000815260040161036d906109e6565b60405180910390fd5b6004548511156103bb576040517f08c379a00000000000000000000000000000000000000000000000000000000081526004016103b290610a78565b60405180910390fd5b60006104b0600586886103ce9190610ac7565b6103d89190610ac7565b6103e29190610b38565b9050600085826103f29190610b38565b876103fd9190610b69565b905080600561040c9190610ac7565b83101561044e576040517f08c379a000000000000000000000000000000000000000000000000000000000815260040161044590610c35565b60405180910390fd5b505050509392505050565b82600160008673ffffffffffffffffffffffffffffffffffffffff1673ffffffffffffffffffffffffffffffffffffffff1681526020019081526020016000208190555081600260008673ffffffffffffffffffffffffffffffffffffffff1673ffffffffffffffffffffffffffffffffffffffff1681526020019081526020016000208190555080600360008673ffffffffffffffffffffffffffffffffffffffff1673ffffffffffffffffffffffffffffffffffffffff16815260200190815260200160002081905550600060405180608001604052808673ffffffffffffffffffffffffffffffffffffffff168152602001858152602001848152602001838152509050600581908060018154018082558091505060019003906000526020600020906004020160009091909190915060008201518160000160006101000a81548173ffffffffffffffffffffffffffffffffffffffff021916908373ffffffffffffffffffffffffffffffffffffffff16021790555060208201518160010155604082015181600201556060820151816003015550505050505050565b60036020528060005260406000206000915090505481565b600080600260003373ffffffffffffffffffffffffffffffffffffffff1673ffffffffffffffffffffffffffffffffffffffff1681526020019081526020016000205403610695576040517f08c379a000000000000000000000000000000000000000000000000000000000815260040161068c90610ca1565b60405180910390fd5b600260003373ffffffffffffffffffffffffffffffffffffffff1673ffffffffffffffffffffffffffffffffffffffff16815260200190815260200160002054905090565b60016020528060005260406000206000915090505481565b600080fd5b600073ffffffffffffffffffffffffffffffffffffffff82169050919050565b6000610722826106f7565b9050919050565b61073281610717565b811461073d57600080fd5b50565b60008135905061074f81610729565b92915050565b60006020828403121561076b5761076a6106f2565b5b600061077984828501610740565b91505092915050565b6000819050919050565b61079581610782565b82525050565b60006020820190506107b0600083018461078c565b92915050565b6107bf81610782565b81146107ca57600080fd5b50565b6000813590506107dc816107b6565b92915050565b6000602082840312156107f8576107f76106f2565b5b6000610806848285016107cd565b91505092915050565b61081881610717565b82525050565b6000608082019050610833600083018761080f565b610840602083018661078c565b61084d604083018561078c565b61085a606083018461078c565b95945050505050565b60008060006060848603121561087c5761087b6106f2565b5b600061088a86828701610740565b935050602061089b868287016107cd565b92505060406108ac868287016107cd565b9150509250925092565b600080600080608085870312156108d0576108cf6106f2565b5b60006108de87828801610740565b94505060206108ef878288016107cd565b9350506040610900878288016107cd565b9250506060610911878288016107cd565b91505092959194509250565b600082825260208201905092915050565b7f4572726f722067657474696e6720796f7572206372656469742073636f726500600082015250565b6000610964601f8361091d565b915061096f8261092e565b602082019050919050565b6000602082019050818103600083015261099381610957565b9050919050565b7f4372656469742073636f726520746f6f206c6f77000000000000000000000000600082015250565b60006109d060148361091d565b91506109db8261099a565b602082019050919050565b600060208201905081810360008301526109ff816109c3565b9050919050565b7f596f752063616e6e6f74207265717565737420666f72207468697320616d6f7560008201527f6e74000000000000000000000000000000000000000000000000000000000000602082015250565b6000610a6260228361091d565b9150610a6d82610a06565b604082019050919050565b60006020820190508181036000830152610a9181610a55565b9050919050565b7f4e487b7100000000000000000000000000000000000000000000000000000000600052601160045260246000fd5b6000610ad282610782565b9150610add83610782565b9250828202610aeb81610782565b91508282048414831517610b0257610b01610a98565b5b5092915050565b7f4e487b7100000000000000000000000000000000000000000000000000000000600052601260045260246000fd5b6000610b4382610782565b9150610b4e83610782565b925082610b5e57610b5d610b09565b5b828204905092915050565b6000610b7482610782565b9150610b7f83610782565b9250828201905080821115610b9757610b96610a98565b5b92915050565b7f596f75277265206e657420696e636f6d6520697320746f6f206c6f7720666f7260008201527f2074686973206c6f616e20616d6f756e742e20547279207265647563696e672060208201527f697420796f7572206c6f616e2072657175657374000000000000000000000000604082015250565b6000610c1f60548361091d565b9150610c2a82610b9d565b606082019050919050565b60006020820190508181036000830152610c4e81610c12565b9050919050565b7f4572726f722067657474696e6720796f7572206e657420696e636f6d65000000600082015250565b6000610c8b601d8361091d565b9150610c9682610c55565b602082019050919050565b60006020820190508181036000830152610cba81610c7e565b905091905056fea26469706673582212208a899285ad58ba3cb34e49c6c67f2b3b9775e6b5ccd15fbb09145078ae87e31a64736f6c63430008130033",
					"opcodes": "PUSH1 0x80 PUSH1 0x40 MSTORE CALLVALUE DUP1 ISZERO PUSH2 0x10 JUMPI PUSH1 0x0 DUP1 REVERT JUMPDEST POP PUSH1 0x64 PUSH1 0x4 DUP2 SWAP1 SSTORE POP PUSH2 0xCF7 DUP1 PUSH2 0x28 PUSH1 0x0 CODECOPY PUSH1 0x0 RETURN INVALID PUSH1 0x80 PUSH1 0x40 MSTORE CALLVALUE DUP1 ISZERO PUSH2 0x10 JUMPI PUSH1 0x0 DUP1 REVERT JUMPDEST POP PUSH1 0x4 CALLDATASIZE LT PUSH2 0x88 JUMPI PUSH1 0x0 CALLDATALOAD PUSH1 0xE0 SHR DUP1 PUSH4 0x79621078 GT PUSH2 0x5B JUMPI DUP1 PUSH4 0x79621078 EQ PUSH2 0x13E JUMPI DUP1 PUSH4 0x90D8925F EQ PUSH2 0x15A JUMPI DUP1 PUSH4 0x9244DD74 EQ PUSH2 0x18A JUMPI DUP1 PUSH4 0xF7E590EE EQ PUSH2 0x1A8 JUMPI PUSH2 0x88 JUMP JUMPDEST DUP1 PUSH4 0xFD89277 EQ PUSH2 0x8D JUMPI DUP1 PUSH4 0x24B7EB8C EQ PUSH2 0xBD JUMPI DUP1 PUSH4 0x5DA19538 EQ PUSH2 0xF0 JUMPI DUP1 PUSH4 0x6F77FF55 EQ PUSH2 0x10E JUMPI JUMPDEST PUSH1 0x0 DUP1 REVERT JUMPDEST PUSH2 0xA7 PUSH1 0x4 DUP1 CALLDATASIZE SUB DUP2 ADD SWAP1 PUSH2 0xA2 SWAP2 SWAP1 PUSH2 0x755 JUMP JUMPDEST PUSH2 0x1D8 JUMP JUMPDEST PUSH1 0x40 MLOAD PUSH2 0xB4 SWAP2 SWAP1 PUSH2 0x79B JUMP JUMPDEST PUSH1 0x40 MLOAD DUP1 SWAP2 SUB SWAP1 RETURN JUMPDEST PUSH2 0xD7 PUSH1 0x4 DUP1 CALLDATASIZE SUB DUP2 ADD SWAP1 PUSH2 0xD2 SWAP2 SWAP1 PUSH2 0x7E2 JUMP JUMPDEST PUSH2 0x1F0 JUMP JUMPDEST PUSH1 0x40 MLOAD PUSH2 0xE7 SWAP5 SWAP4 SWAP3 SWAP2 SWAP1 PUSH2 0x81E JUMP JUMPDEST PUSH1 0x40 MLOAD DUP1 SWAP2 SUB SWAP1 RETURN JUMPDEST PUSH2 0xF8 PUSH2 0x250 JUMP JUMPDEST PUSH1 0x40 MLOAD PUSH2 0x105 SWAP2 SWAP1 PUSH2 0x79B JUMP JUMPDEST PUSH1 0x40 MLOAD DUP1 SWAP2 SUB SWAP1 RETURN JUMPDEST PUSH2 0x128 PUSH1 0x4 DUP1 CALLDATASIZE SUB DUP2 ADD SWAP1 PUSH2 0x123 SWAP2 SWAP1 PUSH2 0x863 JUMP JUMPDEST PUSH2 0x318 JUMP JUMPDEST PUSH1 0x40 MLOAD PUSH2 0x135 SWAP2 SWAP1 PUSH2 0x79B JUMP JUMPDEST PUSH1 0x40 MLOAD DUP1 SWAP2 SUB SWAP1 RETURN JUMPDEST PUSH2 0x158 PUSH1 0x4 DUP1 CALLDATASIZE SUB DUP2 ADD SWAP1 PUSH2 0x153 SWAP2 SWAP1 PUSH2 0x8B6 JUMP JUMPDEST PUSH2 0x459 JUMP JUMPDEST STOP JUMPDEST PUSH2 0x174 PUSH1 0x4 DUP1 CALLDATASIZE SUB DUP2 ADD SWAP1 PUSH2 0x16F SWAP2 SWAP1 PUSH2 0x755 JUMP JUMPDEST PUSH2 0x5FA JUMP JUMPDEST PUSH1 0x40 MLOAD PUSH2 0x181 SWAP2 SWAP1 PUSH2 0x79B JUMP JUMPDEST PUSH1 0x40 MLOAD DUP1 SWAP2 SUB SWAP1 RETURN JUMPDEST PUSH2 0x192 PUSH2 0x612 JUMP JUMPDEST PUSH1 0x40 MLOAD PUSH2 0x19F SWAP2 SWAP1 PUSH2 0x79B JUMP JUMPDEST PUSH1 0x40 MLOAD DUP1 SWAP2 SUB SWAP1 RETURN JUMPDEST PUSH2 0x1C2 PUSH1 0x4 DUP1 CALLDATASIZE SUB DUP2 ADD SWAP1 PUSH2 0x1BD SWAP2 SWAP1 PUSH2 0x755 JUMP JUMPDEST PUSH2 0x6DA JUMP JUMPDEST PUSH1 0x40 MLOAD PUSH2 0x1CF SWAP2 SWAP1 PUSH2 0x79B JUMP JUMPDEST PUSH1 0x40 MLOAD DUP1 SWAP2 SUB SWAP1 RETURN JUMPDEST PUSH1 0x2 PUSH1 0x20 MSTORE DUP1 PUSH1 0x0 MSTORE PUSH1 0x40 PUSH1 0x0 KECCAK256 PUSH1 0x0 SWAP2 POP SWAP1 POP SLOAD DUP2 JUMP JUMPDEST PUSH1 0x5 DUP2 DUP2 SLOAD DUP2 LT PUSH2 0x200 JUMPI PUSH1 0x0 DUP1 REVERT JUMPDEST SWAP1 PUSH1 0x0 MSTORE PUSH1 0x20 PUSH1 0x0 KECCAK256 SWAP1 PUSH1 0x4 MUL ADD PUSH1 0x0 SWAP2 POP SWAP1 POP DUP1 PUSH1 0x0 ADD PUSH1 0x0 SWAP1 SLOAD SWAP1 PUSH2 0x100 EXP SWAP1 DIV PUSH20 0xFFFFFFFFFFFFFFFFFFFFFFFFFFFFFFFFFFFFFFFF AND SWAP1 DUP1 PUSH1 0x1 ADD SLOAD SWAP1 DUP1 PUSH1 0x2 ADD SLOAD SWAP1 DUP1 PUSH1 0x3 ADD SLOAD SWAP1 POP DUP5 JUMP JUMPDEST PUSH1 0x0 DUP1 PUSH1 0x1 PUSH1 0x0 CALLER PUSH20 0xFFFFFFFFFFFFFFFFFFFFFFFFFFFFFFFFFFFFFFFF AND PUSH20 0xFFFFFFFFFFFFFFFFFFFFFFFFFFFFFFFFFFFFFFFF AND DUP2 MSTORE PUSH1 0x20 ADD SWAP1 DUP2 MSTORE PUSH1 0x20 ADD PUSH1 0x0 KECCAK256 SLOAD SUB PUSH2 0x2D3 JUMPI PUSH1 0x40 MLOAD PUSH32 0x8C379A000000000000000000000000000000000000000000000000000000000 DUP2 MSTORE PUSH1 0x4 ADD PUSH2 0x2CA SWAP1 PUSH2 0x97A JUMP JUMPDEST PUSH1 0x40 MLOAD DUP1 SWAP2 SUB SWAP1 REVERT JUMPDEST PUSH1 0x1 PUSH1 0x0 CALLER PUSH20 0xFFFFFFFFFFFFFFFFFFFFFFFFFFFFFFFFFFFFFFFF AND PUSH20 0xFFFFFFFFFFFFFFFFFFFFFFFFFFFFFFFFFFFFFFFF AND DUP2 MSTORE PUSH1 0x20 ADD SWAP1 DUP2 MSTORE PUSH1 0x20 ADD PUSH1 0x0 KECCAK256 SLOAD SWAP1 POP SWAP1 JUMP JUMPDEST PUSH1 0x0 DUP1 PUSH2 0x323 PUSH2 0x250 JUMP JUMPDEST SWAP1 POP PUSH1 0x0 PUSH2 0x32F PUSH2 0x612 JUMP JUMPDEST SWAP1 POP PUSH2 0x15E DUP3 LT ISZERO PUSH2 0x376 JUMPI PUSH1 0x40 MLOAD PUSH32 0x8C379A000000000000000000000000000000000000000000000000000000000 DUP2 MSTORE PUSH1 0x4 ADD PUSH2 0x36D SWAP1 PUSH2 0x9E6 JUMP JUMPDEST PUSH1 0x40 MLOAD DUP1 SWAP2 SUB SWAP1 REVERT JUMPDEST PUSH1 0x4 SLOAD DUP6 GT ISZERO PUSH2 0x3BB JUMPI PUSH1 0x40 MLOAD PUSH32 0x8C379A000000000000000000000000000000000000000000000000000000000 DUP2 MSTORE PUSH1 0x4 ADD PUSH2 0x3B2 SWAP1 PUSH2 0xA78 JUMP JUMPDEST PUSH1 0x40 MLOAD DUP1 SWAP2 SUB SWAP1 REVERT JUMPDEST PUSH1 0x0 PUSH2 0x4B0 PUSH1 0x5 DUP7 DUP9 PUSH2 0x3CE SWAP2 SWAP1 PUSH2 0xAC7 JUMP JUMPDEST PUSH2 0x3D8 SWAP2 SWAP1 PUSH2 0xAC7 JUMP JUMPDEST PUSH2 0x3E2 SWAP2 SWAP1 PUSH2 0xB38 JUMP JUMPDEST SWAP1 POP PUSH1 0x0 DUP6 DUP3 PUSH2 0x3F2 SWAP2 SWAP1 PUSH2 0xB38 JUMP JUMPDEST DUP8 PUSH2 0x3FD SWAP2 SWAP1 PUSH2 0xB69 JUMP JUMPDEST SWAP1 POP DUP1 PUSH1 0x5 PUSH2 0x40C SWAP2 SWAP1 PUSH2 0xAC7 JUMP JUMPDEST DUP4 LT ISZERO PUSH2 0x44E JUMPI PUSH1 0x40 MLOAD PUSH32 0x8C379A000000000000000000000000000000000000000000000000000000000 DUP2 MSTORE PUSH1 0x4 ADD PUSH2 0x445 SWAP1 PUSH2 0xC35 JUMP JUMPDEST PUSH1 0x40 MLOAD DUP1 SWAP2 SUB SWAP1 REVERT JUMPDEST POP POP POP POP SWAP4 SWAP3 POP POP POP JUMP JUMPDEST DUP3 PUSH1 0x1 PUSH1 0x0 DUP7 PUSH20 0xFFFFFFFFFFFFFFFFFFFFFFFFFFFFFFFFFFFFFFFF AND PUSH20 0xFFFFFFFFFFFFFFFFFFFFFFFFFFFFFFFFFFFFFFFF AND DUP2 MSTORE PUSH1 0x20 ADD SWAP1 DUP2 MSTORE PUSH1 0x20 ADD PUSH1 0x0 KECCAK256 DUP2 SWAP1 SSTORE POP DUP2 PUSH1 0x2 PUSH1 0x0 DUP7 PUSH20 0xFFFFFFFFFFFFFFFFFFFFFFFFFFFFFFFFFFFFFFFF AND PUSH20 0xFFFFFFFFFFFFFFFFFFFFFFFFFFFFFFFFFFFFFFFF AND DUP2 MSTORE PUSH1 0x20 ADD SWAP1 DUP2 MSTORE PUSH1 0x20 ADD PUSH1 0x0 KECCAK256 DUP2 SWAP1 SSTORE POP DUP1 PUSH1 0x3 PUSH1 0x0 DUP7 PUSH20 0xFFFFFFFFFFFFFFFFFFFFFFFFFFFFFFFFFFFFFFFF AND PUSH20 0xFFFFFFFFFFFFFFFFFFFFFFFFFFFFFFFFFFFFFFFF AND DUP2 MSTORE PUSH1 0x20 ADD SWAP1 DUP2 MSTORE PUSH1 0x20 ADD PUSH1 0x0 KECCAK256 DUP2 SWAP1 SSTORE POP PUSH1 0x0 PUSH1 0x40 MLOAD DUP1 PUSH1 0x80 ADD PUSH1 0x40 MSTORE DUP1 DUP7 PUSH20 0xFFFFFFFFFFFFFFFFFFFFFFFFFFFFFFFFFFFFFFFF AND DUP2 MSTORE PUSH1 0x20 ADD DUP6 DUP2 MSTORE PUSH1 0x20 ADD DUP5 DUP2 MSTORE PUSH1 0x20 ADD DUP4 DUP2 MSTORE POP SWAP1 POP PUSH1 0x5 DUP2 SWAP1 DUP1 PUSH1 0x1 DUP2 SLOAD ADD DUP1 DUP3 SSTORE DUP1 SWAP2 POP POP PUSH1 0x1 SWAP1 SUB SWAP1 PUSH1 0x0 MSTORE PUSH1 0x20 PUSH1 0x0 KECCAK256 SWAP1 PUSH1 0x4 MUL ADD PUSH1 0x0 SWAP1 SWAP2 SWAP1 SWAP2 SWAP1 SWAP2 POP PUSH1 0x0 DUP3 ADD MLOAD DUP2 PUSH1 0x0 ADD PUSH1 0x0 PUSH2 0x100 EXP DUP2 SLOAD DUP2 PUSH20 0xFFFFFFFFFFFFFFFFFFFFFFFFFFFFFFFFFFFFFFFF MUL NOT AND SWAP1 DUP4 PUSH20 0xFFFFFFFFFFFFFFFFFFFFFFFFFFFFFFFFFFFFFFFF AND MUL OR SWAP1 SSTORE POP PUSH1 0x20 DUP3 ADD MLOAD DUP2 PUSH1 0x1 ADD SSTORE PUSH1 0x40 DUP3 ADD MLOAD DUP2 PUSH1 0x2 ADD SSTORE PUSH1 0x60 DUP3 ADD MLOAD DUP2 PUSH1 0x3 ADD SSTORE POP POP POP POP POP POP POP JUMP JUMPDEST PUSH1 0x3 PUSH1 0x20 MSTORE DUP1 PUSH1 0x0 MSTORE PUSH1 0x40 PUSH1 0x0 KECCAK256 PUSH1 0x0 SWAP2 POP SWAP1 POP SLOAD DUP2 JUMP JUMPDEST PUSH1 0x0 DUP1 PUSH1 0x2 PUSH1 0x0 CALLER PUSH20 0xFFFFFFFFFFFFFFFFFFFFFFFFFFFFFFFFFFFFFFFF AND PUSH20 0xFFFFFFFFFFFFFFFFFFFFFFFFFFFFFFFFFFFFFFFF AND DUP2 MSTORE PUSH1 0x20 ADD SWAP1 DUP2 MSTORE PUSH1 0x20 ADD PUSH1 0x0 KECCAK256 SLOAD SUB PUSH2 0x695 JUMPI PUSH1 0x40 MLOAD PUSH32 0x8C379A000000000000000000000000000000000000000000000000000000000 DUP2 MSTORE PUSH1 0x4 ADD PUSH2 0x68C SWAP1 PUSH2 0xCA1 JUMP JUMPDEST PUSH1 0x40 MLOAD DUP1 SWAP2 SUB SWAP1 REVERT JUMPDEST PUSH1 0x2 PUSH1 0x0 CALLER PUSH20 0xFFFFFFFFFFFFFFFFFFFFFFFFFFFFFFFFFFFFFFFF AND PUSH20 0xFFFFFFFFFFFFFFFFFFFFFFFFFFFFFFFFFFFFFFFF AND DUP2 MSTORE PUSH1 0x20 ADD SWAP1 DUP2 MSTORE PUSH1 0x20 ADD PUSH1 0x0 KECCAK256 SLOAD SWAP1 POP SWAP1 JUMP JUMPDEST PUSH1 0x1 PUSH1 0x20 MSTORE DUP1 PUSH1 0x0 MSTORE PUSH1 0x40 PUSH1 0x0 KECCAK256 PUSH1 0x0 SWAP2 POP SWAP1 POP SLOAD DUP2 JUMP JUMPDEST PUSH1 0x0 DUP1 REVERT JUMPDEST PUSH1 0x0 PUSH20 0xFFFFFFFFFFFFFFFFFFFFFFFFFFFFFFFFFFFFFFFF DUP3 AND SWAP1 POP SWAP2 SWAP1 POP JUMP JUMPDEST PUSH1 0x0 PUSH2 0x722 DUP3 PUSH2 0x6F7 JUMP JUMPDEST SWAP1 POP SWAP2 SWAP1 POP JUMP JUMPDEST PUSH2 0x732 DUP2 PUSH2 0x717 JUMP JUMPDEST DUP2 EQ PUSH2 0x73D JUMPI PUSH1 0x0 DUP1 REVERT JUMPDEST POP JUMP JUMPDEST PUSH1 0x0 DUP2 CALLDATALOAD SWAP1 POP PUSH2 0x74F DUP2 PUSH2 0x729 JUMP JUMPDEST SWAP3 SWAP2 POP POP JUMP JUMPDEST PUSH1 0x0 PUSH1 0x20 DUP3 DUP5 SUB SLT ISZERO PUSH2 0x76B JUMPI PUSH2 0x76A PUSH2 0x6F2 JUMP JUMPDEST JUMPDEST PUSH1 0x0 PUSH2 0x779 DUP5 DUP3 DUP6 ADD PUSH2 0x740 JUMP JUMPDEST SWAP2 POP POP SWAP3 SWAP2 POP POP JUMP JUMPDEST PUSH1 0x0 DUP2 SWAP1 POP SWAP2 SWAP1 POP JUMP JUMPDEST PUSH2 0x795 DUP2 PUSH2 0x782 JUMP JUMPDEST DUP3 MSTORE POP POP JUMP JUMPDEST PUSH1 0x0 PUSH1 0x20 DUP3 ADD SWAP1 POP PUSH2 0x7B0 PUSH1 0x0 DUP4 ADD DUP5 PUSH2 0x78C JUMP JUMPDEST SWAP3 SWAP2 POP POP JUMP JUMPDEST PUSH2 0x7BF DUP2 PUSH2 0x782 JUMP JUMPDEST DUP2 EQ PUSH2 0x7CA JUMPI PUSH1 0x0 DUP1 REVERT JUMPDEST POP JUMP JUMPDEST PUSH1 0x0 DUP2 CALLDATALOAD SWAP1 POP PUSH2 0x7DC DUP2 PUSH2 0x7B6 JUMP JUMPDEST SWAP3 SWAP2 POP POP JUMP JUMPDEST PUSH1 0x0 PUSH1 0x20 DUP3 DUP5 SUB SLT ISZERO PUSH2 0x7F8 JUMPI PUSH2 0x7F7 PUSH2 0x6F2 JUMP JUMPDEST JUMPDEST PUSH1 0x0 PUSH2 0x806 DUP5 DUP3 DUP6 ADD PUSH2 0x7CD JUMP JUMPDEST SWAP2 POP POP SWAP3 SWAP2 POP POP JUMP JUMPDEST PUSH2 0x818 DUP2 PUSH2 0x717 JUMP JUMPDEST DUP3 MSTORE POP POP JUMP JUMPDEST PUSH1 0x0 PUSH1 0x80 DUP3 ADD SWAP1 POP PUSH2 0x833 PUSH1 0x0 DUP4 ADD DUP8 PUSH2 0x80F JUMP JUMPDEST PUSH2 0x840 PUSH1 0x20 DUP4 ADD DUP7 PUSH2 0x78C JUMP JUMPDEST PUSH2 0x84D PUSH1 0x40 DUP4 ADD DUP6 PUSH2 0x78C JUMP JUMPDEST PUSH2 0x85A PUSH1 0x60 DUP4 ADD DUP5 PUSH2 0x78C JUMP JUMPDEST SWAP6 SWAP5 POP POP POP POP POP JUMP JUMPDEST PUSH1 0x0 DUP1 PUSH1 0x0 PUSH1 0x60 DUP5 DUP7 SUB SLT ISZERO PUSH2 0x87C JUMPI PUSH2 0x87B PUSH2 0x6F2 JUMP JUMPDEST JUMPDEST PUSH1 0x0 PUSH2 0x88A DUP7 DUP3 DUP8 ADD PUSH2 0x740 JUMP JUMPDEST SWAP4 POP POP PUSH1 0x20 PUSH2 0x89B DUP7 DUP3 DUP8 ADD PUSH2 0x7CD JUMP JUMPDEST SWAP3 POP POP PUSH1 0x40 PUSH2 0x8AC DUP7 DUP3 DUP8 ADD PUSH2 0x7CD JUMP JUMPDEST SWAP2 POP POP SWAP3 POP SWAP3 POP SWAP3 JUMP JUMPDEST PUSH1 0x0 DUP1 PUSH1 0x0 DUP1 PUSH1 0x80 DUP6 DUP8 SUB SLT ISZERO PUSH2 0x8D0 JUMPI PUSH2 0x8CF PUSH2 0x6F2 JUMP JUMPDEST JUMPDEST PUSH1 0x0 PUSH2 0x8DE DUP8 DUP3 DUP9 ADD PUSH2 0x740 JUMP JUMPDEST SWAP5 POP POP PUSH1 0x20 PUSH2 0x8EF DUP8 DUP3 DUP9 ADD PUSH2 0x7CD JUMP JUMPDEST SWAP4 POP POP PUSH1 0x40 PUSH2 0x900 DUP8 DUP3 DUP9 ADD PUSH2 0x7CD JUMP JUMPDEST SWAP3 POP POP PUSH1 0x60 PUSH2 0x911 DUP8 DUP3 DUP9 ADD PUSH2 0x7CD JUMP JUMPDEST SWAP2 POP POP SWAP3 SWAP6 SWAP2 SWAP5 POP SWAP3 POP JUMP JUMPDEST PUSH1 0x0 DUP3 DUP3 MSTORE PUSH1 0x20 DUP3 ADD SWAP1 POP SWAP3 SWAP2 POP POP JUMP JUMPDEST PUSH32 0x4572726F722067657474696E6720796F7572206372656469742073636F726500 PUSH1 0x0 DUP3 ADD MSTORE POP JUMP JUMPDEST PUSH1 0x0 PUSH2 0x964 PUSH1 0x1F DUP4 PUSH2 0x91D JUMP JUMPDEST SWAP2 POP PUSH2 0x96F DUP3 PUSH2 0x92E JUMP JUMPDEST PUSH1 0x20 DUP3 ADD SWAP1 POP SWAP2 SWAP1 POP JUMP JUMPDEST PUSH1 0x0 PUSH1 0x20 DUP3 ADD SWAP1 POP DUP2 DUP2 SUB PUSH1 0x0 DUP4 ADD MSTORE PUSH2 0x993 DUP2 PUSH2 0x957 JUMP JUMPDEST SWAP1 POP SWAP2 SWAP1 POP JUMP JUMPDEST PUSH32 0x4372656469742073636F726520746F6F206C6F77000000000000000000000000 PUSH1 0x0 DUP3 ADD MSTORE POP JUMP JUMPDEST PUSH1 0x0 PUSH2 0x9D0 PUSH1 0x14 DUP4 PUSH2 0x91D JUMP JUMPDEST SWAP2 POP PUSH2 0x9DB DUP3 PUSH2 0x99A JUMP JUMPDEST PUSH1 0x20 DUP3 ADD SWAP1 POP SWAP2 SWAP1 POP JUMP JUMPDEST PUSH1 0x0 PUSH1 0x20 DUP3 ADD SWAP1 POP DUP2 DUP2 SUB PUSH1 0x0 DUP4 ADD MSTORE PUSH2 0x9FF DUP2 PUSH2 0x9C3 JUMP JUMPDEST SWAP1 POP SWAP2 SWAP1 POP JUMP JUMPDEST PUSH32 0x596F752063616E6E6F74207265717565737420666F72207468697320616D6F75 PUSH1 0x0 DUP3 ADD MSTORE PUSH32 0x6E74000000000000000000000000000000000000000000000000000000000000 PUSH1 0x20 DUP3 ADD MSTORE POP JUMP JUMPDEST PUSH1 0x0 PUSH2 0xA62 PUSH1 0x22 DUP4 PUSH2 0x91D JUMP JUMPDEST SWAP2 POP PUSH2 0xA6D DUP3 PUSH2 0xA06 JUMP JUMPDEST PUSH1 0x40 DUP3 ADD SWAP1 POP SWAP2 SWAP1 POP JUMP JUMPDEST PUSH1 0x0 PUSH1 0x20 DUP3 ADD SWAP1 POP DUP2 DUP2 SUB PUSH1 0x0 DUP4 ADD MSTORE PUSH2 0xA91 DUP2 PUSH2 0xA55 JUMP JUMPDEST SWAP1 POP SWAP2 SWAP1 POP JUMP JUMPDEST PUSH32 0x4E487B7100000000000000000000000000000000000000000000000000000000 PUSH1 0x0 MSTORE PUSH1 0x11 PUSH1 0x4 MSTORE PUSH1 0x24 PUSH1 0x0 REVERT JUMPDEST PUSH1 0x0 PUSH2 0xAD2 DUP3 PUSH2 0x782 JUMP JUMPDEST SWAP2 POP PUSH2 0xADD DUP4 PUSH2 0x782 JUMP JUMPDEST SWAP3 POP DUP3 DUP3 MUL PUSH2 0xAEB DUP2 PUSH2 0x782 JUMP JUMPDEST SWAP2 POP DUP3 DUP3 DIV DUP5 EQ DUP4 ISZERO OR PUSH2 0xB02 JUMPI PUSH2 0xB01 PUSH2 0xA98 JUMP JUMPDEST JUMPDEST POP SWAP3 SWAP2 POP POP JUMP JUMPDEST PUSH32 0x4E487B7100000000000000000000000000000000000000000000000000000000 PUSH1 0x0 MSTORE PUSH1 0x12 PUSH1 0x4 MSTORE PUSH1 0x24 PUSH1 0x0 REVERT JUMPDEST PUSH1 0x0 PUSH2 0xB43 DUP3 PUSH2 0x782 JUMP JUMPDEST SWAP2 POP PUSH2 0xB4E DUP4 PUSH2 0x782 JUMP JUMPDEST SWAP3 POP DUP3 PUSH2 0xB5E JUMPI PUSH2 0xB5D PUSH2 0xB09 JUMP JUMPDEST JUMPDEST DUP3 DUP3 DIV SWAP1 POP SWAP3 SWAP2 POP POP JUMP JUMPDEST PUSH1 0x0 PUSH2 0xB74 DUP3 PUSH2 0x782 JUMP JUMPDEST SWAP2 POP PUSH2 0xB7F DUP4 PUSH2 0x782 JUMP JUMPDEST SWAP3 POP DUP3 DUP3 ADD SWAP1 POP DUP1 DUP3 GT ISZERO PUSH2 0xB97 JUMPI PUSH2 0xB96 PUSH2 0xA98 JUMP JUMPDEST JUMPDEST SWAP3 SWAP2 POP POP JUMP JUMPDEST PUSH32 0x596F75277265206E657420696E636F6D6520697320746F6F206C6F7720666F72 PUSH1 0x0 DUP3 ADD MSTORE PUSH32 0x2074686973206C6F616E20616D6F756E742E20547279207265647563696E6720 PUSH1 0x20 DUP3 ADD MSTORE PUSH32 0x697420796F7572206C6F616E2072657175657374000000000000000000000000 PUSH1 0x40 DUP3 ADD MSTORE POP JUMP JUMPDEST PUSH1 0x0 PUSH2 0xC1F PUSH1 0x54 DUP4 PUSH2 0x91D JUMP JUMPDEST SWAP2 POP PUSH2 0xC2A DUP3 PUSH2 0xB9D JUMP JUMPDEST PUSH1 0x60 DUP3 ADD SWAP1 POP SWAP2 SWAP1 POP JUMP JUMPDEST PUSH1 0x0 PUSH1 0x20 DUP3 ADD SWAP1 POP DUP2 DUP2 SUB PUSH1 0x0 DUP4 ADD MSTORE PUSH2 0xC4E DUP2 PUSH2 0xC12 JUMP JUMPDEST SWAP1 POP SWAP2 SWAP1 POP JUMP JUMPDEST PUSH32 0x4572726F722067657474696E6720796F7572206E657420696E636F6D65000000 PUSH1 0x0 DUP3 ADD MSTORE POP JUMP JUMPDEST PUSH1 0x0 PUSH2 0xC8B PUSH1 0x1D DUP4 PUSH2 0x91D JUMP JUMPDEST SWAP2 POP PUSH2 0xC96 DUP3 PUSH2 0xC55 JUMP JUMPDEST PUSH1 0x20 DUP3 ADD SWAP1 POP SWAP2 SWAP1 POP JUMP JUMPDEST PUSH1 0x0 PUSH1 0x20 DUP3 ADD SWAP1 POP DUP2 DUP2 SUB PUSH1 0x0 DUP4 ADD MSTORE PUSH2 0xCBA DUP2 PUSH2 0xC7E JUMP JUMPDEST SWAP1 POP SWAP2 SWAP1 POP JUMP INVALID LOG2 PUSH5 0x6970667358 0x22 SLT KECCAK256 DUP11 DUP10 SWAP3 DUP6 0xAD PC 0xBA EXTCODECOPY 0xB3 0x4E 0x49 0xC6 0xC6 PUSH32 0x2B3B9775E6B5CCD15FBB09145078AE87E31A64736F6C63430008130033000000 "
				},
				"gasEstimates": {
					"creation": {
						"codeDepositCost": "663800",
						"executionCost": "22810",
						"totalCost": "686610"
					},
					"external": {
						"addCustomer(address,uint256,uint256,uint256)": "infinite",
						"creditScore(address)": "2880",
						"customerArray(uint256)": "infinite",
						"customer_balance(address)": "2836",
						"customer_netIncomepm(address)": "2815",
						"getCreditScore()": "4783",
						"getNetIncome()": "4782",
						"requestLoan(address,uint256,uint256)": "infinite"
					}
				},
				"methodIdentifiers": {
					"addCustomer(address,uint256,uint256,uint256)": "79621078",
					"creditScore(address)": "f7e590ee",
					"customerArray(uint256)": "24b7eb8c",
					"customer_balance(address)": "90d8925f",
					"customer_netIncomepm(address)": "0fd89277",
					"getCreditScore()": "5da19538",
					"getNetIncome()": "9244dd74",
					"requestLoan(address,uint256,uint256)": "6f77ff55"
				}
			},
			"storageLayout": {
				"storage": [
					{
						"astId": 3,
						"contract": "contracts/Loanify_New.sol:Loanify",
						"label": "customerAddress",
						"offset": 0,
						"slot": "0",
						"type": "t_address"
					},
					{
						"astId": 7,
						"contract": "contracts/Loanify_New.sol:Loanify",
						"label": "creditScore",
						"offset": 0,
						"slot": "1",
						"type": "t_mapping(t_address,t_uint256)"
					},
					{
						"astId": 11,
						"contract": "contracts/Loanify_New.sol:Loanify",
						"label": "customer_netIncomepm",
						"offset": 0,
						"slot": "2",
						"type": "t_mapping(t_address,t_uint256)"
					},
					{
						"astId": 15,
						"contract": "contracts/Loanify_New.sol:Loanify",
						"label": "customer_balance",
						"offset": 0,
						"slot": "3",
						"type": "t_mapping(t_address,t_uint256)"
					},
					{
						"astId": 17,
						"contract": "contracts/Loanify_New.sol:Loanify",
						"label": "contract_balance",
						"offset": 0,
						"slot": "4",
						"type": "t_uint256"
					},
					{
						"astId": 38,
						"contract": "contracts/Loanify_New.sol:Loanify",
						"label": "customerArray",
						"offset": 0,
						"slot": "5",
						"type": "t_array(t_struct(CustomerSchema)26_storage)dyn_storage"
					}
				],
				"types": {
					"t_address": {
						"encoding": "inplace",
						"label": "address",
						"numberOfBytes": "20"
					},
					"t_array(t_struct(CustomerSchema)26_storage)dyn_storage": {
						"base": "t_struct(CustomerSchema)26_storage",
						"encoding": "dynamic_array",
						"label": "struct Loanify.CustomerSchema[]",
						"numberOfBytes": "32"
					},
					"t_mapping(t_address,t_uint256)": {
						"encoding": "mapping",
						"key": "t_address",
						"label": "mapping(address => uint256)",
						"numberOfBytes": "32",
						"value": "t_uint256"
					},
					"t_struct(CustomerSchema)26_storage": {
						"encoding": "inplace",
						"label": "struct Loanify.CustomerSchema",
						"members": [
							{
								"astId": 19,
								"contract": "contracts/Loanify_New.sol:Loanify",
								"label": "customerAddress",
								"offset": 0,
								"slot": "0",
								"type": "t_address"
							},
							{
								"astId": 21,
								"contract": "contracts/Loanify_New.sol:Loanify",
								"label": "creditScore",
								"offset": 0,
								"slot": "1",
								"type": "t_uint256"
							},
							{
								"astId": 23,
								"contract": "contracts/Loanify_New.sol:Loanify",
								"label": "customer_netIncomepm",
								"offset": 0,
								"slot": "2",
								"type": "t_uint256"
							},
							{
								"astId": 25,
								"contract": "contracts/Loanify_New.sol:Loanify",
								"label": "customer_balance",
								"offset": 0,
								"slot": "3",
								"type": "t_uint256"
							}
						],
						"numberOfBytes": "128"
					},
					"t_uint256": {
						"encoding": "inplace",
						"label": "uint256",
						"numberOfBytes": "32"
					}
				}
			},
			"userdoc": {
				"kind": "user",
				"methods": {},
				"version": 1
			}
		}
	}
}